{
  "_format": "hh-sol-artifact-1",
  "contractName": "PropertyRegistry",
  "sourceName": "contracts/PropertyRegistry.sol",
  "abi": [
    {
      "inputs": [],
      "stateMutability": "nonpayable",
      "type": "constructor"
    },
    {
      "inputs": [],
      "name": "AccessControlBadConfirmation",
      "type": "error"
    },
    {
      "inputs": [
        {
          "internalType": "address",
          "name": "account",
          "type": "address"
        },
        {
          "internalType": "bytes32",
          "name": "neededRole",
          "type": "bytes32"
        }
      ],
      "name": "AccessControlUnauthorizedAccount",
      "type": "error"
    },
    {
      "inputs": [
        {
          "internalType": "address",
          "name": "sender",
          "type": "address"
        },
        {
          "internalType": "uint256",
          "name": "tokenId",
          "type": "uint256"
        },
        {
          "internalType": "address",
          "name": "owner",
          "type": "address"
        }
      ],
      "name": "ERC721IncorrectOwner",
      "type": "error"
    },
    {
      "inputs": [
        {
          "internalType": "address",
          "name": "operator",
          "type": "address"
        },
        {
          "internalType": "uint256",
          "name": "tokenId",
          "type": "uint256"
        }
      ],
      "name": "ERC721InsufficientApproval",
      "type": "error"
    },
    {
      "inputs": [
        {
          "internalType": "address",
          "name": "approver",
          "type": "address"
        }
      ],
      "name": "ERC721InvalidApprover",
      "type": "error"
    },
    {
      "inputs": [
        {
          "internalType": "address",
          "name": "operator",
          "type": "address"
        }
      ],
      "name": "ERC721InvalidOperator",
      "type": "error"
    },
    {
      "inputs": [
        {
          "internalType": "address",
          "name": "owner",
          "type": "address"
        }
      ],
      "name": "ERC721InvalidOwner",
      "type": "error"
    },
    {
      "inputs": [
        {
          "internalType": "address",
          "name": "receiver",
          "type": "address"
        }
      ],
      "name": "ERC721InvalidReceiver",
      "type": "error"
    },
    {
      "inputs": [
        {
          "internalType": "address",
          "name": "sender",
          "type": "address"
        }
      ],
      "name": "ERC721InvalidSender",
      "type": "error"
    },
    {
      "inputs": [
        {
          "internalType": "uint256",
          "name": "tokenId",
          "type": "uint256"
        }
      ],
      "name": "ERC721NonexistentToken",
      "type": "error"
    },
    {
      "inputs": [],
      "name": "ReentrancyGuardReentrantCall",
      "type": "error"
    },
    {
      "anonymous": false,
      "inputs": [
        {
          "indexed": true,
          "internalType": "address",
          "name": "owner",
          "type": "address"
        },
        {
          "indexed": true,
          "internalType": "address",
          "name": "approved",
          "type": "address"
        },
        {
          "indexed": true,
          "internalType": "uint256",
          "name": "tokenId",
          "type": "uint256"
        }
      ],
      "name": "Approval",
      "type": "event"
    },
    {
      "anonymous": false,
      "inputs": [
        {
          "indexed": true,
          "internalType": "address",
          "name": "owner",
          "type": "address"
        },
        {
          "indexed": true,
          "internalType": "address",
          "name": "operator",
          "type": "address"
        },
        {
          "indexed": false,
          "internalType": "bool",
          "name": "approved",
          "type": "bool"
        }
      ],
      "name": "ApprovalForAll",
      "type": "event"
    },
    {
      "anonymous": false,
      "inputs": [
        {
          "indexed": false,
          "internalType": "uint256",
          "name": "_fromTokenId",
          "type": "uint256"
        },
        {
          "indexed": false,
          "internalType": "uint256",
          "name": "_toTokenId",
          "type": "uint256"
        }
      ],
      "name": "BatchMetadataUpdate",
      "type": "event"
    },
    {
      "anonymous": false,
      "inputs": [
        {
          "indexed": true,
          "internalType": "address",
          "name": "user",
          "type": "address"
        },
        {
          "indexed": true,
          "internalType": "bytes32",
          "name": "identityHash",
          "type": "bytes32"
        }
      ],
      "name": "IdentityLinked",
      "type": "event"
    },
    {
      "anonymous": false,
      "inputs": [
        {
          "indexed": false,
          "internalType": "uint256",
          "name": "_tokenId",
          "type": "uint256"
        }
      ],
      "name": "MetadataUpdate",
      "type": "event"
    },
    {
      "anonymous": false,
      "inputs": [
        {
          "indexed": true,
          "internalType": "uint256",
          "name": "tokenId",
          "type": "uint256"
        },
        {
          "indexed": true,
          "internalType": "address",
          "name": "owner",
          "type": "address"
        }
      ],
      "name": "PropertyMinted",
      "type": "event"
    },
    {
      "anonymous": false,
      "inputs": [
        {
          "indexed": true,
          "internalType": "uint256",
          "name": "tokenId",
          "type": "uint256"
        },
        {
          "indexed": false,
          "internalType": "address",
          "name": "tenant",
          "type": "address"
        },
        {
          "indexed": false,
          "internalType": "uint256",
          "name": "duration",
          "type": "uint256"
        },
        {
          "indexed": false,
          "internalType": "uint256",
          "name": "price",
          "type": "uint256"
        },
        {
          "indexed": false,
          "internalType": "uint256",
          "name": "timestamp",
          "type": "uint256"
        }
      ],
      "name": "PropertyRented",
      "type": "event"
    },
    {
      "anonymous": false,
      "inputs": [
        {
          "indexed": true,
          "internalType": "uint256",
          "name": "tokenId",
          "type": "uint256"
        },
        {
          "indexed": false,
          "internalType": "address",
          "name": "from",
          "type": "address"
        },
        {
          "indexed": false,
          "internalType": "address",
          "name": "to",
          "type": "address"
        },
        {
          "indexed": false,
          "internalType": "uint256",
          "name": "price",
          "type": "uint256"
        }
      ],
      "name": "PropertySold",
      "type": "event"
    },
    {
      "anonymous": false,
      "inputs": [
        {
          "indexed": true,
          "internalType": "uint256",
          "name": "tokenId",
          "type": "uint256"
        },
        {
          "indexed": false,
          "internalType": "string",
          "name": "newStatus",
          "type": "string"
        },
        {
          "indexed": false,
          "internalType": "uint256",
          "name": "price",
          "type": "uint256"
        }
      ],
      "name": "PropertyStatusChanged",
      "type": "event"
    },
    {
      "anonymous": false,
      "inputs": [
        {
          "indexed": true,
          "internalType": "uint256",
          "name": "requestId",
          "type": "uint256"
        },
        {
          "indexed": true,
          "internalType": "address",
          "name": "user",
          "type": "address"
        }
      ],
      "name": "RequestSubmitted",
      "type": "event"
    },
    {
      "anonymous": false,
      "inputs": [
        {
          "indexed": true,
          "internalType": "bytes32",
          "name": "role",
          "type": "bytes32"
        },
        {
          "indexed": true,
          "internalType": "bytes32",
          "name": "previousAdminRole",
          "type": "bytes32"
        },
        {
          "indexed": true,
          "internalType": "bytes32",
          "name": "newAdminRole",
          "type": "bytes32"
        }
      ],
      "name": "RoleAdminChanged",
      "type": "event"
    },
    {
      "anonymous": false,
      "inputs": [
        {
          "indexed": true,
          "internalType": "bytes32",
          "name": "role",
          "type": "bytes32"
        },
        {
          "indexed": true,
          "internalType": "address",
          "name": "account",
          "type": "address"
        },
        {
          "indexed": true,
          "internalType": "address",
          "name": "sender",
          "type": "address"
        }
      ],
      "name": "RoleGranted",
      "type": "event"
    },
    {
      "anonymous": false,
      "inputs": [
        {
          "indexed": true,
          "internalType": "bytes32",
          "name": "role",
          "type": "bytes32"
        },
        {
          "indexed": true,
          "internalType": "address",
          "name": "account",
          "type": "address"
        },
        {
          "indexed": true,
          "internalType": "address",
          "name": "sender",
          "type": "address"
        }
      ],
      "name": "RoleRevoked",
      "type": "event"
    },
    {
      "anonymous": false,
      "inputs": [
        {
          "indexed": true,
          "internalType": "uint256",
          "name": "requestId",
          "type": "uint256"
        },
        {
          "indexed": false,
          "internalType": "enum PropertyRegistry.Status",
          "name": "newStatus",
          "type": "uint8"
        }
      ],
      "name": "StatusUpdated",
      "type": "event"
    },
    {
      "anonymous": false,
      "inputs": [
        {
          "indexed": true,
          "internalType": "address",
          "name": "from",
          "type": "address"
        },
        {
          "indexed": true,
          "internalType": "address",
          "name": "to",
          "type": "address"
        },
        {
          "indexed": true,
          "internalType": "uint256",
          "name": "tokenId",
          "type": "uint256"
        }
      ],
      "name": "Transfer",
      "type": "event"
    },
    {
      "inputs": [],
      "name": "DEFAULT_ADMIN_ROLE",
      "outputs": [
        {
          "internalType": "bytes32",
          "name": "",
          "type": "bytes32"
        }
      ],
      "stateMutability": "view",
      "type": "function"
    },
    {
      "inputs": [],
      "name": "GOVT_OFFICER_ROLE",
      "outputs": [
        {
          "internalType": "bytes32",
          "name": "",
          "type": "bytes32"
        }
      ],
      "stateMutability": "view",
      "type": "function"
    },
    {
      "inputs": [],
      "name": "REGISTRAR_ROLE",
      "outputs": [
        {
          "internalType": "bytes32",
          "name": "",
          "type": "bytes32"
        }
      ],
      "stateMutability": "view",
      "type": "function"
    },
    {
      "inputs": [],
      "name": "SURVEYOR_ROLE",
      "outputs": [
        {
          "internalType": "bytes32",
          "name": "",
          "type": "bytes32"
        }
      ],
      "stateMutability": "view",
      "type": "function"
    },
    {
      "inputs": [
        {
          "internalType": "address",
          "name": "to",
          "type": "address"
        },
        {
          "internalType": "uint256",
          "name": "tokenId",
          "type": "uint256"
        }
      ],
      "name": "approve",
      "outputs": [],
      "stateMutability": "nonpayable",
      "type": "function"
    },
    {
      "inputs": [
        {
          "internalType": "uint256",
          "name": "_requestId",
          "type": "uint256"
        }
      ],
      "name": "approveAndMint",
      "outputs": [],
      "stateMutability": "nonpayable",
      "type": "function"
    },
    {
      "inputs": [
        {
          "internalType": "address",
          "name": "owner",
          "type": "address"
        }
      ],
      "name": "balanceOf",
      "outputs": [
        {
          "internalType": "uint256",
          "name": "",
          "type": "uint256"
        }
      ],
      "stateMutability": "view",
      "type": "function"
    },
    {
      "inputs": [
        {
          "internalType": "uint256",
          "name": "_tokenId",
          "type": "uint256"
        },
        {
          "internalType": "string",
          "name": "_newOwnerName",
          "type": "string"
        }
      ],
      "name": "buyProperty",
      "outputs": [],
      "stateMutability": "payable",
      "type": "function"
    },
    {
      "inputs": [
        {
          "internalType": "uint256",
          "name": "_requestId",
          "type": "uint256"
        }
      ],
      "name": "completeSurvey",
      "outputs": [],
      "stateMutability": "nonpayable",
      "type": "function"
    },
    {
      "inputs": [],
      "name": "getAllRequests",
      "outputs": [
        {
          "components": [
            {
              "internalType": "uint256",
              "name": "id",
              "type": "uint256"
            },
            {
              "internalType": "address",
              "name": "requester",
              "type": "address"
            },
            {
              "internalType": "string",
              "name": "ownerName",
              "type": "string"
            },
            {
              "internalType": "string",
              "name": "ipfsMetadata",
              "type": "string"
            },
            {
              "internalType": "string",
              "name": "identityRefId",
              "type": "string"
            },
            {
              "internalType": "string",
              "name": "landArea",
              "type": "string"
            },
            {
              "internalType": "string",
              "name": "landLocation",
              "type": "string"
            },
            {
              "internalType": "string",
              "name": "khasraNumber",
              "type": "string"
            },
            {
              "internalType": "enum PropertyRegistry.Status",
              "name": "status",
              "type": "uint8"
            },
            {
              "internalType": "enum PropertyRegistry.SaleStatus",
              "name": "saleStatus",
              "type": "uint8"
            },
            {
              "internalType": "uint256",
              "name": "price",
              "type": "uint256"
            },
            {
              "internalType": "uint256",
              "name": "leasePrice",
              "type": "uint256"
            },
            {
              "internalType": "uint256",
              "name": "leaseDuration",
              "type": "uint256"
            },
            {
              "internalType": "uint256",
              "name": "leaseEndTime",
              "type": "uint256"
            },
            {
              "internalType": "address",
              "name": "tenant",
              "type": "address"
            },
            {
              "internalType": "uint256",
              "name": "requestTime",
              "type": "uint256"
            }
          ],
          "internalType": "struct PropertyRegistry.PropertyRequest[]",
          "name": "",
          "type": "tuple[]"
        }
      ],
      "stateMutability": "view",
      "type": "function"
    },
    {
      "inputs": [
        {
          "internalType": "uint256",
          "name": "tokenId",
          "type": "uint256"
        }
      ],
      "name": "getApproved",
      "outputs": [
        {
          "internalType": "address",
          "name": "",
          "type": "address"
        }
      ],
      "stateMutability": "view",
      "type": "function"
    },
    {
      "inputs": [
        {
          "internalType": "bytes32",
          "name": "role",
          "type": "bytes32"
        }
      ],
      "name": "getRoleAdmin",
      "outputs": [
        {
          "internalType": "bytes32",
          "name": "",
          "type": "bytes32"
        }
      ],
      "stateMutability": "view",
      "type": "function"
    },
    {
      "inputs": [
        {
          "internalType": "bytes32",
          "name": "role",
          "type": "bytes32"
        },
        {
          "internalType": "address",
          "name": "account",
          "type": "address"
        }
      ],
      "name": "grantRole",
      "outputs": [],
      "stateMutability": "nonpayable",
      "type": "function"
    },
    {
      "inputs": [
        {
          "internalType": "bytes32",
          "name": "role",
          "type": "bytes32"
        },
        {
          "internalType": "address",
          "name": "account",
          "type": "address"
        }
      ],
      "name": "hasRole",
      "outputs": [
        {
          "internalType": "bool",
          "name": "",
          "type": "bool"
        }
      ],
      "stateMutability": "view",
      "type": "function"
    },
    {
      "inputs": [
        {
          "internalType": "bytes32",
          "name": "",
          "type": "bytes32"
        }
      ],
      "name": "identityToWallet",
      "outputs": [
        {
          "internalType": "address",
          "name": "",
          "type": "address"
        }
      ],
      "stateMutability": "view",
      "type": "function"
    },
    {
      "inputs": [
        {
          "internalType": "address",
          "name": "owner",
          "type": "address"
        },
        {
          "internalType": "address",
          "name": "operator",
          "type": "address"
        }
      ],
      "name": "isApprovedForAll",
      "outputs": [
        {
          "internalType": "bool",
          "name": "",
          "type": "bool"
        }
      ],
      "stateMutability": "view",
      "type": "function"
    },
    {
      "inputs": [
        {
          "internalType": "uint256",
          "name": "_tokenId",
          "type": "uint256"
        },
        {
          "internalType": "uint256",
          "name": "_leasePrice",
          "type": "uint256"
        },
        {
          "internalType": "uint256",
          "name": "_duration",
          "type": "uint256"
        }
      ],
      "name": "listPropertyForLease",
      "outputs": [],
      "stateMutability": "nonpayable",
      "type": "function"
    },
    {
      "inputs": [
        {
          "internalType": "uint256",
          "name": "_tokenId",
          "type": "uint256"
        },
        {
          "internalType": "uint256",
          "name": "_priceInWei",
          "type": "uint256"
        }
      ],
      "name": "listPropertyForSale",
      "outputs": [],
      "stateMutability": "nonpayable",
      "type": "function"
    },
    {
      "inputs": [
        {
          "internalType": "uint256",
          "name": "_tokenId",
          "type": "uint256"
        }
      ],
      "name": "makePropertyPrivate",
      "outputs": [],
      "stateMutability": "nonpayable",
      "type": "function"
    },
    {
      "inputs": [],
      "name": "name",
      "outputs": [
        {
          "internalType": "string",
          "name": "",
          "type": "string"
        }
      ],
      "stateMutability": "view",
      "type": "function"
    },
    {
      "inputs": [
        {
          "internalType": "uint256",
          "name": "tokenId",
          "type": "uint256"
        }
      ],
      "name": "ownerOf",
      "outputs": [
        {
          "internalType": "address",
          "name": "",
          "type": "address"
        }
      ],
      "stateMutability": "view",
      "type": "function"
    },
    {
      "inputs": [
        {
          "internalType": "string",
          "name": "_name",
          "type": "string"
        },
        {
          "internalType": "string",
          "name": "_email",
          "type": "string"
        },
        {
          "internalType": "string",
          "name": "_role",
          "type": "string"
        },
        {
          "internalType": "string",
          "name": "_secretCode",
          "type": "string"
        },
        {
          "internalType": "string",
          "name": "_aadhaarPAN",
          "type": "string"
        }
      ],
      "name": "registerUser",
      "outputs": [],
      "stateMutability": "nonpayable",
      "type": "function"
    },
    {
      "inputs": [],
      "name": "registrationFee",
      "outputs": [
        {
          "internalType": "uint256",
          "name": "",
          "type": "uint256"
        }
      ],
      "stateMutability": "view",
      "type": "function"
    },
    {
      "inputs": [
        {
          "internalType": "uint256",
          "name": "_requestId",
          "type": "uint256"
        }
      ],
      "name": "rejectRequest",
      "outputs": [],
      "stateMutability": "nonpayable",
      "type": "function"
    },
    {
      "inputs": [
        {
          "internalType": "bytes32",
          "name": "role",
          "type": "bytes32"
        },
        {
          "internalType": "address",
          "name": "callerConfirmation",
          "type": "address"
        }
      ],
      "name": "renounceRole",
      "outputs": [],
      "stateMutability": "nonpayable",
      "type": "function"
    },
    {
      "inputs": [
        {
          "internalType": "uint256",
          "name": "_tokenId",
          "type": "uint256"
        }
      ],
      "name": "rentProperty",
      "outputs": [],
      "stateMutability": "payable",
      "type": "function"
    },
    {
      "inputs": [
        {
          "internalType": "string",
          "name": "_ownerName",
          "type": "string"
        },
        {
          "internalType": "string",
          "name": "_ipfsMetadata",
          "type": "string"
        },
        {
          "internalType": "string",
          "name": "_landArea",
          "type": "string"
        },
        {
          "internalType": "string",
          "name": "_landLocation",
          "type": "string"
        },
        {
          "internalType": "string",
          "name": "_khasraNumber",
          "type": "string"
        }
      ],
      "name": "requestRegistration",
      "outputs": [],
      "stateMutability": "payable",
      "type": "function"
    },
    {
      "inputs": [
        {
          "internalType": "uint256",
          "name": "",
          "type": "uint256"
        }
      ],
      "name": "requests",
      "outputs": [
        {
          "internalType": "uint256",
          "name": "id",
          "type": "uint256"
        },
        {
          "internalType": "address",
          "name": "requester",
          "type": "address"
        },
        {
          "internalType": "string",
          "name": "ownerName",
          "type": "string"
        },
        {
          "internalType": "string",
          "name": "ipfsMetadata",
          "type": "string"
        },
        {
          "internalType": "string",
          "name": "identityRefId",
          "type": "string"
        },
        {
          "internalType": "string",
          "name": "landArea",
          "type": "string"
        },
        {
          "internalType": "string",
          "name": "landLocation",
          "type": "string"
        },
        {
          "internalType": "string",
          "name": "khasraNumber",
          "type": "string"
        },
        {
          "internalType": "enum PropertyRegistry.Status",
          "name": "status",
          "type": "uint8"
        },
        {
          "internalType": "enum PropertyRegistry.SaleStatus",
          "name": "saleStatus",
          "type": "uint8"
        },
        {
          "internalType": "uint256",
          "name": "price",
          "type": "uint256"
        },
        {
          "internalType": "uint256",
          "name": "leasePrice",
          "type": "uint256"
        },
        {
          "internalType": "uint256",
          "name": "leaseDuration",
          "type": "uint256"
        },
        {
          "internalType": "uint256",
          "name": "leaseEndTime",
          "type": "uint256"
        },
        {
          "internalType": "address",
          "name": "tenant",
          "type": "address"
        },
        {
          "internalType": "uint256",
          "name": "requestTime",
          "type": "uint256"
        }
      ],
      "stateMutability": "view",
      "type": "function"
    },
    {
      "inputs": [
        {
          "internalType": "bytes32",
          "name": "role",
          "type": "bytes32"
        },
        {
          "internalType": "address",
          "name": "account",
          "type": "address"
        }
      ],
      "name": "revokeRole",
      "outputs": [],
      "stateMutability": "nonpayable",
      "type": "function"
    },
    {
      "inputs": [
        {
          "internalType": "address",
          "name": "from",
          "type": "address"
        },
        {
          "internalType": "address",
          "name": "to",
          "type": "address"
        },
        {
          "internalType": "uint256",
          "name": "tokenId",
          "type": "uint256"
        }
      ],
      "name": "safeTransferFrom",
      "outputs": [],
      "stateMutability": "nonpayable",
      "type": "function"
    },
    {
      "inputs": [
        {
          "internalType": "address",
          "name": "from",
          "type": "address"
        },
        {
          "internalType": "address",
          "name": "to",
          "type": "address"
        },
        {
          "internalType": "uint256",
          "name": "tokenId",
          "type": "uint256"
        },
        {
          "internalType": "bytes",
          "name": "data",
          "type": "bytes"
        }
      ],
      "name": "safeTransferFrom",
      "outputs": [],
      "stateMutability": "nonpayable",
      "type": "function"
    },
    {
      "inputs": [
        {
          "internalType": "address",
          "name": "operator",
          "type": "address"
        },
        {
          "internalType": "bool",
          "name": "approved",
          "type": "bool"
        }
      ],
      "name": "setApprovalForAll",
      "outputs": [],
      "stateMutability": "nonpayable",
      "type": "function"
    },
    {
      "inputs": [
        {
          "internalType": "bytes4",
          "name": "interfaceId",
          "type": "bytes4"
        }
      ],
      "name": "supportsInterface",
      "outputs": [
        {
          "internalType": "bool",
          "name": "",
          "type": "bool"
        }
      ],
      "stateMutability": "view",
      "type": "function"
    },
    {
      "inputs": [],
      "name": "symbol",
      "outputs": [
        {
          "internalType": "string",
          "name": "",
          "type": "string"
        }
      ],
      "stateMutability": "view",
      "type": "function"
    },
    {
      "inputs": [
        {
          "internalType": "uint256",
          "name": "tokenId",
          "type": "uint256"
        }
      ],
      "name": "tokenURI",
      "outputs": [
        {
          "internalType": "string",
          "name": "",
          "type": "string"
        }
      ],
      "stateMutability": "view",
      "type": "function"
    },
    {
      "inputs": [
        {
          "internalType": "address",
          "name": "from",
          "type": "address"
        },
        {
          "internalType": "address",
          "name": "to",
          "type": "address"
        },
        {
          "internalType": "uint256",
          "name": "tokenId",
          "type": "uint256"
        }
      ],
      "name": "transferFrom",
      "outputs": [],
      "stateMutability": "nonpayable",
      "type": "function"
    },
    {
      "inputs": [
        {
          "internalType": "address",
          "name": "",
          "type": "address"
        }
      ],
      "name": "users",
      "outputs": [
        {
          "internalType": "string",
          "name": "name",
          "type": "string"
        },
        {
          "internalType": "string",
          "name": "email",
          "type": "string"
        },
        {
          "internalType": "string",
          "name": "role",
          "type": "string"
        },
        {
          "internalType": "bool",
          "name": "isRegistered",
          "type": "bool"
        }
      ],
      "stateMutability": "view",
      "type": "function"
    },
    {
      "inputs": [
        {
          "internalType": "uint256",
          "name": "_requestId",
          "type": "uint256"
        }
      ],
      "name": "verifyByGovt",
      "outputs": [],
      "stateMutability": "nonpayable",
      "type": "function"
    },
    {
      "inputs": [
        {
          "internalType": "address",
          "name": "",
          "type": "address"
        }
      ],
      "name": "walletToIdentity",
      "outputs": [
        {
          "internalType": "bytes32",
          "name": "",
          "type": "bytes32"
        }
      ],
      "stateMutability": "view",
      "type": "function"
    },
    {
      "inputs": [],
      "name": "withdrawFunds",
      "outputs": [],
      "stateMutability": "nonpayable",
      "type": "function"
    }
  ],
  "bytecode": "0x604060808152346200077b576200001562000780565b600f81526020906e125b991a5853185b99149958dbdc99608a1b828201526200003d62000780565b60038082526224a62960e91b84830152825193909291906001600160401b0380861162000765576000928354966001958689811c991680156200075a575b858a101462000679578190601f998a811162000707575b5085908a8311600114620006a457879262000698575b505060001982891b1c191690861b1784555b805190828211620005a35785548681811c911680156200068d575b85821014620006795790818984931162000626575b508490898311600114620005c3578692620005b7575b505060001982881b1c191690851b1784555b8360085566038d7ea4c68000600c556200012c33620007a0565b508651936080850185811083821117620005a35788526200014c62000780565b600b81526a29bab832b91020b236b4b760a91b8482015285526200016f62000780565b96600c88526b30b236b4b72033b7bb1734b760a11b848901528386019788526200019862000780565b946005908187526420a226a4a760d91b868801528a88019687526060880199848b52338252600b87528b82209851805190878211620004c4578a548781811c9116801562000598575b8a821014620004a55790818784931162000547575b508990878311600114620004e4578592620004d8575b5050600019828d1b1c191690861b1789555b51805189860191878211620004c45782548781811c91168015620004b9575b8a821014620004a55790818784931162000454575b508990878311600114620003f1578592620003e5575b5050600019828d1b1c191690861b1790555b600288019651918251958611620003d1578754908582811c92168015620003c6575b88831014620003b2578482116200036c575b50508592851160011462000306579394508492919083620002fa575b50501b9160001990861b1c19161790555b019051151560ff8019835416911617905551613a1d9081620008338239f35b015192503880620002ca565b86815285812093958591601f198316915b8883831062000351575050501062000338575b505050811b019055620002db565b015160001983881b60f8161c191690553880806200032a565b85870151885590960195948501948793509081019062000317565b8883528783209085808901821c8301938a8a10620003a8575b01901c019085905b8281106200039c5750620002ae565b8381550185906200038d565b9350829362000385565b634e487b7160e01b83526022600452602483fd5b91607f16916200029c565b634e487b7160e01b82526041600452602482fd5b01519050388062000268565b8486528a86208994509190601f198416875b8d8282106200043d575050841162000424575b505050811b0190556200027a565b0151600019838f1b60f8161c1916905538808062000416565b8385015186558c9790950194938401930162000403565b90915083855289852087808501881c8201928c86106200049b575b918a918695949301891c01915b8281106200048c57505062000252565b8781558594508a91016200047c565b925081926200046f565b634e487b7160e01b85526022600452602485fd5b90607f16906200023d565b634e487b7160e01b84526041600452602484fd5b0151905038806200020c565b8c86528a86208994509190601f198416875b8d82821062000530575050841162000517575b505050811b0189556200021e565b0151600019838f1b60f8161c1916905538808062000509565b8385015186558c97909501949384019301620004f6565b9091508b855289852087808501881c8201928c86106200058e575b918a918695949301891c01915b8281106200057f575050620001f6565b8781558594508a91016200056f565b9250819262000562565b90607f1690620001e1565b634e487b7160e01b85526041600452602485fd5b01519050388062000100565b8787528587208894509190601f198416885b888282106200060f5750508411620005f6575b505050811b01845562000112565b0151600019838a1b60f8161c19169055388080620005e8565b8385015186558b97909501949384019301620005d5565b9091508686528486208980850160051c8201928786106200066f575b918991869594930160051c01915b82811062000660575050620000ea565b88815585945089910162000650565b9250819262000642565b634e487b7160e01b86526022600452602486fd5b90607f1690620000d5565b015190503880620000a8565b8780528688208994509190601f198416895b89828210620006f05750508411620006d7575b505050811b018455620000ba565b0151600019838b1b60f8161c19169055388080620006c9565b8385015186558c97909501949384019301620006b6565b9091508680528587208a80850160051c82019288861062000750575b918a91869594930160051c01915b8281106200074157505062000092565b8981558594508a910162000731565b9250819262000723565b98607f16986200007b565b634e487b7160e01b600052604160045260246000fd5b600080fd5b60408051919082016001600160401b038111838210176200076557604052565b6001600160a01b031660008181527f6d5257204ebe7d88fd91ae87941cb2dd9d8062b64ae5a2bd2d28ec40b9fbf6df602052604081205490919060ff166200082e5781805260076020526040822081835260205260408220600160ff1982541617905533917f2f8788117e7eff1d82e926ec794901d17c78024a50270940304540a733656f0d8180a4600190565b509056fe608080604052600436101561001357600080fd5b60003560e01c90816301ffc9a714612e8c5750806306fdde0314612de9578063081812fc14612dab578063095ea7b314612cc45780630e88e55b14612bbc5780630f55415b14612ad057806310c5e1b214612aa757806314c44e0914612a895780631955cf81146126d9578063231a61591461269f57806323b872dd1461268857806324600fc314612600578063248a9ca3146125d15780632d7788db146124d95780632f2ff15d1461249a57806336568abe1461245357806342842e0e146124255780636352211e146123f557806370a082311461239c57806381d12c5814612228578063860c226b146121a35780638e1e873214611db257806391d1485414611d6557806395d89b4114611c865780639d36ab6c14611abf578063a217fddf14611aa3578063a22cb465146119f5578063a6092098146118f6578063a87430ba14611856578063ac9f0a4014611159578063b1de05a714611125578063b88d4fde146110ba578063bcc36cff1461100e578063be47e02814610fd3578063c87b56dd14610f76578063d538d7c81461064e578063d547741f1461060d578063e985e9c5146105b7578063f68e95531461058e5763fb1a002a146101d757600080fd5b3461058957600036600319011261058957600d8054906101f682613946565b906102046040519283612fe9565b828252601f1961021384613946565b0160005b818110610500575050600192835b81811115610396578385604051918291602090818401828552835180915260408501928060408360051b8801019501936000905b8382106102665787870388f35b918496819592949698508190603f198b82030185528951908151815260018060a01b03918284820151168483015261031a6103086102f56102e26102cf6102bc60408701516102008060408b0152890190612f2b565b60608088015190898303908a0152612f2b565b6080808701519088830390890152612f2b565b60a0808601519087830390880152612f2b565b60c0808501519086830390870152612f2b565b60e083015184820360e0860152612f2b565b9261032e610100808401519085019061318f565b610341610120808401519085019061319c565b6101408083015190840152610160808301519084015261018080830151908401526101a080830151908401526101c0908183015116908301526101e08091015191015298019201920187969593919492610259565b80600052600e906020918083526040600020906000198301908382116104ea57604051906103c382612f97565b83548252898401546001600160a01b03908116968301969096526103e9600285016130e9565b60408301526103fa600385016130e9565b606083015261040b600485016130e9565b6080830152600561041d8186016130e9565b60a084015261042e600686016130e9565b60c084015261043f600786016130e9565b60e08401526008808601549060ff92838316908110156104d4576101008601521c169360048510156104d4576104cf966104c9956101208501526009820154610140850152600a820154610160850152600b820154610180850152600c8201546101a085015289820154166101c084015201546101e08201526104c2828961395d565b528661395d565b506138dc565b610225565b634e487b7160e01b600052602160045260246000fd5b634e487b7160e01b600052601160045260246000fd5b60209060405161050f81612f97565b6000815282600081830152606080604084015280808401528060808401528060a08401528060c084015260e08301526000610100830152600061012083015260006101408301526000610160830152600061018083015260006101a083015260006101c083015260006101e0830152828701015201610217565b600080fd5b346105895760003660031901126105895760206040516000805160206139c88339815191528152f35b34610589576040366003190112610589576105d0612f6b565b6105d8612f81565b9060018060a01b03809116600052600560205260406000209116600052602052602060ff604060002054166040519015158152f35b346105895760403660031901126105895761064c60043561062c612f81565b9080600052600760205261064760016040600020015461322f565b613473565b005b610657366131a9565b916106606138eb565b33600052600b60205260ff6003604060002001541615610f2757600c543410610eef5761068e600d546138dc565b9384600d55604051956106a087612f97565b858752336020880152604087015260608601526040516106bf81612fce565b600981526813125392d15117d25160ba1b6020820152608086015260a085015260c084015260e08301526000610100830152600061012083015260006101408301526000610160830152600061018083015260006101a083015260006101c0830152426101e0830152600052600e6020526040600020908051825560018060a01b036020820151166001600160601b0360a01b60018401541617600183015560408101519182516001600160401b038111610b195761078160028301546130af565b601f8111610ea8575b506020601f8211600114610e3a5781929394600092610e2f575b50508160011b916000199060031b1c19161760028201555b60608201519182516001600160401b038111610b19576107df60038401546130af565b601f8111610de8575b506020601f8211600114610d7a5781929394600092610d6f575b50508160011b916000199060031b1c19161760038301555b60808101519182516001600160401b038111610b195761083d60048301546130af565b601f8111610d28575b506020601f8211600114610cba5781929394600092610caf575b50508160011b916000199060031b1c19161760048201555b60a08201519182516001600160401b038111610b195761089b60058401546130af565b601f8111610c68575b506020601f8211600114610bfa5781929394600092610bef575b50508160011b916000199060031b1c19161760058301555b60c08101519182516001600160401b038111610b19576108f960068301546130af565b601f8111610ba8575b506020601f8211600114610b3a5781929394600092610b2f575b50508160011b916000199060031b1c19161760068201555b60e08201519182516001600160401b038111610b195761095760078401546130af565b601f8111610ad2575b506020601f8211600114610a645781929394600092610a59575b50508160011b916000199060031b1c19161760078301555b610100810151600883019160058210156104d4578254926101208201519260048410156104d457600e9460ff61ff006101e09660081b1692169061ffff1916171790556101408101516009850155610160810151600a850155610180810151600b8501556101a0810151600c850155600d840160018060a01b036101c0830151166001600160601b0360a01b825416179055015191015533600d547f67da995c6df7166078290dae7ac4f9c90eeb269d051c434663949b26f04dba1d600080a36001600855005b01519050848061097a565b6007840160005260206000209060005b601f1984168110610aba5750600193949583601f19811610610aa1575b505050811b016007830155610992565b015160001960f88460031b161c19169055848080610a91565b9091602060018192858a015181550193019101610a74565b600784016000526020600020601f830160051c810160208410610b12575b601f830160051c82018110610b06575050610960565b60008155600101610af0565b5080610af0565b634e487b7160e01b600052604160045260246000fd5b01519050848061091c565b6006830160005260206000209060005b601f1984168110610b905750600193949583601f19811610610b77575b505050811b016006820155610934565b015160001960f88460031b161c19169055848080610b67565b9091602060018192858a015181550193019101610b4a565b600683016000526020600020601f830160051c810160208410610be8575b601f830160051c82018110610bdc575050610902565b60008155600101610bc6565b5080610bc6565b0151905084806108be565b6005840160005260206000209060005b601f1984168110610c505750600193949583601f19811610610c37575b505050811b0160058301556108d6565b015160001960f88460031b161c19169055848080610c27565b9091602060018192858a015181550193019101610c0a565b600584016000526020600020601f830160051c810160208410610ca8575b601f830160051c82018110610c9c5750506108a4565b60008155600101610c86565b5080610c86565b015190508480610860565b6004830160005260206000209060005b601f1984168110610d105750600193949583601f19811610610cf7575b505050811b016004820155610878565b015160001960f88460031b161c19169055848080610ce7565b9091602060018192858a015181550193019101610cca565b600483016000526020600020601f830160051c810160208410610d68575b601f830160051c82018110610d5c575050610846565b60008155600101610d46565b5080610d46565b015190508480610802565b6003840160005260206000209060005b601f1984168110610dd05750600193949583601f19811610610db7575b505050811b01600383015561081a565b015160001960f88460031b161c19169055848080610da7565b9091602060018192858a015181550193019101610d8a565b600384016000526020600020601f830160051c810160208410610e28575b601f830160051c82018110610e1c5750506107e8565b60008155600101610e06565b5080610e06565b0151905084806107a4565b6002830160005260206000209060005b601f1984168110610e905750600193949583601f19811610610e77575b505050811b0160028201556107bc565b015160001960f88460031b161c19169055848080610e67565b9091602060018192858a015181550193019101610e4a565b600283016000526020600020601f830160051c810160208410610ee8575b601f830160051c82018110610edc57505061078a565b60008155600101610ec6565b5080610ec6565b60405162461bcd60e51b815260206004820152601060248201526f496e73756666696369656e742046656560801b6044820152606490fd5b60405162461bcd60e51b815260206004820152602160248201527f4d757374206c696e6b204964656e746974792f416164686161722066697273746044820152602160f81b6064820152608490fd5b3461058957602036600319011261058957600435610f9381613736565b506000526006602052610fcf610fac60406000206130e9565b6000604051610fba81612fb3565b52604051918291602083526020830190612f2b565b0390f35b346105895760003660031901126105895760206040517f2876b6444ca73956040d49b0d48b2a7c03b6b34daa638a812177f0309da79c7e8152f35b34610589576060366003190112610589576004357f3cf0e429eb8478e2532bd6678f8f3cb5c7156d3cc200512c051c25844747fa13608060243561106461105485613736565b6001600160a01b0316331461390e565b83600052600e60205260406000206008810161020061ff001982541617905581600a820155600b60443591015560405190604082526009604083015268466f72204c6561736560b81b60608301526020820152a2005b34610589576080366003190112610589576110d3612f6b565b6110db612f81565b90604435606435926001600160401b03841161058957366023850112156105895761111361064c943690602481600401359101613025565b9261111f8383836134ea565b33613771565b34610589576020366003190112610589576004356000526009602052602060018060a01b0360406000205416604051908152f35b3461058957611167366131a9565b93909333600052600b60205260ff6003604060002001541661181857602081519101209384600052600960205260018060a01b03604060002054166117c0578460005260096020526040600020336001600160601b0360a01b82541617905533600052600a6020528460406000205582517faade7c69e1b3a8eb9c89d8463ab8bd8cb23c5a70b6e0a328bfd03ea8c3457369602085019182206b23a7ab2a2fa7a32324a1a2a960a11b602060405161121e81612fce565b600c815201520361165b57507eb2cfcd144c027b3b7855b62fe9ca45dcb97d1d83f783689912be0366805e2181602061127a935191012066474f565431323360c81b602060405161126e81612fce565b600781520152146138a1565b61128333613380565b505b604051916001600160401b03916080840183811185821017610b195760405283526020830193845260408301526001606083015233600052600b6020526040600020928251805190838211610b195781906112e087546130af565b601f8111611608575b50602090601f83116001146115a257600092611597575b50508160011b916000199060031b1c19161784555b51805190828211610b1957819061132f60018701546130af565b601f8111611541575b50602090601f83116001146114d4576000926114c9575b50508160011b916000199060031b1c19161760018401555b600283019060408301518051918211610b195761138483546130af565b601f8111611481575b50602090601f83116001146114105792826060936113dd979693600396600092611405575b50508160011b9160001990871b1c19161790555b0151151591019060ff801983541691151516179055565b337f7e09b322e495f61d9c3482c62f4d74a8f4cd603c94be8a8acffb3842a7a05e3b600080a3005b0151905089806113b2565b90601f198316918460005260206000209260005b8181106114695750936113dd979693600396936001938360609810611451575b505050811b0190556113c6565b015160001983891b60f8161c19169055898080611444565b92936020600181928786015181550195019301611424565b836000526020600020601f840160051c810191602085106114bf575b601f0160051c01905b8181106114b3575061138d565b600081556001016114a6565b909150819061149d565b01519050868061134f565b600187016000908152602081209350601f198516905b8181106115295750908460019594939210611510575b505050811b016001840155611367565b015160001960f88460031b161c19169055868080611500565b929360206001819287860151815501950193016114ea565b909150600186016000526020600020601f840160051c8101916020851061158d575b90601f859493920160051c01905b81811061157e5750611338565b60008155849350600101611571565b9091508190611563565b015190508780611300565b6000888152602081209350601f198516905b8181106115f057509084600195949392106115d7575b505050811b018455611315565b015160001960f88460031b161c191690558780806115ca565b929360206001819287860151815501950193016115b4565b909150866000526020600020601f840160051c81019160208510611651575b90601f859493920160051c01905b81811061164257506112e9565b60008155849350600101611635565b9091508190611627565b7fa78e49ef41478ad2ab23f4faa913f2dca7351bc697dcd6bb0cd3fd6ea3c8db8a845182206729aaa92b22aca7a960c11b602060405161169a81612fce565b6008815201520361170857507f2aee43caeceba709dea2937ae43e888d333dde67ea763228a69d7c9e25ac60778160206116f993519101206853555256455931323360b81b60206040516116ed81612fce565b600981520152146138a1565b611702336132e4565b50611285565b7fd6b769dbdbf190871759edfb79bd17eda0005e1b8c3b6b3f5b480b5604ad50149084519020682922a3a4a9aa2920a960b91b602060405161174981612fce565b6009815201521461175a5750611285565b7feeec48380e9542e5defda8821480f34e4a6e8ea26cddf01dd26478e676cc3a388160206117b093519101206b52454749535452415231323360a01b60206040516117a481612fce565b600c81520152146138a1565b6117b933613255565b5084611702565b60405162461bcd60e51b815260206004820152602a60248201527f4964656e7469747920616c7265616479206c696e6b656420746f20616e6f746860448201526965722077616c6c65742160b01b6064820152608490fd5b60405162461bcd60e51b815260206004820152601660248201527557616c6c657420616c7265616479206c696e6b65642160501b6044820152606490fd5b34610589576020366003190112610589576001600160a01b03611877612f6b565b16600052600b6020526118ce6040600020611891816130e9565b906118ea6118a1600183016130e9565b916118dc60ff60036118b5600285016130e9565b9301541693604051968796608088526080880190612f2b565b908682036020880152612f2b565b908482036040860152612f2b565b90151560608301520390f35b346105895760208060031936011261058957600435906000805160206139a88339815191528060005260078252604060002033600052825260ff60406000205416156119d7575081600052600e815260ff6008604060002001541660058110156104d4576119a5577f2da7b23ca63c1eb969eee5fae4acb98186abecf5358b0354a82a5183ebca6b2a9082600052600e81526008604060002001600160ff1982541617905560405160018152a2005b6064906040519062461bcd60e51b82526004820152600b60248201526a29ba30b3b29022b93937b960a91b6044820152fd5b6044906040519063e2517d3f60e01b82523360048301526024820152fd5b3461058957604036600319011261058957611a0e612f6b565b6024359081151590818303610589576001600160a01b0316918215611a8a57611a5c9033600052600560205260406000208460005260205260406000209060ff801983541691151516179055565b6040519081527f17307eab39ab6107e8899845ad3d59bd9653f200f220920489ca2b5937696c3160203392a3005b604051630b61174360e31b815260048101849052602490fd5b3461058957600036600319011261058957602060405160008152f35b6020806003193601126105895760043590611ad86138eb565b81600052600e8152604060002033600052600b825260ff6003604060002001541615611c4157600881019160ff835460081c1660048110156104d457600203611c0d57600a8201543410611bde5760008080806001600160a01b03611b3c89613736565b1681903415611bd4575b3491f115611bc857600d8201336001600160601b0360a01b825416179055600b820154804201938442116104ea577fe6aef257b8c2e2f01587b7dbe07bc085f3ee5a15cea0fa649e83e987e3404e6c94600c608095015561030061ff001982541617905560405191338352820152346040820152426060820152a26001600855005b6040513d6000823e3d90fd5b6108fc9150611b46565b6064906040519062461bcd60e51b825260048201526008602482015267131bddc814995b9d60c21b6044820152fd5b6064906040519062461bcd60e51b82526004820152600d60248201526c4e6f7420666f72206c6561736560981b6044820152fd5b60405162461bcd60e51b815260048101839052601960248201527f54656e616e74206d757374206c696e6b204161646861617221000000000000006044820152606490fd5b346105895760003660031901126105895760405160006001805490611caa826130af565b80855291818116908115611d3e5750600114611ce5575b610fcf84611cd181860382612fe9565b604051918291602083526020830190612f2b565b600081815292507fb10e2d527612073b26eecdfd717e6a320cf44b4afac2b0732d9fcbe2b7fa0cf65b828410611d26575050508101602001611cd182611cc1565b80546020858701810191909152909301928101611d0e565b60ff191660208087019190915292151560051b85019092019250611cd19150839050611cc1565b3461058957604036600319011261058957611d7e612f81565b600435600052600760205260406000209060018060a01b0316600052602052602060ff604060002054166040519015158152f35b3461058957602080600319360112610589576000805160206139c88339815191528060005260078252604060002033600052825260ff60406000205416156119d75750600435600052600e8152604060002060088101805460ff811660058110156104d4576002036121655760039060ff19161790556001918282019160018060a01b0391828454168254604051611e4981612fb3565b60008152821561214c5785611e5e838561367a565b1661213357823b61200b575b5050508154611e7b600384016130e9565b9581600052600683526040600020908751976001600160401b038911610b1957611ea583546130af565b601f8111611fc2575b508490601f8a11600114611f3e5798809281927ff8e1a15aba9398e019f0b49df1a4fde98ee17ae345cb5f6b5e2c27f5033e8ce798999a9b600094611f33575b50501b916000199060031b1c19161790555b604051908152a154915416907fbb34aa4710e9aece41642e442b49b5b8aff84ba0def93849797c2f15398aab23600080a3005b015192508b80611eee565b9890601f1982169084600052866000209160005b818110611fad57509a837ff8e1a15aba9398e019f0b49df1a4fde98ee17ae345cb5f6b5e2c27f5033e8ce7999a9b9c10611f94575b505050811b019055611f00565b015160001960f88460031b161c19169055898080611f87565b8c830151845592850192918801918801611f52565b8360005285600020601f8b0160051c810191878c10612001575b601f0160051c019083905b828110611ff5575050611eae565b60008155018390611fe7565b9091508190611fdc565b8361204e91604099979599989694985180938192630a85bd0160e11b96878452336004850152600060248501526044840152608060648401526084830190612f2b565b038160008b5af1600091816120f3575b506120bc5787873d156120b4573d916120768361300a565b926120846040519485612fe9565b83523d60008285013e5b825192836120af57604051633250574960e11b815260048101849052602490fd5b019050fd5b60609161208e565b63ffffffff60e098949698979395971b16036120db5750858080611e6a565b60249060405190633250574960e11b82526004820152fd5b9091508881813d831161212c575b61210b8183612fe9565b8101031261058957516001600160e01b03198116810361058957908961205e565b503d612101565b6040516339e3563760e11b815260006004820152602490fd5b604051633250574960e11b815260006004820152602490fd5b60405162461bcd60e51b8152600481018590526016602482015275135d5cdd081899481cdd5c9d995e595908199a5c9cdd60521b6044820152606490fd5b34610589576020366003190112610589576004356121c361105482613736565b80600052600e602052600860406000200161ff001981541690557f3cf0e429eb8478e2532bd6678f8f3cb5c7156d3cc200512c051c25844747fa1360806040516040815260076040820152665072697661746560c81b606082015260006020820152a2005b34610589576020366003190112610589576004356000908152600e60205260409020805460018201546001600160a01b0390811692612269600282016130e9565b90612276600382016130e9565b92612283600483016130e9565b93612290600584016130e9565b9461229d600685016130e9565b956122aa600786016130e9565b600886015497600987015492600a88015494600b89015496600c8a015498600d8b01541699600e01549a6040519e8f9e8f908152602001528d61020090816040820152016122f791612f2b565b8d810360608f015261230891612f2b565b8c810360808e015261231991612f2b565b8b810360a08d015261232a91612f2b565b8a810360c08c015261233b91612f2b565b89810360e08b015261234c91612f2b565b9661235e6101008a0160ff831661318f565b61012089019060081c60ff16906123749161319c565b6101408801526101608701526101808601526101a08501526101c08401526101e08301520390f35b34610589576020366003190112610589576001600160a01b036123bd612f6b565b1680156123dc5760005260036020526020604060002054604051908152f35b6040516322718ad960e21b815260006004820152602490fd5b34610589576020366003190112610589576020612413600435613736565b6040516001600160a01b039091168152f35b346105895761064c6124363661307a565b906040519261244484612fb3565b6000845261111f8383836134ea565b346105895760403660031901126105895761246c612f81565b336001600160a01b038216036124885761064c90600435613473565b60405163334bd91960e11b8152600490fd5b346105895760403660031901126105895761064c6004356124b9612f81565b908060005260076020526124d460016040600020015461322f565b61340a565b346105895760208060031936011261058957600435906000805160206139a883398151915260005260078152604060002033600052815260ff6040600020541680156125a1575b1561256c577f2da7b23ca63c1eb969eee5fae4acb98186abecf5358b0354a82a5183ebca6b2a9082600052600e81526008604060002001600460ff1982541617905560405160048152a2005b6064906040519062461bcd60e51b82526004820152600e60248201526d139bdd08185d5d1a1bdc9a5e995960921b6044820152fd5b506000805160206139c883398151915260005260078152604060002033600052815260ff60406000205416612520565b346105895760203660031901126105895760043560005260076020526020600160406000200154604051908152f35b34610589576000366003190112610589573360009081527f6d5257204ebe7d88fd91ae87941cb2dd9d8062b64ae5a2bd2d28ec40b9fbf6df602052604090205460ff161561266957600080808047818115612660575b3390f115611bc857005b506108fc612656565b60405163e2517d3f60e01b815233600482015260006024820152604490fd5b346105895761064c6126993661307a565b916134ea565b34610589576020366003190112610589576001600160a01b036126c0612f6b565b16600052600a6020526020604060002054604051908152f35b60403660031901126105895760246004356001600160401b0382358181116105895761270990369060040161305c565b906127126138eb565b826000526020600e815260406000209161272b85613736565b9233600052600b835260ff6003604060002001541615612a4557600881019160ff835460081c16956004871015612a305760018097036129fd57600983015434106129cd576001600160a01b038681169690600034156129c4575b6000808080938c3491f115611bc85733156129ac576127a58a3361367a565b908116806127c557604051637e27328960e01b8152600481018c90528c90fd5b9780999b959697980361297c5750506002840192815192831161296857509082916127f28a9594546130af565b601f811161291f575b508690601f83116001146128905791806060989694927fddd64180d9701c7ede08673ac8106484ff983a472929330d4fbde4e35d65cb069a989694600092612885575b5050600019600383901b1c191690841b1790555b01336001600160601b0360a01b82541617905561ff001981541690556040519182523390820152346040820152a2600855005b015190508c8061283e565b90601f1983169184600052886000209260005b8181106129085750928795939285927fddd64180d9701c7ede08673ac8106484ff983a472929330d4fbde4e35d65cb069c9a989660609c9a95106128ef575b505050811b019055612852565b015160001960f88460031b161c191690558c80806128e2565b8284015185558d9890940193928a01928a016128a3565b8360005287600020601f840160051c81019189851061295e575b601f0160051c019086905b8281106129525750506127fb565b60008155018690612944565b9091508190612939565b634e487b7160e01b60009081526041600452fd5b6040516364283d7b60e01b81526001600160a01b039283166004820152602481018b905291166044820152606490fd5b604051633250574960e11b8152600060048201528b90fd5b506108fc612786565b60405162461bcd60e51b8152600481018690526009818b0152684c6f772066756e647360b81b6044820152606490fd5b60405162461bcd60e51b815260048101869052600c818b01526b4e6f7420666f722073616c6560a01b6044820152606490fd5b88634e487b7160e01b60005260216004526000fd5b60405162461bcd60e51b8152600481018490526018818901527f4275796572206d757374206c696e6b20416164686161722100000000000000006044820152606490fd5b34610589576000366003190112610589576020600c54604051908152f35b346105895760003660031901126105895760206040516000805160206139a88339815191528152f35b3461058957604036600319011261058957600435602435612af361105483613736565b81600052600e60205260ff6008604060002001541660058110156104d457600303612b885760807f3cf0e429eb8478e2532bd6678f8f3cb5c7156d3cc200512c051c25844747fa139183600052600e60205280600960406000206008810161010061ff0019825416179055015560405190604082526008604083015267466f722053616c6560c01b60608301526020820152a2005b60405162461bcd60e51b815260206004820152600c60248201526b139bdd08105c1c1c9bdd995960a21b6044820152606490fd5b346105895760208060031936011261058957600435907f2876b6444ca73956040d49b0d48b2a7c03b6b34daa638a812177f0309da79c7e8060005260078252604060002033600052825260ff60406000205416156119d7575081600052600e815260ff6008604060002001541660058110156104d457600103612c80577f2da7b23ca63c1eb969eee5fae4acb98186abecf5358b0354a82a5183ebca6b2a9082600052600e81526008604060002001600260ff1982541617905560405160028152a2005b6064906040519062461bcd60e51b82526004820152601860248201527f4e6f7420766572696669656420627920476f76742079657400000000000000006044820152fd5b3461058957604036600319011261058957612cdd612f6b565b602435612ce981613736565b33151580612d98575b80612d6b575b612d53576001600160a01b039283169282918491167f8c5be1e5ebec7d5bd14f71427d1e84f3dd0314c0f7b2291e5b200ac8c7c3b925600080a4600090815260046020526040902080546001600160a01b0319169091179055005b60405163a9fbf51f60e01b8152336004820152602490fd5b5060018060a01b038116600052600560205260406000203360005260205260ff6040600020541615612cf8565b506001600160a01b038116331415612cf2565b3461058957602036600319011261058957600435612dc881613736565b506000526004602052602060018060a01b0360406000205416604051908152f35b346105895760003660031901126105895760405160008054612e0a816130af565b80845290600190818116908115611d3e5750600114612e3357610fcf84611cd181860382612fe9565b600080805292507f290decd9548b62a8d60345a988386fc84ba6bc95484008f6362f93160ef3e5635b828410612e74575050508101602001611cd182611cc1565b80546020858701810191909152909301928101612e5c565b34610589576020366003190112610589576004359063ffffffff60e01b821680920361058957602091637965db0b60e01b8114908115612ece575b5015158152f35b632483248360e11b811491508115612ee8575b5083612ec7565b6380ac58cd60e01b811491508115612f1a575b8115612f09575b5083612ee1565b6301ffc9a760e01b14905083612f02565b635b5e139f60e01b81149150612efb565b919082519283825260005b848110612f57575050826000602080949584010152601f8019910116010190565b602081830181015184830182015201612f36565b600435906001600160a01b038216820361058957565b602435906001600160a01b038216820361058957565b61020081019081106001600160401b03821117610b1957604052565b602081019081106001600160401b03821117610b1957604052565b604081019081106001600160401b03821117610b1957604052565b90601f801991011681019081106001600160401b03821117610b1957604052565b6001600160401b038111610b1957601f01601f191660200190565b9291926130318261300a565b9161303f6040519384612fe9565b829481845281830111610589578281602093846000960137010152565b9080601f830112156105895781602061307793359101613025565b90565b6060906003190112610589576001600160a01b0390600435828116810361058957916024359081168103610589579060443590565b90600182811c921680156130df575b60208310146130c957565b634e487b7160e01b600052602260045260246000fd5b91607f16916130be565b90604051918260008254926130fd846130af565b90818452600194858116908160001461316c5750600114613129575b505061312792500383612fe9565b565b9093915060005260209081600020936000915b81831061315457505061312793508201013880613119565b8554888401850152948501948794509183019161313c565b91505061312794506020925060ff191682840152151560051b8201013880613119565b9060058210156104d45752565b9060048210156104d45752565b60a0600319820112610589576004906001600160401b03823581811161058957826131d591850161305c565b9360243582811161058957836131ec91860161305c565b93604435838111610589578461320391830161305c565b93606435848111610589578161321a91840161305c565b9360843590811161058957613077920161305c565b80600052600760205260406000203360005260205260ff60406000205416156119d75750565b6001600160a01b031660008181527fff6db987cc3eb6bb5dcc88dfdb614854cfd71c221fb0d830bd28f7ba6e802ead60205260408120549091906000805160206139c88339815191529060ff166132df5780835260076020526040832082845260205260408320600160ff19825416179055600080516020613988833981519152339380a4600190565b505090565b6001600160a01b031660008181527f88dc988953ac3783e42f15664720d42b06bb81b884417b7c7bc8e77b0a720db660205260408120549091907f2876b6444ca73956040d49b0d48b2a7c03b6b34daa638a812177f0309da79c7e9060ff166132df5780835260076020526040832082845260205260408320600160ff19825416179055600080516020613988833981519152339380a4600190565b6001600160a01b031660008181527f0d2ca987390669ebc5f233dfd59f08e79cce116aaf03d896b922b0a1fd7a9d6960205260408120549091906000805160206139a88339815191529060ff166132df5780835260076020526040832082845260205260408320600160ff19825416179055600080516020613988833981519152339380a4600190565b906000918083526007602052604083209160018060a01b03169182845260205260ff604084205416156000146132df5780835260076020526040832082845260205260408320600160ff19825416179055600080516020613988833981519152339380a4600190565b906000918083526007602052604083209160018060a01b03169182845260205260ff6040842054166000146132df578083526007602052604083208284526020526040832060ff1981541690557ff6391f5c32d9c69d2a47ea670b442974b53935d1edc7fd64eb21e047a839171b339380a4600190565b906001600160a01b03908116801561214c576000918483528460209260028452604093838587205416958691331515806135e4575b509060027fddf252ad1be2c89b69c2b068fc378daa952ba7f163c4a11628f55a4df523b3ef92846135b1575b85835260038152888320805460010190558683525286812080546001600160a01b0319168517905580a4831682036135835750505050565b516364283d7b60e01b81526001600160a01b0392831660048201526024810193909352166044820152606490fd5b600087815260046020526040902080546001600160a01b031916905584835260038152888320805460001901905561354b565b91939450915080613639575b156136005787929186913861351f565b84888761361d576024915190637e27328960e01b82526004820152fd5b604491519063177e802f60e01b82523360048301526024820152fd5b50338614801561365e575b806135f057508782526004815233848684205416146135f0565b5085825260058152848220338352815260ff8583205416613644565b6000828152600260205260408120546001600160a01b03908116939284917fddf252ad1be2c89b69c2b068fc378daa952ba7f163c4a11628f55a4df523b3ef9183613701575b1692836136e9575b84815260026020526040812080546001600160a01b0319168517905580a490565b838152600360205260408120600181540190556136c8565b600086815260046020526040902080546001600160a01b031916905583855260036020526040852080546000190190556136c0565b6000818152600260205260409020546001600160a01b0316908115613759575090565b60249060405190637e27328960e01b82526004820152fd5b90939192833b613783575b5050505050565b604051630a85bd0160e11b8082526001600160a01b0393841660048301529583166024820152604481019190915260806064820152949216926020929185906137d0906084830190612f2b565b039483816000978189895af186918161385d575b5061383f575050503d600014613836573d6137fe8161300a565b9061380c6040519283612fe9565b81528093823d92013e825192836120af57604051633250574960e11b815260048101849052602490fd5b6060925061208e565b919450915063ffffffff60e01b16036120db5750388080808061377c565b9091508481813d831161389a575b6138758183612fe9565b8101031261389657516001600160e01b0319811681036138965790386137e4565b8680fd5b503d61386b565b156138a857565b60405162461bcd60e51b815260206004820152600c60248201526b496e76616c696420436f646560a01b6044820152606490fd5b60001981146104ea5760010190565b6002600854146138fc576002600855565b604051633ee5aeb560e01b8152600490fd5b1561391557565b60405162461bcd60e51b81526020600482015260096024820152682737ba1027bbb732b960b91b6044820152606490fd5b6001600160401b038111610b195760051b60200190565b80518210156139715760209160051b010190565b634e487b7160e01b600052603260045260246000fdfe2f8788117e7eff1d82e926ec794901d17c78024a50270940304540a733656f0d710860e085084403cfe5e59ea7faf8026d1db65d8b1086e3e1879ff3fd1b2a53edcc084d3dcd65a1f7f23c65c46722faca6953d28e43150a467cf43e5c309238a2646970667358221220df7099136597decfa683d35dcf88dbfb7132e0b20798ca34de8e01aec430280464736f6c63430008140033",
  "linkReferences": {},
  "deployedLinkReferences": {}
}