{
  "_format": "hh-sol-artifact-1",
  "contractName": "PropertyRegistry",
  "sourceName": "contracts/PropertyRegistry.sol",
  "abi": [
    {
      "inputs": [],
      "stateMutability": "nonpayable",
      "type": "constructor"
    },
    {
      "inputs": [],
      "name": "AccessControlBadConfirmation",
      "type": "error"
    },
    {
      "inputs": [
        {
          "internalType": "address",
          "name": "account",
          "type": "address"
        },
        {
          "internalType": "bytes32",
          "name": "neededRole",
          "type": "bytes32"
        }
      ],
      "name": "AccessControlUnauthorizedAccount",
      "type": "error"
    },
    {
      "inputs": [
        {
          "internalType": "address",
          "name": "sender",
          "type": "address"
        },
        {
          "internalType": "uint256",
          "name": "tokenId",
          "type": "uint256"
        },
        {
          "internalType": "address",
          "name": "owner",
          "type": "address"
        }
      ],
      "name": "ERC721IncorrectOwner",
      "type": "error"
    },
    {
      "inputs": [
        {
          "internalType": "address",
          "name": "operator",
          "type": "address"
        },
        {
          "internalType": "uint256",
          "name": "tokenId",
          "type": "uint256"
        }
      ],
      "name": "ERC721InsufficientApproval",
      "type": "error"
    },
    {
      "inputs": [
        {
          "internalType": "address",
          "name": "approver",
          "type": "address"
        }
      ],
      "name": "ERC721InvalidApprover",
      "type": "error"
    },
    {
      "inputs": [
        {
          "internalType": "address",
          "name": "operator",
          "type": "address"
        }
      ],
      "name": "ERC721InvalidOperator",
      "type": "error"
    },
    {
      "inputs": [
        {
          "internalType": "address",
          "name": "owner",
          "type": "address"
        }
      ],
      "name": "ERC721InvalidOwner",
      "type": "error"
    },
    {
      "inputs": [
        {
          "internalType": "address",
          "name": "receiver",
          "type": "address"
        }
      ],
      "name": "ERC721InvalidReceiver",
      "type": "error"
    },
    {
      "inputs": [
        {
          "internalType": "address",
          "name": "sender",
          "type": "address"
        }
      ],
      "name": "ERC721InvalidSender",
      "type": "error"
    },
    {
      "inputs": [
        {
          "internalType": "uint256",
          "name": "tokenId",
          "type": "uint256"
        }
      ],
      "name": "ERC721NonexistentToken",
      "type": "error"
    },
    {
      "inputs": [],
      "name": "ReentrancyGuardReentrantCall",
      "type": "error"
    },
    {
      "anonymous": false,
      "inputs": [
        {
          "indexed": true,
          "internalType": "address",
          "name": "owner",
          "type": "address"
        },
        {
          "indexed": true,
          "internalType": "address",
          "name": "approved",
          "type": "address"
        },
        {
          "indexed": true,
          "internalType": "uint256",
          "name": "tokenId",
          "type": "uint256"
        }
      ],
      "name": "Approval",
      "type": "event"
    },
    {
      "anonymous": false,
      "inputs": [
        {
          "indexed": true,
          "internalType": "address",
          "name": "owner",
          "type": "address"
        },
        {
          "indexed": true,
          "internalType": "address",
          "name": "operator",
          "type": "address"
        },
        {
          "indexed": false,
          "internalType": "bool",
          "name": "approved",
          "type": "bool"
        }
      ],
      "name": "ApprovalForAll",
      "type": "event"
    },
    {
      "anonymous": false,
      "inputs": [
        {
          "indexed": false,
          "internalType": "uint256",
          "name": "_fromTokenId",
          "type": "uint256"
        },
        {
          "indexed": false,
          "internalType": "uint256",
          "name": "_toTokenId",
          "type": "uint256"
        }
      ],
      "name": "BatchMetadataUpdate",
      "type": "event"
    },
    {
      "anonymous": false,
      "inputs": [
        {
          "indexed": true,
          "internalType": "uint256",
          "name": "tokenId",
          "type": "uint256"
        },
        {
          "indexed": false,
          "internalType": "address",
          "name": "tenant",
          "type": "address"
        },
        {
          "indexed": false,
          "internalType": "uint256",
          "name": "timestamp",
          "type": "uint256"
        }
      ],
      "name": "LeaseEnded",
      "type": "event"
    },
    {
      "anonymous": false,
      "inputs": [
        {
          "indexed": false,
          "internalType": "uint256",
          "name": "_tokenId",
          "type": "uint256"
        }
      ],
      "name": "MetadataUpdate",
      "type": "event"
    },
    {
      "anonymous": false,
      "inputs": [
        {
          "indexed": true,
          "internalType": "uint256",
          "name": "tokenId",
          "type": "uint256"
        },
        {
          "indexed": true,
          "internalType": "address",
          "name": "owner",
          "type": "address"
        }
      ],
      "name": "PropertyMinted",
      "type": "event"
    },
    {
      "anonymous": false,
      "inputs": [
        {
          "indexed": true,
          "internalType": "uint256",
          "name": "tokenId",
          "type": "uint256"
        },
        {
          "indexed": false,
          "internalType": "address",
          "name": "tenant",
          "type": "address"
        },
        {
          "indexed": false,
          "internalType": "uint256",
          "name": "duration",
          "type": "uint256"
        },
        {
          "indexed": false,
          "internalType": "uint256",
          "name": "price",
          "type": "uint256"
        },
        {
          "indexed": false,
          "internalType": "uint256",
          "name": "timestamp",
          "type": "uint256"
        }
      ],
      "name": "PropertyRented",
      "type": "event"
    },
    {
      "anonymous": false,
      "inputs": [
        {
          "indexed": true,
          "internalType": "uint256",
          "name": "tokenId",
          "type": "uint256"
        },
        {
          "indexed": false,
          "internalType": "address",
          "name": "from",
          "type": "address"
        },
        {
          "indexed": false,
          "internalType": "address",
          "name": "to",
          "type": "address"
        },
        {
          "indexed": false,
          "internalType": "uint256",
          "name": "price",
          "type": "uint256"
        },
        {
          "indexed": false,
          "internalType": "uint256",
          "name": "timestamp",
          "type": "uint256"
        }
      ],
      "name": "PropertySold",
      "type": "event"
    },
    {
      "anonymous": false,
      "inputs": [
        {
          "indexed": true,
          "internalType": "uint256",
          "name": "tokenId",
          "type": "uint256"
        },
        {
          "indexed": false,
          "internalType": "string",
          "name": "newStatus",
          "type": "string"
        },
        {
          "indexed": false,
          "internalType": "uint256",
          "name": "price",
          "type": "uint256"
        }
      ],
      "name": "PropertyStatusChanged",
      "type": "event"
    },
    {
      "anonymous": false,
      "inputs": [
        {
          "indexed": true,
          "internalType": "uint256",
          "name": "requestId",
          "type": "uint256"
        },
        {
          "indexed": true,
          "internalType": "address",
          "name": "user",
          "type": "address"
        }
      ],
      "name": "RequestSubmitted",
      "type": "event"
    },
    {
      "anonymous": false,
      "inputs": [
        {
          "indexed": true,
          "internalType": "bytes32",
          "name": "role",
          "type": "bytes32"
        },
        {
          "indexed": true,
          "internalType": "bytes32",
          "name": "previousAdminRole",
          "type": "bytes32"
        },
        {
          "indexed": true,
          "internalType": "bytes32",
          "name": "newAdminRole",
          "type": "bytes32"
        }
      ],
      "name": "RoleAdminChanged",
      "type": "event"
    },
    {
      "anonymous": false,
      "inputs": [
        {
          "indexed": true,
          "internalType": "bytes32",
          "name": "role",
          "type": "bytes32"
        },
        {
          "indexed": true,
          "internalType": "address",
          "name": "account",
          "type": "address"
        },
        {
          "indexed": true,
          "internalType": "address",
          "name": "sender",
          "type": "address"
        }
      ],
      "name": "RoleGranted",
      "type": "event"
    },
    {
      "anonymous": false,
      "inputs": [
        {
          "indexed": true,
          "internalType": "bytes32",
          "name": "role",
          "type": "bytes32"
        },
        {
          "indexed": true,
          "internalType": "address",
          "name": "account",
          "type": "address"
        },
        {
          "indexed": true,
          "internalType": "address",
          "name": "sender",
          "type": "address"
        }
      ],
      "name": "RoleRevoked",
      "type": "event"
    },
    {
      "anonymous": false,
      "inputs": [
        {
          "indexed": true,
          "internalType": "address",
          "name": "from",
          "type": "address"
        },
        {
          "indexed": true,
          "internalType": "address",
          "name": "to",
          "type": "address"
        },
        {
          "indexed": true,
          "internalType": "uint256",
          "name": "tokenId",
          "type": "uint256"
        }
      ],
      "name": "Transfer",
      "type": "event"
    },
    {
      "inputs": [],
      "name": "DEFAULT_ADMIN_ROLE",
      "outputs": [
        {
          "internalType": "bytes32",
          "name": "",
          "type": "bytes32"
        }
      ],
      "stateMutability": "view",
      "type": "function"
    },
    {
      "inputs": [],
      "name": "REGISTRAR_ROLE",
      "outputs": [
        {
          "internalType": "bytes32",
          "name": "",
          "type": "bytes32"
        }
      ],
      "stateMutability": "view",
      "type": "function"
    },
    {
      "inputs": [],
      "name": "SURVEYOR_ROLE",
      "outputs": [
        {
          "internalType": "bytes32",
          "name": "",
          "type": "bytes32"
        }
      ],
      "stateMutability": "view",
      "type": "function"
    },
    {
      "inputs": [
        {
          "internalType": "address",
          "name": "to",
          "type": "address"
        },
        {
          "internalType": "uint256",
          "name": "tokenId",
          "type": "uint256"
        }
      ],
      "name": "approve",
      "outputs": [],
      "stateMutability": "nonpayable",
      "type": "function"
    },
    {
      "inputs": [
        {
          "internalType": "uint256",
          "name": "_requestId",
          "type": "uint256"
        }
      ],
      "name": "approveAndMint",
      "outputs": [],
      "stateMutability": "nonpayable",
      "type": "function"
    },
    {
      "inputs": [
        {
          "internalType": "address",
          "name": "owner",
          "type": "address"
        }
      ],
      "name": "balanceOf",
      "outputs": [
        {
          "internalType": "uint256",
          "name": "",
          "type": "uint256"
        }
      ],
      "stateMutability": "view",
      "type": "function"
    },
    {
      "inputs": [
        {
          "internalType": "uint256",
          "name": "_tokenId",
          "type": "uint256"
        },
        {
          "internalType": "string",
          "name": "_newOwnerName",
          "type": "string"
        }
      ],
      "name": "buyProperty",
      "outputs": [],
      "stateMutability": "payable",
      "type": "function"
    },
    {
      "inputs": [
        {
          "internalType": "uint256",
          "name": "_requestId",
          "type": "uint256"
        }
      ],
      "name": "completeSurvey",
      "outputs": [],
      "stateMutability": "nonpayable",
      "type": "function"
    },
    {
      "inputs": [],
      "name": "getAllRequests",
      "outputs": [
        {
          "components": [
            {
              "internalType": "uint256",
              "name": "id",
              "type": "uint256"
            },
            {
              "internalType": "address",
              "name": "requester",
              "type": "address"
            },
            {
              "internalType": "string",
              "name": "ownerName",
              "type": "string"
            },
            {
              "internalType": "string",
              "name": "ipfsMetadata",
              "type": "string"
            },
            {
              "internalType": "string",
              "name": "identityRefId",
              "type": "string"
            },
            {
              "internalType": "string",
              "name": "landArea",
              "type": "string"
            },
            {
              "internalType": "string",
              "name": "landLocation",
              "type": "string"
            },
            {
              "internalType": "enum PropertyRegistry.Status",
              "name": "status",
              "type": "uint8"
            },
            {
              "internalType": "enum PropertyRegistry.SaleStatus",
              "name": "saleStatus",
              "type": "uint8"
            },
            {
              "internalType": "uint256",
              "name": "price",
              "type": "uint256"
            },
            {
              "internalType": "uint256",
              "name": "leasePrice",
              "type": "uint256"
            },
            {
              "internalType": "uint256",
              "name": "leaseDuration",
              "type": "uint256"
            },
            {
              "internalType": "uint256",
              "name": "leaseEndTime",
              "type": "uint256"
            },
            {
              "internalType": "address",
              "name": "tenant",
              "type": "address"
            },
            {
              "internalType": "uint256",
              "name": "requestTime",
              "type": "uint256"
            }
          ],
          "internalType": "struct PropertyRegistry.PropertyRequest[]",
          "name": "",
          "type": "tuple[]"
        }
      ],
      "stateMutability": "view",
      "type": "function"
    },
    {
      "inputs": [
        {
          "internalType": "uint256",
          "name": "tokenId",
          "type": "uint256"
        }
      ],
      "name": "getApproved",
      "outputs": [
        {
          "internalType": "address",
          "name": "",
          "type": "address"
        }
      ],
      "stateMutability": "view",
      "type": "function"
    },
    {
      "inputs": [
        {
          "internalType": "uint256",
          "name": "_tokenId",
          "type": "uint256"
        }
      ],
      "name": "getPropertyDetails",
      "outputs": [
        {
          "internalType": "uint256",
          "name": "id",
          "type": "uint256"
        },
        {
          "internalType": "string",
          "name": "ownerName",
          "type": "string"
        },
        {
          "internalType": "address",
          "name": "ownerWallet",
          "type": "address"
        },
        {
          "internalType": "string",
          "name": "area",
          "type": "string"
        },
        {
          "internalType": "string",
          "name": "location",
          "type": "string"
        },
        {
          "internalType": "bool",
          "name": "isRented",
          "type": "bool"
        }
      ],
      "stateMutability": "view",
      "type": "function"
    },
    {
      "inputs": [
        {
          "internalType": "bytes32",
          "name": "role",
          "type": "bytes32"
        }
      ],
      "name": "getRoleAdmin",
      "outputs": [
        {
          "internalType": "bytes32",
          "name": "",
          "type": "bytes32"
        }
      ],
      "stateMutability": "view",
      "type": "function"
    },
    {
      "inputs": [
        {
          "internalType": "bytes32",
          "name": "role",
          "type": "bytes32"
        },
        {
          "internalType": "address",
          "name": "account",
          "type": "address"
        }
      ],
      "name": "grantRole",
      "outputs": [],
      "stateMutability": "nonpayable",
      "type": "function"
    },
    {
      "inputs": [
        {
          "internalType": "bytes32",
          "name": "role",
          "type": "bytes32"
        },
        {
          "internalType": "address",
          "name": "account",
          "type": "address"
        }
      ],
      "name": "hasRole",
      "outputs": [
        {
          "internalType": "bool",
          "name": "",
          "type": "bool"
        }
      ],
      "stateMutability": "view",
      "type": "function"
    },
    {
      "inputs": [
        {
          "internalType": "address",
          "name": "owner",
          "type": "address"
        },
        {
          "internalType": "address",
          "name": "operator",
          "type": "address"
        }
      ],
      "name": "isApprovedForAll",
      "outputs": [
        {
          "internalType": "bool",
          "name": "",
          "type": "bool"
        }
      ],
      "stateMutability": "view",
      "type": "function"
    },
    {
      "inputs": [
        {
          "internalType": "uint256",
          "name": "_tokenId",
          "type": "uint256"
        },
        {
          "internalType": "uint256",
          "name": "_leasePrice",
          "type": "uint256"
        },
        {
          "internalType": "uint256",
          "name": "_durationSeconds",
          "type": "uint256"
        }
      ],
      "name": "listPropertyForLease",
      "outputs": [],
      "stateMutability": "nonpayable",
      "type": "function"
    },
    {
      "inputs": [
        {
          "internalType": "uint256",
          "name": "_tokenId",
          "type": "uint256"
        },
        {
          "internalType": "uint256",
          "name": "_priceInWei",
          "type": "uint256"
        }
      ],
      "name": "listPropertyForSale",
      "outputs": [],
      "stateMutability": "nonpayable",
      "type": "function"
    },
    {
      "inputs": [
        {
          "internalType": "uint256",
          "name": "_tokenId",
          "type": "uint256"
        }
      ],
      "name": "makePropertyPrivate",
      "outputs": [],
      "stateMutability": "nonpayable",
      "type": "function"
    },
    {
      "inputs": [],
      "name": "name",
      "outputs": [
        {
          "internalType": "string",
          "name": "",
          "type": "string"
        }
      ],
      "stateMutability": "view",
      "type": "function"
    },
    {
      "inputs": [
        {
          "internalType": "uint256",
          "name": "tokenId",
          "type": "uint256"
        }
      ],
      "name": "ownerOf",
      "outputs": [
        {
          "internalType": "address",
          "name": "",
          "type": "address"
        }
      ],
      "stateMutability": "view",
      "type": "function"
    },
    {
      "inputs": [
        {
          "internalType": "string",
          "name": "_name",
          "type": "string"
        },
        {
          "internalType": "string",
          "name": "_email",
          "type": "string"
        },
        {
          "internalType": "string",
          "name": "_role",
          "type": "string"
        },
        {
          "internalType": "string",
          "name": "_secretCode",
          "type": "string"
        }
      ],
      "name": "registerUser",
      "outputs": [],
      "stateMutability": "nonpayable",
      "type": "function"
    },
    {
      "inputs": [],
      "name": "registrationFee",
      "outputs": [
        {
          "internalType": "uint256",
          "name": "",
          "type": "uint256"
        }
      ],
      "stateMutability": "view",
      "type": "function"
    },
    {
      "inputs": [
        {
          "internalType": "uint256",
          "name": "_requestId",
          "type": "uint256"
        }
      ],
      "name": "rejectRequest",
      "outputs": [],
      "stateMutability": "nonpayable",
      "type": "function"
    },
    {
      "inputs": [
        {
          "internalType": "bytes32",
          "name": "role",
          "type": "bytes32"
        },
        {
          "internalType": "address",
          "name": "callerConfirmation",
          "type": "address"
        }
      ],
      "name": "renounceRole",
      "outputs": [],
      "stateMutability": "nonpayable",
      "type": "function"
    },
    {
      "inputs": [
        {
          "internalType": "uint256",
          "name": "_tokenId",
          "type": "uint256"
        }
      ],
      "name": "rentProperty",
      "outputs": [],
      "stateMutability": "payable",
      "type": "function"
    },
    {
      "inputs": [
        {
          "internalType": "string",
          "name": "_ownerName",
          "type": "string"
        },
        {
          "internalType": "string",
          "name": "_ipfsMetadata",
          "type": "string"
        },
        {
          "internalType": "string",
          "name": "_identityRefId",
          "type": "string"
        },
        {
          "internalType": "string",
          "name": "_landArea",
          "type": "string"
        },
        {
          "internalType": "string",
          "name": "_landLocation",
          "type": "string"
        }
      ],
      "name": "requestRegistration",
      "outputs": [],
      "stateMutability": "payable",
      "type": "function"
    },
    {
      "inputs": [
        {
          "internalType": "uint256",
          "name": "",
          "type": "uint256"
        }
      ],
      "name": "requests",
      "outputs": [
        {
          "internalType": "uint256",
          "name": "id",
          "type": "uint256"
        },
        {
          "internalType": "address",
          "name": "requester",
          "type": "address"
        },
        {
          "internalType": "string",
          "name": "ownerName",
          "type": "string"
        },
        {
          "internalType": "string",
          "name": "ipfsMetadata",
          "type": "string"
        },
        {
          "internalType": "string",
          "name": "identityRefId",
          "type": "string"
        },
        {
          "internalType": "string",
          "name": "landArea",
          "type": "string"
        },
        {
          "internalType": "string",
          "name": "landLocation",
          "type": "string"
        },
        {
          "internalType": "enum PropertyRegistry.Status",
          "name": "status",
          "type": "uint8"
        },
        {
          "internalType": "enum PropertyRegistry.SaleStatus",
          "name": "saleStatus",
          "type": "uint8"
        },
        {
          "internalType": "uint256",
          "name": "price",
          "type": "uint256"
        },
        {
          "internalType": "uint256",
          "name": "leasePrice",
          "type": "uint256"
        },
        {
          "internalType": "uint256",
          "name": "leaseDuration",
          "type": "uint256"
        },
        {
          "internalType": "uint256",
          "name": "leaseEndTime",
          "type": "uint256"
        },
        {
          "internalType": "address",
          "name": "tenant",
          "type": "address"
        },
        {
          "internalType": "uint256",
          "name": "requestTime",
          "type": "uint256"
        }
      ],
      "stateMutability": "view",
      "type": "function"
    },
    {
      "inputs": [
        {
          "internalType": "bytes32",
          "name": "role",
          "type": "bytes32"
        },
        {
          "internalType": "address",
          "name": "account",
          "type": "address"
        }
      ],
      "name": "revokeRole",
      "outputs": [],
      "stateMutability": "nonpayable",
      "type": "function"
    },
    {
      "inputs": [
        {
          "internalType": "address",
          "name": "from",
          "type": "address"
        },
        {
          "internalType": "address",
          "name": "to",
          "type": "address"
        },
        {
          "internalType": "uint256",
          "name": "tokenId",
          "type": "uint256"
        }
      ],
      "name": "safeTransferFrom",
      "outputs": [],
      "stateMutability": "nonpayable",
      "type": "function"
    },
    {
      "inputs": [
        {
          "internalType": "address",
          "name": "from",
          "type": "address"
        },
        {
          "internalType": "address",
          "name": "to",
          "type": "address"
        },
        {
          "internalType": "uint256",
          "name": "tokenId",
          "type": "uint256"
        },
        {
          "internalType": "bytes",
          "name": "data",
          "type": "bytes"
        }
      ],
      "name": "safeTransferFrom",
      "outputs": [],
      "stateMutability": "nonpayable",
      "type": "function"
    },
    {
      "inputs": [
        {
          "internalType": "address",
          "name": "operator",
          "type": "address"
        },
        {
          "internalType": "bool",
          "name": "approved",
          "type": "bool"
        }
      ],
      "name": "setApprovalForAll",
      "outputs": [],
      "stateMutability": "nonpayable",
      "type": "function"
    },
    {
      "inputs": [
        {
          "internalType": "bytes4",
          "name": "interfaceId",
          "type": "bytes4"
        }
      ],
      "name": "supportsInterface",
      "outputs": [
        {
          "internalType": "bool",
          "name": "",
          "type": "bool"
        }
      ],
      "stateMutability": "view",
      "type": "function"
    },
    {
      "inputs": [],
      "name": "symbol",
      "outputs": [
        {
          "internalType": "string",
          "name": "",
          "type": "string"
        }
      ],
      "stateMutability": "view",
      "type": "function"
    },
    {
      "inputs": [
        {
          "internalType": "uint256",
          "name": "tokenId",
          "type": "uint256"
        }
      ],
      "name": "tokenURI",
      "outputs": [
        {
          "internalType": "string",
          "name": "",
          "type": "string"
        }
      ],
      "stateMutability": "view",
      "type": "function"
    },
    {
      "inputs": [
        {
          "internalType": "address",
          "name": "from",
          "type": "address"
        },
        {
          "internalType": "address",
          "name": "to",
          "type": "address"
        },
        {
          "internalType": "uint256",
          "name": "tokenId",
          "type": "uint256"
        }
      ],
      "name": "transferFrom",
      "outputs": [],
      "stateMutability": "nonpayable",
      "type": "function"
    },
    {
      "inputs": [
        {
          "internalType": "address",
          "name": "",
          "type": "address"
        }
      ],
      "name": "users",
      "outputs": [
        {
          "internalType": "string",
          "name": "name",
          "type": "string"
        },
        {
          "internalType": "string",
          "name": "email",
          "type": "string"
        },
        {
          "internalType": "string",
          "name": "role",
          "type": "string"
        },
        {
          "internalType": "bool",
          "name": "isRegistered",
          "type": "bool"
        }
      ],
      "stateMutability": "view",
      "type": "function"
    },
    {
      "inputs": [],
      "name": "withdrawFunds",
      "outputs": [],
      "stateMutability": "nonpayable",
      "type": "function"
    }
  ],
  "bytecode": "0x604060808152346200077b576200001562000780565b600f81526020906e125b991a5853185b99149958dbdc99608a1b828201526200003d62000780565b60038082526224a62960e91b84830152825193909291906001600160401b0380861162000765576000928354966001958689811c991680156200075a575b858a101462000679578190601f998a811162000707575b5085908a8311600114620006a457879262000698575b505060001982891b1c191690861b1784555b805190828211620005a35785548681811c911680156200068d575b85821014620006795790818984931162000626575b508490898311600114620005c3578692620005b7575b505060001982881b1c191690851b1784555b8360085566038d7ea4c68000600a556200012c33620007a0565b508651936080850185811083821117620005a35788526200014c62000780565b600b81526a29bab832b91020b236b4b760a91b8482015285526200016f62000780565b96600c88526b30b236b4b72033b7bb1734b760a11b848901528386019788526200019862000780565b946005908187526420a226a4a760d91b868801528a88019687526060880199848b52338252600987528b82209851805190878211620004c4578a548781811c9116801562000598575b8a821014620004a55790818784931162000547575b508990878311600114620004e4578592620004d8575b5050600019828d1b1c191690861b1789555b51805189860191878211620004c45782548781811c91168015620004b9575b8a821014620004a55790818784931162000454575b508990878311600114620003f1578592620003e5575b5050600019828d1b1c191690861b1790555b600288019651918251958611620003d1578754908582811c92168015620003c6575b88831014620003b2578482116200036c575b50508592851160011462000306579394508492919083620002fa575b50501b9160001990861b1c19161790555b019051151560ff80198354169116179055516137e09081620008338239f35b015192503880620002ca565b86815285812093958591601f198316915b8883831062000351575050501062000338575b505050811b019055620002db565b015160001983881b60f8161c191690553880806200032a565b85870151885590960195948501948793509081019062000317565b8883528783209085808901821c8301938a8a10620003a8575b01901c019085905b8281106200039c5750620002ae565b8381550185906200038d565b9350829362000385565b634e487b7160e01b83526022600452602483fd5b91607f16916200029c565b634e487b7160e01b82526041600452602482fd5b01519050388062000268565b8486528a86208994509190601f198416875b8d8282106200043d575050841162000424575b505050811b0190556200027a565b0151600019838f1b60f8161c1916905538808062000416565b8385015186558c9790950194938401930162000403565b90915083855289852087808501881c8201928c86106200049b575b918a918695949301891c01915b8281106200048c57505062000252565b8781558594508a91016200047c565b925081926200046f565b634e487b7160e01b85526022600452602485fd5b90607f16906200023d565b634e487b7160e01b84526041600452602484fd5b0151905038806200020c565b8c86528a86208994509190601f198416875b8d82821062000530575050841162000517575b505050811b0189556200021e565b0151600019838f1b60f8161c1916905538808062000509565b8385015186558c97909501949384019301620004f6565b9091508b855289852087808501881c8201928c86106200058e575b918a918695949301891c01915b8281106200057f575050620001f6565b8781558594508a91016200056f565b9250819262000562565b90607f1690620001e1565b634e487b7160e01b85526041600452602485fd5b01519050388062000100565b8787528587208894509190601f198416885b888282106200060f5750508411620005f6575b505050811b01845562000112565b0151600019838a1b60f8161c19169055388080620005e8565b8385015186558b97909501949384019301620005d5565b9091508686528486208980850160051c8201928786106200066f575b918991869594930160051c01915b82811062000660575050620000ea565b88815585945089910162000650565b9250819262000642565b634e487b7160e01b86526022600452602486fd5b90607f1690620000d5565b015190503880620000a8565b8780528688208994509190601f198416895b89828210620006f05750508411620006d7575b505050811b018455620000ba565b0151600019838b1b60f8161c19169055388080620006c9565b8385015186558c97909501949384019301620006b6565b9091508680528587208a80850160051c82019288861062000750575b918a91869594930160051c01915b8281106200074157505062000092565b8981558594508a910162000731565b9250819262000723565b98607f16986200007b565b634e487b7160e01b600052604160045260246000fd5b600080fd5b60408051919082016001600160401b038111838210176200076557604052565b6001600160a01b031660008181527f6d5257204ebe7d88fd91ae87941cb2dd9d8062b64ae5a2bd2d28ec40b9fbf6df602052604081205490919060ff166200082e5781805260076020526040822081835260205260408220600160ff1982541617905533917f2f8788117e7eff1d82e926ec794901d17c78024a50270940304540a733656f0d8180a4600190565b509056fe608080604052600436101561001357600080fd5b60003560e01c90816301ffc9a714612c2b5750806306fdde0314612b88578063081812fc14612b4a578063095ea7b314612a635780630e88e55b146129ba5780630f55415b146127dc578063126dbe431461271557806314c44e09146126f75780631955cf811461234d57806323b872dd1461233657806324600fc3146122ae578063248a9ca31461227f5780632d7788db146121db5780632f2ff15d1461219c57806336568abe1461215557806342842e0e146121275780636352211e146120f757806370a082311461209e57806381d12c5814611f48578063860c226b14611da05780638e1e873214611a2b57806391d14854146119de57806393e54a561461141057806395d89b41146113315780639d36ab6c1461112d578063a217fddf14611111578063a22cb46514611063578063a87430ba14610fc3578063b88d4fde14610f58578063bcc36cff14610dd5578063be47e02814610d9a578063c87b56dd14610d3d578063d538d7c814610515578063d547741f146104d4578063e985e9c51461047e578063f68e9553146104435763fb1a002a146101b657600080fd5b3461043e57600036600319011261043e57600b546101d38161367f565b6101e06040519182612d88565b818152601f196101ef8361367f565b0160005b8181106103bc575050600191825b8181111561035e578284604051918291602090818401828552835180915260408501928060408360051b8801019501936000905b8382106102425787870388f35b918496819592949698508190603f198b82030185528951908151815260018060a01b0391828482015116848301526102e16102ce6102bb6102a861029560408601516101e08060408a0152880190612cca565b6060808701519088830390890152612cca565b6080808601519087830390880152612cca565b60a0808501519086830390870152612cca565b60c0808401519085830390860152612cca565b9260e08201516102f081612f2e565b60e0840152610100808301519061030682612f2e565b84015261012080830151908401526101408083015190840152610160808301519084015261018080830151908401526101a0908183015116908301526101c08091015191015298019201920187969593919492610235565b80600052600c6020526040600020906000198101918183116103a6576103a19261038a61039b926136c0565b6103948288613696565b5285613696565b50613615565b610201565b634e487b7160e01b600052601160045260246000fd5b6020906040516103cb81612d36565b6000815282600081830152606080604084015280808401528060808401528060a084015260c0830152600060e08301526000610100830152600061012083015260006101408301526000610160830152600061018083015260006101a083015260006101c08301528286010152016101f3565b600080fd5b3461043e57600036600319011261043e5760206040517fedcc084d3dcd65a1f7f23c65c46722faca6953d28e43150a467cf43e5c3092388152f35b3461043e57604036600319011261043e57610497612d0a565b61049f612d20565b9060018060a01b03809116600052600560205260406000209116600052602052602060ff604060002054166040519015158152f35b3461043e57604036600319011261043e576105136004356104f3612d20565b9080600052600760205261050e600160406000200154612faa565b6131ac565b005b60a036600319011261043e576004356001600160401b03811161043e57610540903690600401612dfb565b6024356001600160401b03811161043e5761055f903690600401612dfb565b6044356001600160401b03811161043e5761057e903690600401612dfb565b6064356001600160401b03811161043e5761059d903690600401612dfb565b6084356001600160401b03811161043e576105bc903690600401612dfb565b916105c5613624565b600a543410610d0a576105d9600b54613615565b9384600b55604051956105eb87612d36565b85875233602088015260408701526060860152608085015260a084015260c0830152600060e08301526000610100830152600061012083015260006101408301526000610160830152600061018083015260006101a0830152426101c0830152600052600c6020526040600020908051825560018060a01b036020820151166001600160601b0360a01b60018401541617600183015560408101519182516001600160401b0381116109f4576106a46002830154612e4e565b601f8111610cc3575b506020601f8211600114610c555781929394600092610c4a575b50508160011b916000199060031b1c19161760028201555b60608201519182516001600160401b0381116109f4576107026003840154612e4e565b601f8111610c03575b506020601f8211600114610b955781929394600092610b8a575b50508160011b916000199060031b1c19161760038301555b60808101519182516001600160401b0381116109f4576107606004830154612e4e565b601f8111610b43575b506020601f8211600114610ad55781929394600092610aca575b50508160011b916000199060031b1c19161760048201555b60a08201519182516001600160401b0381116109f4576107be6005840154612e4e565b601f8111610a83575b506020601f8211600114610a155781929394600092610a0a575b50508160011b916000199060031b1c19161760058301555b60c08101518051906001600160401b0382116109f45761081c6006850154612e4e565b601f81116109ad575b50602090601f8311600114610937579180600d94926101c09460009261092c575b50508160011b916000199060031b1c19161760068501555b6007840160e082015161087081612f2e565b61087981612f2e565b815460ff61ff0061010086015161088f81612f2e565b61089881612f2e565b60081b1692169061ffff19161717905561012081015160088501556101408101516009850155610160810151600a850155610180810151600b850155600c840160018060a01b036101a0830151166001600160601b0360a01b825416179055015191015533600b547f67da995c6df7166078290dae7ac4f9c90eeb269d051c434663949b26f04dba1d600080a36001600855005b015190508680610846565b906006850160005260206000209160005b601f1985168110610995575092600d94926001926101c09583601f1981161061097c575b505050811b01600685015561085e565b015160001960f88460031b161c1916905586808061096c565b91926020600181928685015181550194019201610948565b600685016000526020600020601f840160051c8101602085106109ed575b601f830160051c820181106109e1575050610825565b600081556001016109cb565b50806109cb565b634e487b7160e01b600052604160045260246000fd5b0151905084806107e1565b6005840160005260206000209060005b601f1984168110610a6b5750600193949583601f19811610610a52575b505050811b0160058301556107f9565b015160001960f88460031b161c19169055848080610a42565b9091602060018192858a015181550193019101610a25565b600584016000526020600020601f830160051c810160208410610ac3575b601f830160051c82018110610ab75750506107c7565b60008155600101610aa1565b5080610aa1565b015190508480610783565b6004830160005260206000209060005b601f1984168110610b2b5750600193949583601f19811610610b12575b505050811b01600482015561079b565b015160001960f88460031b161c19169055848080610b02565b9091602060018192858a015181550193019101610ae5565b600483016000526020600020601f830160051c810160208410610b83575b601f830160051c82018110610b77575050610769565b60008155600101610b61565b5080610b61565b015190508480610725565b6003840160005260206000209060005b601f1984168110610beb5750600193949583601f19811610610bd2575b505050811b01600383015561073d565b015160001960f88460031b161c19169055848080610bc2565b9091602060018192858a015181550193019101610ba5565b600384016000526020600020601f830160051c810160208410610c43575b601f830160051c82018110610c3757505061070b565b60008155600101610c21565b5080610c21565b0151905084806106c7565b6002830160005260206000209060005b601f1984168110610cab5750600193949583601f19811610610c92575b505050811b0160028201556106df565b015160001960f88460031b161c19169055848080610c82565b9091602060018192858a015181550193019101610c65565b600283016000526020600020601f830160051c810160208410610d03575b601f830160051c82018110610cf75750506106ad565b60008155600101610ce1565b5080610ce1565b60405162461bcd60e51b815260206004820152600b60248201526a46656520746f6f206c6f7760a81b6044820152606490fd5b3461043e57602036600319011261043e57600435610d5a8161346f565b506000526006602052610d96610d736040600020612e88565b6000604051610d8181612d52565b52604051918291602083526020830190612cca565b0390f35b3461043e57600036600319011261043e5760206040517f2876b6444ca73956040d49b0d48b2a7c03b6b34daa638a812177f0309da79c7e8152f35b3461043e57606036600319011261043e57600435602435610df58261346f565b6001600160a01b039190610e0c9083163314613647565b82600052600c602092818452600360ff60076040600020015460081c16610e3281612f2e565b149081610f3e575b50610ed5575b916080916000600b7f3cf0e429eb8478e2532bd6678f8f3cb5c7156d3cc200512c051c25844747fa139587835280855260408320906007820161020061ff0019825416179055846009830155604435600a83015583600883015581016001600160601b0360a01b8154169055015560405191604083526009604084015268466f72204c6561736560b81b6060840152820152a2005b83600052808352600b604060002001544211610e405760405162461bcd60e51b815260048101849052602560248201527f43616e6e6f742072652d6c6973743a2054656e616e742074696d65206e6f74206044820152646f7665722160d81b6064820152608490fd5b905084600052818452816040600020015416151585610e3a565b3461043e57608036600319011261043e57610f71612d0a565b610f79612d20565b90604435606435926001600160401b03841161043e573660238501121561043e57610fb1610513943690602481600401359101612dc4565b92610fbd838383613223565b336134aa565b3461043e57602036600319011261043e576001600160a01b03610fe4612d0a565b16600052600960205261103b6040600020610ffe81612e88565b9061105761100e60018301612e88565b9161104960ff600361102260028501612e88565b9301541693604051968796608088526080880190612cca565b908682036020880152612cca565b908482036040860152612cca565b90151560608301520390f35b3461043e57604036600319011261043e5761107c612d0a565b602435908115159081830361043e576001600160a01b03169182156110f8576110ca9033600052600560205260406000208460005260205260406000209060ff801983541691151516179055565b6040519081527f17307eab39ab6107e8899845ad3d59bd9653f200f220920489ca2b5937696c3160203392a3005b604051630b61174360e31b815260048101849052602490fd5b3461043e57600036600319011261043e57602060405160008152f35b60208060031936011261043e5760043590611146613624565b81600052600c8152604060002061115c8361346f565b916007820192600260ff855460081c1661117581612f2e565b036112fc57600983015434106112c3576001600160a01b0390811633811461128c57600c840191825416611247575b6000808080938190341561123d575b3491f11561123157336001600160601b0360a01b825416179055600a820154804201938442116103a6577fe6aef257b8c2e2f01587b7dbe07bc085f3ee5a15cea0fa649e83e987e3404e6c94600b608095015561030061ff001982541617905560405191338352820152346040820152426060820152a26001600855005b6040513d6000823e3d90fd5b6108fc91506111b3565b600b84015442116111a45760405162461bcd60e51b815260048101849052601260248201527150726f7065727479204f636375706965642160701b6044820152606490fd5b60405162461bcd60e51b815260048101849052600f60248201526e13dddb995c8818d85b9d081c995b9d608a1b6044820152606490fd5b60405162461bcd60e51b8152600481018390526011602482015270125b9cdd59999a58da595b9d0814995b9d607a1b6044820152606490fd5b60405162461bcd60e51b815260048101839052600d60248201526c4e6f7420666f72206c6561736560981b6044820152606490fd5b3461043e57600036600319011261043e576040516000600180549061135582612e4e565b808552918181169081156113e95750600114611390575b610d968461137c81860382612d88565b604051918291602083526020830190612cca565b600081815292507fb10e2d527612073b26eecdfd717e6a320cf44b4afac2b0732d9fcbe2b7fa0cf65b8284106113d157505050810160200161137c8261136c565b805460208587018101919091529093019281016113b9565b60ff191660208087019190915292151560051b8501909201925061137c915083905061136c565b3461043e57608036600319011261043e576001600160401b0360043581811161043e57611441903690600401612dfb565b9060243581811161043e5761145a903690600401612dfb565b60443582811161043e57611472903690600401612dfb565b60643583811161043e5761148a903690600401612dfb565b33600052600960205260ff600360406000200154166119a35781517fa78e49ef41478ad2ab23f4faa913f2dca7351bc697dcd6bb0cd3fd6ea3c8db8a602084019182206729aaa92b22aca7a960c11b60206040516114e781612d6d565b600881520152036118ea57507f2aee43caeceba709dea2937ae43e888d333dde67ea763228a69d7c9e25ac607781602061154693519101206853555256455931323360b81b602060405161153a81612d6d565b600981520152146135da565b61154f33613083565b505b6040519360808501858110858211176109f45760405284526020840191825260408401526001606084015233600052600960205260406000209083518051908482116109f45781906115a38554612e4e565b601f8111611897575b50602090601f831160011461183157600092611826575b50508160011b916000199060031b1c19161782555b519283518381116109f4576115f06001840154612e4e565b601f81116117db575b50602094601f821160011461176f57948192939495600092611764575b50508160011b916000199060031b1c19161760018301555b6002820160408201519384519081116109f45761164b8254612e4e565b601f811161171c575b506020601f82116001146116ad57918160039492606094610513986000926116a2575b50508160011b9160001990871b1c19161790555b0151151591019060ff801983541691151516179055565b015190508880611677565b601f198216958360005260206000209660005b81811061170457509261051397606095936001938360039997106116ec575b505050811b01905561168b565b015160001983891b60f8161c191690558880806116df565b838301518955600190980197602093840193016116c0565b826000526020600020601f830160051c8101916020841061175a575b601f0160051c01905b81811061174e5750611654565b60008155600101611741565b9091508190611738565b015190508580611616565b601f198216956001850160005260206000209160005b8881106117c3575083600195969798106117aa575b505050811b01600183015561162e565b015160001960f88460031b161c1916905585808061179a565b91926020600181928685015181550194019201611785565b600184016000526020600020601f830160051c8101916020841061181c575b601f0160051c01905b81811061181057506115f9565b60008155600101611803565b90915081906117fa565b0151905086806115c3565b6000868152602081209350601f198516905b81811061187f5750908460019594939210611866575b505050811b0182556115d8565b015160001960f88460031b161c19169055868080611859565b92936020600181928786015181550195019301611843565b909150846000526020600020601f840160051c810191602085106118e0575b90601f859493920160051c01905b8181106118d157506115ac565b600081558493506001016118c4565b90915081906118b6565b7fd6b769dbdbf190871759edfb79bd17eda0005e1b8c3b6b3f5b480b5604ad50149083519020682922a3a4a9aa2920a960b91b602060405161192b81612d6d565b6009815201521461193d575b50611551565b7feeec48380e9542e5defda8821480f34e4a6e8ea26cddf01dd26478e676cc3a3881602061199393519101206b52454749535452415231323360a01b602060405161198781612d6d565b600c81520152146135da565b61199c33612fd0565b5084611937565b60405162461bcd60e51b8152602060048201526013602482015272416c726561647920726567697374657265642160681b6044820152606490fd5b3461043e57604036600319011261043e576119f7612d20565b600435600052600760205260406000209060018060a01b0316600052602052602060ff604060002054166040519015158152f35b3461043e5760208060031936011261043e57611a45612f4e565b600435600052600c8152604060002060078101600260ff198254161790556001918282019160018060a01b0391828454168254604051611a8481612d52565b600081528215611d875785611a9983856133b3565b16611d6e57823b611c46575b5050508154611ab660038401612e88565b9581600052600683526040600020908751976001600160401b0389116109f457611ae08354612e4e565b601f8111611bfd575b508490601f8a11600114611b795798809281927ff8e1a15aba9398e019f0b49df1a4fde98ee17ae345cb5f6b5e2c27f5033e8ce798999a9b600094611b6e575b50501b916000199060031b1c19161790555b604051908152a154915416907fbb34aa4710e9aece41642e442b49b5b8aff84ba0def93849797c2f15398aab23600080a3005b015192508b80611b29565b9890601f1982169084600052866000209160005b818110611be857509a837ff8e1a15aba9398e019f0b49df1a4fde98ee17ae345cb5f6b5e2c27f5033e8ce7999a9b9c10611bcf575b505050811b019055611b3b565b015160001960f88460031b161c19169055898080611bc2565b8c830151845592850192918801918801611b8d565b8360005285600020601f8b0160051c810191878c10611c3c575b601f0160051c019083905b828110611c30575050611ae9565b60008155018390611c22565b9091508190611c17565b83611c8991604099979599989694985180938192630a85bd0160e11b96878452336004850152600060248501526044840152608060648401526084830190612cca565b038160008b5af160009181611d2e575b50611cf75787873d15611cef573d91611cb183612da9565b92611cbf6040519485612d88565b83523d60008285013e5b82519283611cea57604051633250574960e11b815260048101849052602490fd5b019050fd5b606091611cc9565b63ffffffff60e098949698979395971b1603611d165750858080611aa5565b60249060405190633250574960e11b82526004820152fd5b9091508881813d8311611d67575b611d468183612d88565b8101031261043e57516001600160e01b03198116810361043e579089611c99565b503d611d3c565b6040516339e3563760e11b815260006004820152602490fd5b604051633250574960e11b815260006004820152602490fd5b3461043e5760208060031936011261043e5760043590611dbf8261346f565b6001600160a01b03903390821603611f0a5782600052600c90818352600360ff60076040600020015460081c16611df581612f2e565b149081611ef0575b50611e95575b7f3cf0e429eb8478e2532bd6678f8f3cb5c7156d3cc200512c051c25844747fa13916080918460005280825260406000206007810161ff0019815416905560006008820155600060098201556000600a8201556000600b820155016001600160601b0360a01b81541690556000604051916040835260076040840152665072697661746560c81b6060840152820152a2005b82600052808252600b604060002001544211611e035760405162461bcd60e51b815260048101839052601f60248201527f43616e6e6f7420756e6c6973743a204c656173652069732061637469766521006044820152606490fd5b905083600052818352816040600020015416151584611dfd565b60405162461bcd60e51b81526004810183905260166024820152754f6e6c79204f776e65722063616e20756e6c6973742160501b6044820152606490fd5b3461043e57602036600319011261043e576004356000908152600c60205260409020805460018201546001600160a01b0390811692611f8960028201612e88565b90611f9660038201612e88565b92611fa360048301612e88565b93611fb060058401612e88565b94611fbd60068501612e88565b95600785015496600886015491600987015493600a88015495600b89015497600c8a01541698600d0154996040519d8e809e8152602001528c6101e06040819201528d0161200a91612cca565b8c810360608e015261201b91612cca565b8b810360808d015261202c91612cca565b8a810360a08c015261203d91612cca565b89810360c08b015261204e91612cca565b9660ff811661205c81612f2e565b60e08a015260081c60ff1661207081612f2e565b6101008901526101208801526101408701526101608601526101808501526101a08401526101c08301520390f35b3461043e57602036600319011261043e576001600160a01b036120bf612d0a565b1680156120de5760005260036020526020604060002054604051908152f35b6040516322718ad960e21b815260006004820152602490fd5b3461043e57602036600319011261043e57602061211560043561346f565b6040516001600160a01b039091168152f35b3461043e5761051361213836612e19565b906040519261214684612d52565b60008452610fbd838383613223565b3461043e57604036600319011261043e5761216e612d20565b336001600160a01b0382160361218a57610513906004356131ac565b60405163334bd91960e11b8152600490fd5b3461043e57604036600319011261043e576105136004356121bb612d20565b908060005260076020526121d6600160406000200154612faa565b613131565b3461043e57602036600319011261043e576004356121f7612f4e565b80600052600c602052600260ff6007604060002001541661221781612f2e565b1461223a576000908152600c60205260409020600701805460ff19166003179055005b60405162461bcd60e51b815260206004820152601f60248201527f43616e6e6f742072656a65637420617070726f7665642070726f7065727479006044820152606490fd5b3461043e57602036600319011261043e5760043560005260076020526020600160406000200154604051908152f35b3461043e57600036600319011261043e573360009081527f6d5257204ebe7d88fd91ae87941cb2dd9d8062b64ae5a2bd2d28ec40b9fbf6df602052604090205460ff16156123175760008080804781811561230e575b3390f11561123157005b506108fc612304565b60405163e2517d3f60e01b815233600482015260006024820152604490fd5b3461043e5761051361234736612e19565b91613223565b604036600319011261043e5760246004356001600160401b03823581811161043e5761237d903690600401612dfb565b612385613624565b826000526020600c815260406000209161239e8561346f565b92600781019160ff835460081c16956123b687612f2e565b60018097036126c457600883019182543410612692576001600160a01b03878116979033891461265d5760003415612654575b6000808080938d3491f11561123157331561263c576124088b336133b3565b9081168061242857604051637e27328960e01b8152600481018d90528d90fd5b98809a9c95969798990361260c575050600285019281519283116125f8575089906124538454612e4e565b601f81116125af575b508790601f841160011461251b5793838060809a98956000957ff17ae70939d4cf0fffcec7ff83a385ce9409eec6273301c19c391c703d40364d9d9b9995600c998894612510575b50501b9185199060031b1c19161790555b8a8301946001600160601b0360a01b95338782541617905561ff0019815416905555600060098201556000600a8201556000600b820155019081541690556040519182523390820152346040820152426060820152a2600855005b0151925038806124a4565b90601f9392931983169185600052896000209260005b8181106125985750937ff17ae70939d4cf0fffcec7ff83a385ce9409eec6273301c19c391c703d40364d9b999793600c979360809c9a97938360009810612580575b505050811b0190556124b5565b0151861960f88460031b161c191690558e8080612573565b8284015185558e9690940193928b01928b01612531565b8460005288600020601f850160051c8101918a86106125ee575b601f0160051c019083905b8281106125e257505061245c565b600081550183906125d4565b90915081906125c9565b634e487b7160e01b60009081526041600452fd5b6040516364283d7b60e01b81526001600160a01b039283166004820152602481018c905291166044820152606490fd5b604051633250574960e11b8152600060048201528c90fd5b506108fc6123e9565b60405162461bcd60e51b815260048101899052600e818e01526d21b0b73737ba10313abc9037bbb760911b6044820152606490fd5b60405162461bcd60e51b815260048101879052600b818c01526a4c6f772042616c616e636560a81b6044820152606490fd5b60405162461bcd60e51b815260048101869052600c818b01526b4e6f7420666f722073616c6560a01b6044820152606490fd5b3461043e57600036600319011261043e576020600a54604051908152f35b3461043e57602036600319011261043e5760043580600052600c60205261274861274260406000206136c0565b9161346f565b81519060408301519260a08101519160c08201519060018060a01b0393846101a085015116151593846127cb575b50906127b1916127bf949561279d604051998a998a5260c060208b015260c08a0190612cca565b921660408801528682036060880152612cca565b908482036080860152612cca565b90151560a08301520390f35b6101800151421093506127b1612776565b3461043e57604036600319011261043e576004356024356127fc8261346f565b6001600160a01b0391906128139083163314613647565b82600052600c602092818452600260ff6007604060002001541661283681612f2e565b036129885784600052818452600360ff60076040600020015460081c1661285c81612f2e565b14908161296e575b506128ff575b916080917f3cf0e429eb8478e2532bd6678f8f3cb5c7156d3cc200512c051c25844747fa13938560005280835260406000206007810161010061ff0019825416179055826008820155600060098201556000600a8201556000600b820155016001600160601b0360a01b815416905560405191604083526008604084015267466f722053616c6560c01b6060840152820152a2005b83600052808352600b60406000200154421161286a5760405162461bcd60e51b815260048101849052602b60248201527f43616e6e6f74206c69737420666f722073616c653a2054656e616e742074696d60448201526a65206e6f74206f7665722160a81b6064820152608490fd5b905084600052818452816040600020015416151585612864565b606484836040519162461bcd60e51b8352600483015260248201526b139bdd08105c1c1c9bdd995960a21b6044820152fd5b3461043e57602036600319011261043e573360009081527f88dc988953ac3783e42f15664720d42b06bb81b884417b7c7bc8e77b0a720db660205260409020547f2876b6444ca73956040d49b0d48b2a7c03b6b34daa638a812177f0309da79c7e9060ff1615612a45576004356000908152600c60205260409020600701805460ff19166001179055005b6044906040519063e2517d3f60e01b82523360048301526024820152fd5b3461043e57604036600319011261043e57612a7c612d0a565b602435612a888161346f565b33151580612b37575b80612b0a575b612af2576001600160a01b039283169282918491167f8c5be1e5ebec7d5bd14f71427d1e84f3dd0314c0f7b2291e5b200ac8c7c3b925600080a4600090815260046020526040902080546001600160a01b0319169091179055005b60405163a9fbf51f60e01b8152336004820152602490fd5b5060018060a01b038116600052600560205260406000203360005260205260ff6040600020541615612a97565b506001600160a01b038116331415612a91565b3461043e57602036600319011261043e57600435612b678161346f565b506000526004602052602060018060a01b0360406000205416604051908152f35b3461043e57600036600319011261043e5760405160008054612ba981612e4e565b808452906001908181169081156113e95750600114612bd257610d968461137c81860382612d88565b600080805292507f290decd9548b62a8d60345a988386fc84ba6bc95484008f6362f93160ef3e5635b828410612c1357505050810160200161137c8261136c565b80546020858701810191909152909301928101612bfb565b3461043e57602036600319011261043e576004359063ffffffff60e01b821680920361043e57602091637965db0b60e01b8114908115612c6d575b5015158152f35b632483248360e11b811491508115612c87575b5083612c66565b6380ac58cd60e01b811491508115612cb9575b8115612ca8575b5083612c80565b6301ffc9a760e01b14905083612ca1565b635b5e139f60e01b81149150612c9a565b919082519283825260005b848110612cf6575050826000602080949584010152601f8019910116010190565b602081830181015184830182015201612cd5565b600435906001600160a01b038216820361043e57565b602435906001600160a01b038216820361043e57565b6101e081019081106001600160401b038211176109f457604052565b602081019081106001600160401b038211176109f457604052565b604081019081106001600160401b038211176109f457604052565b90601f801991011681019081106001600160401b038211176109f457604052565b6001600160401b0381116109f457601f01601f191660200190565b929192612dd082612da9565b91612dde6040519384612d88565b82948184528183011161043e578281602093846000960137010152565b9080601f8301121561043e57816020612e1693359101612dc4565b90565b606090600319011261043e576001600160a01b0390600435828116810361043e5791602435908116810361043e579060443590565b90600182811c92168015612e7e575b6020831014612e6857565b634e487b7160e01b600052602260045260246000fd5b91607f1691612e5d565b9060405191826000825492612e9c84612e4e565b908184526001948581169081600014612f0b5750600114612ec8575b5050612ec692500383612d88565b565b9093915060005260209081600020936000915b818310612ef3575050612ec693508201013880612eb8565b85548884018501529485019487945091830191612edb565b915050612ec694506020925060ff191682840152151560051b8201013880612eb8565b60041115612f3857565b634e487b7160e01b600052602160045260246000fd5b3360009081527fff6db987cc3eb6bb5dcc88dfdb614854cfd71c221fb0d830bd28f7ba6e802ead60205260409020547fedcc084d3dcd65a1f7f23c65c46722faca6953d28e43150a467cf43e5c3092389060ff1615612a455750565b80600052600760205260406000203360005260205260ff6040600020541615612a455750565b6001600160a01b031660008181527fff6db987cc3eb6bb5dcc88dfdb614854cfd71c221fb0d830bd28f7ba6e802ead60205260408120549091907fedcc084d3dcd65a1f7f23c65c46722faca6953d28e43150a467cf43e5c3092389060ff1661307e5780835260076020526040832082845260205260408320600160ff198254161790557f2f8788117e7eff1d82e926ec794901d17c78024a50270940304540a733656f0d339380a4600190565b505090565b6001600160a01b031660008181527f88dc988953ac3783e42f15664720d42b06bb81b884417b7c7bc8e77b0a720db660205260408120549091907f2876b6444ca73956040d49b0d48b2a7c03b6b34daa638a812177f0309da79c7e9060ff1661307e5780835260076020526040832082845260205260408320600160ff198254161790557f2f8788117e7eff1d82e926ec794901d17c78024a50270940304540a733656f0d339380a4600190565b906000918083526007602052604083209160018060a01b03169182845260205260ff6040842054161560001461307e5780835260076020526040832082845260205260408320600160ff198254161790557f2f8788117e7eff1d82e926ec794901d17c78024a50270940304540a733656f0d339380a4600190565b906000918083526007602052604083209160018060a01b03169182845260205260ff60408420541660001461307e578083526007602052604083208284526020526040832060ff1981541690557ff6391f5c32d9c69d2a47ea670b442974b53935d1edc7fd64eb21e047a839171b339380a4600190565b906001600160a01b039081168015611d875760009184835284602092600284526040938385872054169586913315158061331d575b509060027fddf252ad1be2c89b69c2b068fc378daa952ba7f163c4a11628f55a4df523b3ef92846132ea575b85835260038152888320805460010190558683525286812080546001600160a01b0319168517905580a4831682036132bc5750505050565b516364283d7b60e01b81526001600160a01b0392831660048201526024810193909352166044820152606490fd5b600087815260046020526040902080546001600160a01b0319169055848352600381528883208054600019019055613284565b91939450915080613372575b1561333957879291869138613258565b848887613356576024915190637e27328960e01b82526004820152fd5b604491519063177e802f60e01b82523360048301526024820152fd5b503386148015613397575b806133295750878252600481523384868420541614613329565b5085825260058152848220338352815260ff858320541661337d565b6000828152600260205260408120546001600160a01b03908116939284917fddf252ad1be2c89b69c2b068fc378daa952ba7f163c4a11628f55a4df523b3ef918361343a575b169283613422575b84815260026020526040812080546001600160a01b0319168517905580a490565b83815260036020526040812060018154019055613401565b600086815260046020526040902080546001600160a01b031916905583855260036020526040852080546000190190556133f9565b6000818152600260205260409020546001600160a01b0316908115613492575090565b60249060405190637e27328960e01b82526004820152fd5b90939192833b6134bc575b5050505050565b604051630a85bd0160e11b8082526001600160a01b039384166004830152958316602482015260448101919091526080606482015294921692602092918590613509906084830190612cca565b039483816000978189895af1869181613596575b50613578575050503d60001461356f573d61353781612da9565b906135456040519283612d88565b81528093823d92013e82519283611cea57604051633250574960e11b815260048101849052602490fd5b60609250611cc9565b919450915063ffffffff60e01b1603611d16575038808080806134b5565b9091508481813d83116135d3575b6135ae8183612d88565b810103126135cf57516001600160e01b0319811681036135cf57903861351d565b8680fd5b503d6135a4565b156135e157565b60405162461bcd60e51b815260206004820152600c60248201526b496e76616c696420436f646560a01b6044820152606490fd5b60001981146103a65760010190565b600260085414613635576002600855565b604051633ee5aeb560e01b8152600490fd5b1561364e57565b60405162461bcd60e51b81526020600482015260096024820152682737ba1027bbb732b960b91b6044820152606490fd5b6001600160401b0381116109f45760051b60200190565b80518210156136aa5760209160051b010190565b634e487b7160e01b600052603260045260246000fd5b906040516136cd81612d36565b6101c0600d82948054845260018060a01b038060018301541660208601526136f760028301612e88565b604086015261370860038301612e88565b606086015261371960048301612e88565b608086015261372a60058301612e88565b60a086015261373b60068301612e88565b60c086015260ff600783015481811661375381612f2e565b60e088015260081c1661376581612f2e565b61010086015260088201546101208601526009820154610140860152600a820154610160860152600b820154610180860152600c820154166101a0850152015491015256fea2646970667358221220b9c4ae5590c5934f1dd00a4d9633f54234e5425d4d700369a9ad6ec295dc2c3864736f6c63430008140033",
  "linkReferences": {},
  "deployedLinkReferences": {}
}