{
  "_format": "hh-sol-artifact-1",
  "contractName": "PropertyRegistry",
  "sourceName": "contracts/PropertyRegistry.sol",
  "abi": [
    {
      "inputs": [],
      "stateMutability": "nonpayable",
      "type": "constructor"
    },
    {
      "inputs": [],
      "name": "AccessControlBadConfirmation",
      "type": "error"
    },
    {
      "inputs": [
        {
          "internalType": "address",
          "name": "account",
          "type": "address"
        },
        {
          "internalType": "bytes32",
          "name": "neededRole",
          "type": "bytes32"
        }
      ],
      "name": "AccessControlUnauthorizedAccount",
      "type": "error"
    },
    {
      "inputs": [
        {
          "internalType": "address",
          "name": "sender",
          "type": "address"
        },
        {
          "internalType": "uint256",
          "name": "tokenId",
          "type": "uint256"
        },
        {
          "internalType": "address",
          "name": "owner",
          "type": "address"
        }
      ],
      "name": "ERC721IncorrectOwner",
      "type": "error"
    },
    {
      "inputs": [
        {
          "internalType": "address",
          "name": "operator",
          "type": "address"
        },
        {
          "internalType": "uint256",
          "name": "tokenId",
          "type": "uint256"
        }
      ],
      "name": "ERC721InsufficientApproval",
      "type": "error"
    },
    {
      "inputs": [
        {
          "internalType": "address",
          "name": "approver",
          "type": "address"
        }
      ],
      "name": "ERC721InvalidApprover",
      "type": "error"
    },
    {
      "inputs": [
        {
          "internalType": "address",
          "name": "operator",
          "type": "address"
        }
      ],
      "name": "ERC721InvalidOperator",
      "type": "error"
    },
    {
      "inputs": [
        {
          "internalType": "address",
          "name": "owner",
          "type": "address"
        }
      ],
      "name": "ERC721InvalidOwner",
      "type": "error"
    },
    {
      "inputs": [
        {
          "internalType": "address",
          "name": "receiver",
          "type": "address"
        }
      ],
      "name": "ERC721InvalidReceiver",
      "type": "error"
    },
    {
      "inputs": [
        {
          "internalType": "address",
          "name": "sender",
          "type": "address"
        }
      ],
      "name": "ERC721InvalidSender",
      "type": "error"
    },
    {
      "inputs": [
        {
          "internalType": "uint256",
          "name": "tokenId",
          "type": "uint256"
        }
      ],
      "name": "ERC721NonexistentToken",
      "type": "error"
    },
    {
      "inputs": [],
      "name": "ReentrancyGuardReentrantCall",
      "type": "error"
    },
    {
      "anonymous": false,
      "inputs": [
        {
          "indexed": true,
          "internalType": "address",
          "name": "owner",
          "type": "address"
        },
        {
          "indexed": true,
          "internalType": "address",
          "name": "approved",
          "type": "address"
        },
        {
          "indexed": true,
          "internalType": "uint256",
          "name": "tokenId",
          "type": "uint256"
        }
      ],
      "name": "Approval",
      "type": "event"
    },
    {
      "anonymous": false,
      "inputs": [
        {
          "indexed": true,
          "internalType": "address",
          "name": "owner",
          "type": "address"
        },
        {
          "indexed": true,
          "internalType": "address",
          "name": "operator",
          "type": "address"
        },
        {
          "indexed": false,
          "internalType": "bool",
          "name": "approved",
          "type": "bool"
        }
      ],
      "name": "ApprovalForAll",
      "type": "event"
    },
    {
      "anonymous": false,
      "inputs": [
        {
          "indexed": false,
          "internalType": "uint256",
          "name": "_fromTokenId",
          "type": "uint256"
        },
        {
          "indexed": false,
          "internalType": "uint256",
          "name": "_toTokenId",
          "type": "uint256"
        }
      ],
      "name": "BatchMetadataUpdate",
      "type": "event"
    },
    {
      "anonymous": false,
      "inputs": [
        {
          "indexed": true,
          "internalType": "uint256",
          "name": "tokenId",
          "type": "uint256"
        },
        {
          "indexed": false,
          "internalType": "address",
          "name": "tenant",
          "type": "address"
        },
        {
          "indexed": false,
          "internalType": "uint256",
          "name": "timestamp",
          "type": "uint256"
        }
      ],
      "name": "LeaseEnded",
      "type": "event"
    },
    {
      "anonymous": false,
      "inputs": [
        {
          "indexed": false,
          "internalType": "uint256",
          "name": "_tokenId",
          "type": "uint256"
        }
      ],
      "name": "MetadataUpdate",
      "type": "event"
    },
    {
      "anonymous": false,
      "inputs": [
        {
          "indexed": true,
          "internalType": "uint256",
          "name": "tokenId",
          "type": "uint256"
        },
        {
          "indexed": true,
          "internalType": "address",
          "name": "owner",
          "type": "address"
        }
      ],
      "name": "PropertyMinted",
      "type": "event"
    },
    {
      "anonymous": false,
      "inputs": [
        {
          "indexed": true,
          "internalType": "uint256",
          "name": "tokenId",
          "type": "uint256"
        },
        {
          "indexed": false,
          "internalType": "address",
          "name": "tenant",
          "type": "address"
        },
        {
          "indexed": false,
          "internalType": "uint256",
          "name": "duration",
          "type": "uint256"
        },
        {
          "indexed": false,
          "internalType": "uint256",
          "name": "price",
          "type": "uint256"
        },
        {
          "indexed": false,
          "internalType": "uint256",
          "name": "timestamp",
          "type": "uint256"
        }
      ],
      "name": "PropertyRented",
      "type": "event"
    },
    {
      "anonymous": false,
      "inputs": [
        {
          "indexed": true,
          "internalType": "uint256",
          "name": "tokenId",
          "type": "uint256"
        },
        {
          "indexed": false,
          "internalType": "address",
          "name": "from",
          "type": "address"
        },
        {
          "indexed": false,
          "internalType": "address",
          "name": "to",
          "type": "address"
        },
        {
          "indexed": false,
          "internalType": "uint256",
          "name": "price",
          "type": "uint256"
        },
        {
          "indexed": false,
          "internalType": "uint256",
          "name": "timestamp",
          "type": "uint256"
        }
      ],
      "name": "PropertySold",
      "type": "event"
    },
    {
      "anonymous": false,
      "inputs": [
        {
          "indexed": true,
          "internalType": "uint256",
          "name": "tokenId",
          "type": "uint256"
        },
        {
          "indexed": false,
          "internalType": "string",
          "name": "newStatus",
          "type": "string"
        },
        {
          "indexed": false,
          "internalType": "uint256",
          "name": "price",
          "type": "uint256"
        }
      ],
      "name": "PropertyStatusChanged",
      "type": "event"
    },
    {
      "anonymous": false,
      "inputs": [
        {
          "indexed": true,
          "internalType": "uint256",
          "name": "requestId",
          "type": "uint256"
        },
        {
          "indexed": true,
          "internalType": "address",
          "name": "user",
          "type": "address"
        }
      ],
      "name": "RequestSubmitted",
      "type": "event"
    },
    {
      "anonymous": false,
      "inputs": [
        {
          "indexed": true,
          "internalType": "bytes32",
          "name": "role",
          "type": "bytes32"
        },
        {
          "indexed": true,
          "internalType": "bytes32",
          "name": "previousAdminRole",
          "type": "bytes32"
        },
        {
          "indexed": true,
          "internalType": "bytes32",
          "name": "newAdminRole",
          "type": "bytes32"
        }
      ],
      "name": "RoleAdminChanged",
      "type": "event"
    },
    {
      "anonymous": false,
      "inputs": [
        {
          "indexed": true,
          "internalType": "bytes32",
          "name": "role",
          "type": "bytes32"
        },
        {
          "indexed": true,
          "internalType": "address",
          "name": "account",
          "type": "address"
        },
        {
          "indexed": true,
          "internalType": "address",
          "name": "sender",
          "type": "address"
        }
      ],
      "name": "RoleGranted",
      "type": "event"
    },
    {
      "anonymous": false,
      "inputs": [
        {
          "indexed": true,
          "internalType": "bytes32",
          "name": "role",
          "type": "bytes32"
        },
        {
          "indexed": true,
          "internalType": "address",
          "name": "account",
          "type": "address"
        },
        {
          "indexed": true,
          "internalType": "address",
          "name": "sender",
          "type": "address"
        }
      ],
      "name": "RoleRevoked",
      "type": "event"
    },
    {
      "anonymous": false,
      "inputs": [
        {
          "indexed": true,
          "internalType": "address",
          "name": "from",
          "type": "address"
        },
        {
          "indexed": true,
          "internalType": "address",
          "name": "to",
          "type": "address"
        },
        {
          "indexed": true,
          "internalType": "uint256",
          "name": "tokenId",
          "type": "uint256"
        }
      ],
      "name": "Transfer",
      "type": "event"
    },
    {
      "inputs": [],
      "name": "DEFAULT_ADMIN_ROLE",
      "outputs": [
        {
          "internalType": "bytes32",
          "name": "",
          "type": "bytes32"
        }
      ],
      "stateMutability": "view",
      "type": "function"
    },
    {
      "inputs": [],
      "name": "REGISTRAR_ROLE",
      "outputs": [
        {
          "internalType": "bytes32",
          "name": "",
          "type": "bytes32"
        }
      ],
      "stateMutability": "view",
      "type": "function"
    },
    {
      "inputs": [],
      "name": "SURVEYOR_ROLE",
      "outputs": [
        {
          "internalType": "bytes32",
          "name": "",
          "type": "bytes32"
        }
      ],
      "stateMutability": "view",
      "type": "function"
    },
    {
      "inputs": [
        {
          "internalType": "address",
          "name": "to",
          "type": "address"
        },
        {
          "internalType": "uint256",
          "name": "tokenId",
          "type": "uint256"
        }
      ],
      "name": "approve",
      "outputs": [],
      "stateMutability": "nonpayable",
      "type": "function"
    },
    {
      "inputs": [
        {
          "internalType": "uint256",
          "name": "_requestId",
          "type": "uint256"
        }
      ],
      "name": "approveAndMint",
      "outputs": [],
      "stateMutability": "nonpayable",
      "type": "function"
    },
    {
      "inputs": [
        {
          "internalType": "address",
          "name": "owner",
          "type": "address"
        }
      ],
      "name": "balanceOf",
      "outputs": [
        {
          "internalType": "uint256",
          "name": "",
          "type": "uint256"
        }
      ],
      "stateMutability": "view",
      "type": "function"
    },
    {
      "inputs": [
        {
          "internalType": "uint256",
          "name": "_tokenId",
          "type": "uint256"
        },
        {
          "internalType": "string",
          "name": "_newOwnerName",
          "type": "string"
        }
      ],
      "name": "buyProperty",
      "outputs": [],
      "stateMutability": "payable",
      "type": "function"
    },
    {
      "inputs": [
        {
          "internalType": "uint256",
          "name": "_requestId",
          "type": "uint256"
        }
      ],
      "name": "completeSurvey",
      "outputs": [],
      "stateMutability": "nonpayable",
      "type": "function"
    },
    {
      "inputs": [],
      "name": "getAllRequests",
      "outputs": [
        {
          "components": [
            {
              "internalType": "uint256",
              "name": "id",
              "type": "uint256"
            },
            {
              "internalType": "address",
              "name": "requester",
              "type": "address"
            },
            {
              "internalType": "string",
              "name": "ownerName",
              "type": "string"
            },
            {
              "internalType": "string",
              "name": "ipfsMetadata",
              "type": "string"
            },
            {
              "internalType": "string",
              "name": "identityRefId",
              "type": "string"
            },
            {
              "internalType": "string",
              "name": "landArea",
              "type": "string"
            },
            {
              "internalType": "string",
              "name": "landLocation",
              "type": "string"
            },
            {
              "internalType": "enum PropertyRegistry.Status",
              "name": "status",
              "type": "uint8"
            },
            {
              "internalType": "enum PropertyRegistry.SaleStatus",
              "name": "saleStatus",
              "type": "uint8"
            },
            {
              "internalType": "uint256",
              "name": "price",
              "type": "uint256"
            },
            {
              "internalType": "uint256",
              "name": "leasePrice",
              "type": "uint256"
            },
            {
              "internalType": "uint256",
              "name": "leaseDuration",
              "type": "uint256"
            },
            {
              "internalType": "uint256",
              "name": "leaseEndTime",
              "type": "uint256"
            },
            {
              "internalType": "address",
              "name": "tenant",
              "type": "address"
            },
            {
              "internalType": "uint256",
              "name": "requestTime",
              "type": "uint256"
            }
          ],
          "internalType": "struct PropertyRegistry.PropertyRequest[]",
          "name": "",
          "type": "tuple[]"
        }
      ],
      "stateMutability": "view",
      "type": "function"
    },
    {
      "inputs": [
        {
          "internalType": "uint256",
          "name": "tokenId",
          "type": "uint256"
        }
      ],
      "name": "getApproved",
      "outputs": [
        {
          "internalType": "address",
          "name": "",
          "type": "address"
        }
      ],
      "stateMutability": "view",
      "type": "function"
    },
    {
      "inputs": [
        {
          "internalType": "uint256",
          "name": "_tokenId",
          "type": "uint256"
        }
      ],
      "name": "getPropertyDetails",
      "outputs": [
        {
          "internalType": "uint256",
          "name": "id",
          "type": "uint256"
        },
        {
          "internalType": "string",
          "name": "ownerName",
          "type": "string"
        },
        {
          "internalType": "address",
          "name": "ownerWallet",
          "type": "address"
        },
        {
          "internalType": "string",
          "name": "area",
          "type": "string"
        },
        {
          "internalType": "string",
          "name": "location",
          "type": "string"
        },
        {
          "internalType": "bool",
          "name": "isRented",
          "type": "bool"
        }
      ],
      "stateMutability": "view",
      "type": "function"
    },
    {
      "inputs": [
        {
          "internalType": "bytes32",
          "name": "role",
          "type": "bytes32"
        }
      ],
      "name": "getRoleAdmin",
      "outputs": [
        {
          "internalType": "bytes32",
          "name": "",
          "type": "bytes32"
        }
      ],
      "stateMutability": "view",
      "type": "function"
    },
    {
      "inputs": [
        {
          "internalType": "bytes32",
          "name": "role",
          "type": "bytes32"
        },
        {
          "internalType": "address",
          "name": "account",
          "type": "address"
        }
      ],
      "name": "grantRole",
      "outputs": [],
      "stateMutability": "nonpayable",
      "type": "function"
    },
    {
      "inputs": [
        {
          "internalType": "bytes32",
          "name": "role",
          "type": "bytes32"
        },
        {
          "internalType": "address",
          "name": "account",
          "type": "address"
        }
      ],
      "name": "hasRole",
      "outputs": [
        {
          "internalType": "bool",
          "name": "",
          "type": "bool"
        }
      ],
      "stateMutability": "view",
      "type": "function"
    },
    {
      "inputs": [
        {
          "internalType": "address",
          "name": "owner",
          "type": "address"
        },
        {
          "internalType": "address",
          "name": "operator",
          "type": "address"
        }
      ],
      "name": "isApprovedForAll",
      "outputs": [
        {
          "internalType": "bool",
          "name": "",
          "type": "bool"
        }
      ],
      "stateMutability": "view",
      "type": "function"
    },
    {
      "inputs": [
        {
          "internalType": "uint256",
          "name": "_tokenId",
          "type": "uint256"
        },
        {
          "internalType": "uint256",
          "name": "_leasePrice",
          "type": "uint256"
        },
        {
          "internalType": "uint256",
          "name": "_durationSeconds",
          "type": "uint256"
        }
      ],
      "name": "listPropertyForLease",
      "outputs": [],
      "stateMutability": "nonpayable",
      "type": "function"
    },
    {
      "inputs": [
        {
          "internalType": "uint256",
          "name": "_tokenId",
          "type": "uint256"
        },
        {
          "internalType": "uint256",
          "name": "_priceInWei",
          "type": "uint256"
        }
      ],
      "name": "listPropertyForSale",
      "outputs": [],
      "stateMutability": "nonpayable",
      "type": "function"
    },
    {
      "inputs": [
        {
          "internalType": "uint256",
          "name": "_tokenId",
          "type": "uint256"
        }
      ],
      "name": "makePropertyPrivate",
      "outputs": [],
      "stateMutability": "nonpayable",
      "type": "function"
    },
    {
      "inputs": [],
      "name": "name",
      "outputs": [
        {
          "internalType": "string",
          "name": "",
          "type": "string"
        }
      ],
      "stateMutability": "view",
      "type": "function"
    },
    {
      "inputs": [
        {
          "internalType": "uint256",
          "name": "tokenId",
          "type": "uint256"
        }
      ],
      "name": "ownerOf",
      "outputs": [
        {
          "internalType": "address",
          "name": "",
          "type": "address"
        }
      ],
      "stateMutability": "view",
      "type": "function"
    },
    {
      "inputs": [
        {
          "internalType": "string",
          "name": "_role",
          "type": "string"
        },
        {
          "internalType": "string",
          "name": "_secretCode",
          "type": "string"
        }
      ],
      "name": "registerUser",
      "outputs": [],
      "stateMutability": "nonpayable",
      "type": "function"
    },
    {
      "inputs": [],
      "name": "registrationFee",
      "outputs": [
        {
          "internalType": "uint256",
          "name": "",
          "type": "uint256"
        }
      ],
      "stateMutability": "view",
      "type": "function"
    },
    {
      "inputs": [
        {
          "internalType": "uint256",
          "name": "_requestId",
          "type": "uint256"
        }
      ],
      "name": "rejectRequest",
      "outputs": [],
      "stateMutability": "nonpayable",
      "type": "function"
    },
    {
      "inputs": [
        {
          "internalType": "bytes32",
          "name": "role",
          "type": "bytes32"
        },
        {
          "internalType": "address",
          "name": "callerConfirmation",
          "type": "address"
        }
      ],
      "name": "renounceRole",
      "outputs": [],
      "stateMutability": "nonpayable",
      "type": "function"
    },
    {
      "inputs": [
        {
          "internalType": "uint256",
          "name": "_tokenId",
          "type": "uint256"
        }
      ],
      "name": "rentProperty",
      "outputs": [],
      "stateMutability": "payable",
      "type": "function"
    },
    {
      "inputs": [
        {
          "internalType": "string",
          "name": "_ownerName",
          "type": "string"
        },
        {
          "internalType": "string",
          "name": "_ipfsMetadata",
          "type": "string"
        },
        {
          "internalType": "string",
          "name": "_identityRefId",
          "type": "string"
        },
        {
          "internalType": "string",
          "name": "_landArea",
          "type": "string"
        },
        {
          "internalType": "string",
          "name": "_landLocation",
          "type": "string"
        }
      ],
      "name": "requestRegistration",
      "outputs": [],
      "stateMutability": "payable",
      "type": "function"
    },
    {
      "inputs": [
        {
          "internalType": "uint256",
          "name": "",
          "type": "uint256"
        }
      ],
      "name": "requests",
      "outputs": [
        {
          "internalType": "uint256",
          "name": "id",
          "type": "uint256"
        },
        {
          "internalType": "address",
          "name": "requester",
          "type": "address"
        },
        {
          "internalType": "string",
          "name": "ownerName",
          "type": "string"
        },
        {
          "internalType": "string",
          "name": "ipfsMetadata",
          "type": "string"
        },
        {
          "internalType": "string",
          "name": "identityRefId",
          "type": "string"
        },
        {
          "internalType": "string",
          "name": "landArea",
          "type": "string"
        },
        {
          "internalType": "string",
          "name": "landLocation",
          "type": "string"
        },
        {
          "internalType": "enum PropertyRegistry.Status",
          "name": "status",
          "type": "uint8"
        },
        {
          "internalType": "enum PropertyRegistry.SaleStatus",
          "name": "saleStatus",
          "type": "uint8"
        },
        {
          "internalType": "uint256",
          "name": "price",
          "type": "uint256"
        },
        {
          "internalType": "uint256",
          "name": "leasePrice",
          "type": "uint256"
        },
        {
          "internalType": "uint256",
          "name": "leaseDuration",
          "type": "uint256"
        },
        {
          "internalType": "uint256",
          "name": "leaseEndTime",
          "type": "uint256"
        },
        {
          "internalType": "address",
          "name": "tenant",
          "type": "address"
        },
        {
          "internalType": "uint256",
          "name": "requestTime",
          "type": "uint256"
        }
      ],
      "stateMutability": "view",
      "type": "function"
    },
    {
      "inputs": [
        {
          "internalType": "bytes32",
          "name": "role",
          "type": "bytes32"
        },
        {
          "internalType": "address",
          "name": "account",
          "type": "address"
        }
      ],
      "name": "revokeRole",
      "outputs": [],
      "stateMutability": "nonpayable",
      "type": "function"
    },
    {
      "inputs": [
        {
          "internalType": "address",
          "name": "from",
          "type": "address"
        },
        {
          "internalType": "address",
          "name": "to",
          "type": "address"
        },
        {
          "internalType": "uint256",
          "name": "tokenId",
          "type": "uint256"
        }
      ],
      "name": "safeTransferFrom",
      "outputs": [],
      "stateMutability": "nonpayable",
      "type": "function"
    },
    {
      "inputs": [
        {
          "internalType": "address",
          "name": "from",
          "type": "address"
        },
        {
          "internalType": "address",
          "name": "to",
          "type": "address"
        },
        {
          "internalType": "uint256",
          "name": "tokenId",
          "type": "uint256"
        },
        {
          "internalType": "bytes",
          "name": "data",
          "type": "bytes"
        }
      ],
      "name": "safeTransferFrom",
      "outputs": [],
      "stateMutability": "nonpayable",
      "type": "function"
    },
    {
      "inputs": [
        {
          "internalType": "address",
          "name": "operator",
          "type": "address"
        },
        {
          "internalType": "bool",
          "name": "approved",
          "type": "bool"
        }
      ],
      "name": "setApprovalForAll",
      "outputs": [],
      "stateMutability": "nonpayable",
      "type": "function"
    },
    {
      "inputs": [
        {
          "internalType": "bytes4",
          "name": "interfaceId",
          "type": "bytes4"
        }
      ],
      "name": "supportsInterface",
      "outputs": [
        {
          "internalType": "bool",
          "name": "",
          "type": "bool"
        }
      ],
      "stateMutability": "view",
      "type": "function"
    },
    {
      "inputs": [],
      "name": "symbol",
      "outputs": [
        {
          "internalType": "string",
          "name": "",
          "type": "string"
        }
      ],
      "stateMutability": "view",
      "type": "function"
    },
    {
      "inputs": [
        {
          "internalType": "uint256",
          "name": "tokenId",
          "type": "uint256"
        }
      ],
      "name": "tokenURI",
      "outputs": [
        {
          "internalType": "string",
          "name": "",
          "type": "string"
        }
      ],
      "stateMutability": "view",
      "type": "function"
    },
    {
      "inputs": [
        {
          "internalType": "address",
          "name": "from",
          "type": "address"
        },
        {
          "internalType": "address",
          "name": "to",
          "type": "address"
        },
        {
          "internalType": "uint256",
          "name": "tokenId",
          "type": "uint256"
        }
      ],
      "name": "transferFrom",
      "outputs": [],
      "stateMutability": "nonpayable",
      "type": "function"
    },
    {
      "inputs": [
        {
          "internalType": "address",
          "name": "",
          "type": "address"
        }
      ],
      "name": "users",
      "outputs": [
        {
          "internalType": "string",
          "name": "name",
          "type": "string"
        },
        {
          "internalType": "string",
          "name": "email",
          "type": "string"
        },
        {
          "internalType": "string",
          "name": "role",
          "type": "string"
        },
        {
          "internalType": "bool",
          "name": "isRegistered",
          "type": "bool"
        }
      ],
      "stateMutability": "view",
      "type": "function"
    },
    {
      "inputs": [],
      "name": "withdrawFunds",
      "outputs": [],
      "stateMutability": "nonpayable",
      "type": "function"
    }
  ],
  "bytecode": "0x604060808152346200077b576200001562000780565b600f81526020906e125b991a5853185b99149958dbdc99608a1b828201526200003d62000780565b60038082526224a62960e91b84830152825193909291906001600160401b0380861162000765576000928354966001958689811c991680156200075a575b858a101462000679578190601f998a811162000707575b5085908a8311600114620006a457879262000698575b505060001982891b1c191690861b1784555b805190828211620005a35785548681811c911680156200068d575b85821014620006795790818984931162000626575b508490898311600114620005c3578692620005b7575b505060001982881b1c191690851b1784555b8360085566038d7ea4c68000600a556200012c33620007a0565b508651936080850185811083821117620005a35788526200014c62000780565b600b81526a29bab832b91020b236b4b760a91b8482015285526200016f62000780565b96600c88526b30b236b4b72033b7bb1734b760a11b848901528386019788526200019862000780565b946005908187526420a226a4a760d91b868801528a88019687526060880199848b52338252600987528b82209851805190878211620004c4578a548781811c9116801562000598575b8a821014620004a55790818784931162000547575b508990878311600114620004e4578592620004d8575b5050600019828d1b1c191690861b1789555b51805189860191878211620004c45782548781811c91168015620004b9575b8a821014620004a55790818784931162000454575b508990878311600114620003f1578592620003e5575b5050600019828d1b1c191690861b1790555b600288019651918251958611620003d1578754908582811c92168015620003c6575b88831014620003b2578482116200036c575b50508592851160011462000306579394508492919083620002fa575b50501b9160001990861b1c19161790555b019051151560ff80198354169116179055516135509081620008338239f35b015192503880620002ca565b86815285812093958591601f198316915b8883831062000351575050501062000338575b505050811b019055620002db565b015160001983881b60f8161c191690553880806200032a565b85870151885590960195948501948793509081019062000317565b8883528783209085808901821c8301938a8a10620003a8575b01901c019085905b8281106200039c5750620002ae565b8381550185906200038d565b9350829362000385565b634e487b7160e01b83526022600452602483fd5b91607f16916200029c565b634e487b7160e01b82526041600452602482fd5b01519050388062000268565b8486528a86208994509190601f198416875b8d8282106200043d575050841162000424575b505050811b0190556200027a565b0151600019838f1b60f8161c1916905538808062000416565b8385015186558c9790950194938401930162000403565b90915083855289852087808501881c8201928c86106200049b575b918a918695949301891c01915b8281106200048c57505062000252565b8781558594508a91016200047c565b925081926200046f565b634e487b7160e01b85526022600452602485fd5b90607f16906200023d565b634e487b7160e01b84526041600452602484fd5b0151905038806200020c565b8c86528a86208994509190601f198416875b8d82821062000530575050841162000517575b505050811b0189556200021e565b0151600019838f1b60f8161c1916905538808062000509565b8385015186558c97909501949384019301620004f6565b9091508b855289852087808501881c8201928c86106200058e575b918a918695949301891c01915b8281106200057f575050620001f6565b8781558594508a91016200056f565b9250819262000562565b90607f1690620001e1565b634e487b7160e01b85526041600452602485fd5b01519050388062000100565b8787528587208894509190601f198416885b888282106200060f5750508411620005f6575b505050811b01845562000112565b0151600019838a1b60f8161c19169055388080620005e8565b8385015186558b97909501949384019301620005d5565b9091508686528486208980850160051c8201928786106200066f575b918991869594930160051c01915b82811062000660575050620000ea565b88815585945089910162000650565b9250819262000642565b634e487b7160e01b86526022600452602486fd5b90607f1690620000d5565b015190503880620000a8565b8780528688208994509190601f198416895b89828210620006f05750508411620006d7575b505050811b018455620000ba565b0151600019838b1b60f8161c19169055388080620006c9565b8385015186558c97909501949384019301620006b6565b9091508680528587208a80850160051c82019288861062000750575b918a91869594930160051c01915b8281106200074157505062000092565b8981558594508a910162000731565b9250819262000723565b98607f16986200007b565b634e487b7160e01b600052604160045260246000fd5b600080fd5b60408051919082016001600160401b038111838210176200076557604052565b6001600160a01b031660008181527f6d5257204ebe7d88fd91ae87941cb2dd9d8062b64ae5a2bd2d28ec40b9fbf6df602052604081205490919060ff166200082e5781805260076020526040822081835260205260408220600160ff1982541617905533917f2f8788117e7eff1d82e926ec794901d17c78024a50270940304540a733656f0d8180a4600190565b509056fe608080604052600436101561001357600080fd5b60003560e01c90816301ffc9a71461299b5750806306fdde03146128f8578063081812fc146128ba578063095ea7b3146127d35780630e88e55b1461272a5780630f55415b1461254c578063126dbe431461248557806314c44e09146124675780631955cf81146120bd5780631d2e4afd14611d7657806323b872dd14611d5f57806324600fc314611cd7578063248a9ca314611ca85780632d7788db14611c045780632f2ff15d14611bc557806336568abe14611b7e57806342842e0e14611b505780636352211e14611b2057806370a0823114611ac757806381d12c5814611971578063860c226b146117c95780638e1e87321461145457806391d148541461140757806395d89b41146113285780639d36ab6c14611124578063a217fddf14611108578063a22cb46514611063578063a87430ba14610fc3578063b88d4fde14610f58578063bcc36cff14610dd5578063be47e02814610d9a578063c87b56dd14610d3d578063d538d7c814610515578063d547741f146104d4578063e985e9c51461047e578063f68e9553146104435763fb1a002a146101b657600080fd5b3461043e57600036600319011261043e57600b546101d3816133ef565b6101e06040519182612af8565b818152601f196101ef836133ef565b0160005b8181106103bc575050600191825b8181111561035e578284604051918291602090818401828552835180915260408501928060408360051b8801019501936000905b8382106102425787870388f35b918496819592949698508190603f198b82030185528951908151815260018060a01b0391828482015116848301526102e16102ce6102bb6102a861029560408601516101e08060408a0152880190612a3a565b6060808701519088830390890152612a3a565b6080808601519087830390880152612a3a565b60a0808501519086830390870152612a3a565b60c0808401519085830390860152612a3a565b9260e08201516102f081612c9e565b60e0840152610100808301519061030682612c9e565b84015261012080830151908401526101408083015190840152610160808301519084015261018080830151908401526101a0908183015116908301526101c08091015191015298019201920187969593919492610235565b80600052600c6020526040600020906000198101918183116103a6576103a19261038a61039b92613430565b6103948288613406565b5285613406565b50613385565b610201565b634e487b7160e01b600052601160045260246000fd5b6020906040516103cb81612aa6565b6000815282600081830152606080604084015280808401528060808401528060a084015260c0830152600060e08301526000610100830152600061012083015260006101408301526000610160830152600061018083015260006101a083015260006101c08301528286010152016101f3565b600080fd5b3461043e57600036600319011261043e5760206040517fedcc084d3dcd65a1f7f23c65c46722faca6953d28e43150a467cf43e5c3092388152f35b3461043e57604036600319011261043e57610497612a7a565b61049f612a90565b9060018060a01b03809116600052600560205260406000209116600052602052602060ff604060002054166040519015158152f35b3461043e57604036600319011261043e576105136004356104f3612a90565b9080600052600760205261050e600160406000200154612d1a565b612f1c565b005b60a036600319011261043e576004356001600160401b03811161043e57610540903690600401612b6b565b6024356001600160401b03811161043e5761055f903690600401612b6b565b6044356001600160401b03811161043e5761057e903690600401612b6b565b6064356001600160401b03811161043e5761059d903690600401612b6b565b6084356001600160401b03811161043e576105bc903690600401612b6b565b916105c5613394565b600a543410610d0a576105d9600b54613385565b9384600b55604051956105eb87612aa6565b85875233602088015260408701526060860152608085015260a084015260c0830152600060e08301526000610100830152600061012083015260006101408301526000610160830152600061018083015260006101a0830152426101c0830152600052600c6020526040600020908051825560018060a01b036020820151166001600160601b0360a01b60018401541617600183015560408101519182516001600160401b0381116109f4576106a46002830154612bbe565b601f8111610cc3575b506020601f8211600114610c555781929394600092610c4a575b50508160011b916000199060031b1c19161760028201555b60608201519182516001600160401b0381116109f4576107026003840154612bbe565b601f8111610c03575b506020601f8211600114610b955781929394600092610b8a575b50508160011b916000199060031b1c19161760038301555b60808101519182516001600160401b0381116109f4576107606004830154612bbe565b601f8111610b43575b506020601f8211600114610ad55781929394600092610aca575b50508160011b916000199060031b1c19161760048201555b60a08201519182516001600160401b0381116109f4576107be6005840154612bbe565b601f8111610a83575b506020601f8211600114610a155781929394600092610a0a575b50508160011b916000199060031b1c19161760058301555b60c08101518051906001600160401b0382116109f45761081c6006850154612bbe565b601f81116109ad575b50602090601f8311600114610937579180600d94926101c09460009261092c575b50508160011b916000199060031b1c19161760068501555b6007840160e082015161087081612c9e565b61087981612c9e565b815460ff61ff0061010086015161088f81612c9e565b61089881612c9e565b60081b1692169061ffff19161717905561012081015160088501556101408101516009850155610160810151600a850155610180810151600b850155600c840160018060a01b036101a0830151166001600160601b0360a01b825416179055015191015533600b547f67da995c6df7166078290dae7ac4f9c90eeb269d051c434663949b26f04dba1d600080a36001600855005b015190508680610846565b906006850160005260206000209160005b601f1985168110610995575092600d94926001926101c09583601f1981161061097c575b505050811b01600685015561085e565b015160001960f88460031b161c1916905586808061096c565b91926020600181928685015181550194019201610948565b600685016000526020600020601f840160051c8101602085106109ed575b601f830160051c820181106109e1575050610825565b600081556001016109cb565b50806109cb565b634e487b7160e01b600052604160045260246000fd5b0151905084806107e1565b6005840160005260206000209060005b601f1984168110610a6b5750600193949583601f19811610610a52575b505050811b0160058301556107f9565b015160001960f88460031b161c19169055848080610a42565b9091602060018192858a015181550193019101610a25565b600584016000526020600020601f830160051c810160208410610ac3575b601f830160051c82018110610ab75750506107c7565b60008155600101610aa1565b5080610aa1565b015190508480610783565b6004830160005260206000209060005b601f1984168110610b2b5750600193949583601f19811610610b12575b505050811b01600482015561079b565b015160001960f88460031b161c19169055848080610b02565b9091602060018192858a015181550193019101610ae5565b600483016000526020600020601f830160051c810160208410610b83575b601f830160051c82018110610b77575050610769565b60008155600101610b61565b5080610b61565b015190508480610725565b6003840160005260206000209060005b601f1984168110610beb5750600193949583601f19811610610bd2575b505050811b01600383015561073d565b015160001960f88460031b161c19169055848080610bc2565b9091602060018192858a015181550193019101610ba5565b600384016000526020600020601f830160051c810160208410610c43575b601f830160051c82018110610c3757505061070b565b60008155600101610c21565b5080610c21565b0151905084806106c7565b6002830160005260206000209060005b601f1984168110610cab5750600193949583601f19811610610c92575b505050811b0160028201556106df565b015160001960f88460031b161c19169055848080610c82565b9091602060018192858a015181550193019101610c65565b600283016000526020600020601f830160051c810160208410610d03575b601f830160051c82018110610cf75750506106ad565b60008155600101610ce1565b5080610ce1565b60405162461bcd60e51b815260206004820152600b60248201526a46656520746f6f206c6f7760a81b6044820152606490fd5b3461043e57602036600319011261043e57600435610d5a816131df565b506000526006602052610d96610d736040600020612bf8565b6000604051610d8181612add565b52604051918291602083526020830190612a3a565b0390f35b3461043e57600036600319011261043e5760206040517f2876b6444ca73956040d49b0d48b2a7c03b6b34daa638a812177f0309da79c7e8152f35b3461043e57606036600319011261043e57600435602435610df5826131df565b6001600160a01b039190610e0c90831633146133b7565b82600052600c602092818452600360ff60076040600020015460081c16610e3281612c9e565b149081610f3e575b50610ed5575b916080916000600b7f3cf0e429eb8478e2532bd6678f8f3cb5c7156d3cc200512c051c25844747fa139587835280855260408320906007820161020061ff0019825416179055846009830155604435600a83015583600883015581016001600160601b0360a01b8154169055015560405191604083526009604084015268466f72204c6561736560b81b6060840152820152a2005b83600052808352600b604060002001544211610e405760405162461bcd60e51b815260048101849052602560248201527f43616e6e6f742072652d6c6973743a2054656e616e742074696d65206e6f74206044820152646f7665722160d81b6064820152608490fd5b905084600052818452816040600020015416151585610e3a565b3461043e57608036600319011261043e57610f71612a7a565b610f79612a90565b90604435606435926001600160401b03841161043e573660238501121561043e57610fb1610513943690602481600401359101612b34565b92610fbd838383612f93565b3361321a565b3461043e57602036600319011261043e576001600160a01b03610fe4612a7a565b16600052600960205261103b6040600020610ffe81612bf8565b9061105761100e60018301612bf8565b9161104960ff600361102260028501612bf8565b9301541693604051968796608088526080880190612a3a565b908682036020880152612a3a565b908482036040860152612a3a565b90151560608301520390f35b3461043e57604036600319011261043e5761107c612a7a565b6024359081151580920361043e576001600160a01b03169081156110ef57336000526005602052604060002082600052602052604060002060ff1981541660ff83161790556040519081527f17307eab39ab6107e8899845ad3d59bd9653f200f220920489ca2b5937696c3160203392a3005b604051630b61174360e31b815260048101839052602490fd5b3461043e57600036600319011261043e57602060405160008152f35b60208060031936011261043e576004359061113d613394565b81600052600c81526040600020611153836131df565b916007820192600260ff855460081c1661116c81612c9e565b036112f357600983015434106112ba576001600160a01b0390811633811461128357600c84019182541661123e575b60008080809381903415611234575b3491f11561122857336001600160601b0360a01b825416179055600a820154804201938442116103a6577fe6aef257b8c2e2f01587b7dbe07bc085f3ee5a15cea0fa649e83e987e3404e6c94600b608095015561030061ff001982541617905560405191338352820152346040820152426060820152a26001600855005b6040513d6000823e3d90fd5b6108fc91506111aa565b600b840154421161119b5760405162461bcd60e51b815260048101849052601260248201527150726f7065727479204f636375706965642160701b6044820152606490fd5b60405162461bcd60e51b815260048101849052600f60248201526e13dddb995c8818d85b9d081c995b9d608a1b6044820152606490fd5b60405162461bcd60e51b8152600481018390526011602482015270125b9cdd59999a58da595b9d0814995b9d607a1b6044820152606490fd5b60405162461bcd60e51b815260048101839052600d60248201526c4e6f7420666f72206c6561736560981b6044820152606490fd5b3461043e57600036600319011261043e576040516000600180549061134c82612bbe565b808552918181169081156113e05750600114611387575b610d968461137381860382612af8565b604051918291602083526020830190612a3a565b600081815292507fb10e2d527612073b26eecdfd717e6a320cf44b4afac2b0732d9fcbe2b7fa0cf65b8284106113c857505050810160200161137382611363565b805460208587018101919091529093019281016113b0565b60ff191660208087019190915292151560051b850190920192506113739150839050611363565b3461043e57604036600319011261043e57611420612a90565b600435600052600760205260406000209060018060a01b0316600052602052602060ff604060002054166040519015158152f35b3461043e5760208060031936011261043e5761146e612cbe565b600435600052600c8152604060002060078101600260ff198254161790556001918282019160018060a01b03918284541682546040516114ad81612add565b6000815282156117b057856114c28385613123565b1661179757823b61166f575b50505081546114df60038401612bf8565b9581600052600683526040600020908751976001600160401b0389116109f4576115098354612bbe565b601f8111611626575b508490601f8a116001146115a25798809281927ff8e1a15aba9398e019f0b49df1a4fde98ee17ae345cb5f6b5e2c27f5033e8ce798999a9b600094611597575b50501b916000199060031b1c19161790555b604051908152a154915416907fbb34aa4710e9aece41642e442b49b5b8aff84ba0def93849797c2f15398aab23600080a3005b015192508b80611552565b9890601f1982169084600052866000209160005b81811061161157509a837ff8e1a15aba9398e019f0b49df1a4fde98ee17ae345cb5f6b5e2c27f5033e8ce7999a9b9c106115f8575b505050811b019055611564565b015160001960f88460031b161c191690558980806115eb565b8c8301518455928501929188019188016115b6565b8360005285600020601f8b0160051c810191878c10611665575b601f0160051c019083905b828110611659575050611512565b6000815501839061164b565b9091508190611640565b836116b291604099979599989694985180938192630a85bd0160e11b96878452336004850152600060248501526044840152608060648401526084830190612a3a565b038160008b5af160009181611757575b506117205787873d15611718573d916116da83612b19565b926116e86040519485612af8565b83523d60008285013e5b8251928361171357604051633250574960e11b815260048101849052602490fd5b019050fd5b6060916116f2565b63ffffffff60e098949698979395971b160361173f57508580806114ce565b60249060405190633250574960e11b82526004820152fd5b9091508881813d8311611790575b61176f8183612af8565b8101031261043e57516001600160e01b03198116810361043e5790896116c2565b503d611765565b6040516339e3563760e11b815260006004820152602490fd5b604051633250574960e11b815260006004820152602490fd5b3461043e5760208060031936011261043e57600435906117e8826131df565b6001600160a01b039033908216036119335782600052600c90818352600360ff60076040600020015460081c1661181e81612c9e565b149081611919575b506118be575b7f3cf0e429eb8478e2532bd6678f8f3cb5c7156d3cc200512c051c25844747fa13916080918460005280825260406000206007810161ff0019815416905560006008820155600060098201556000600a8201556000600b820155016001600160601b0360a01b81541690556000604051916040835260076040840152665072697661746560c81b6060840152820152a2005b82600052808252600b60406000200154421161182c5760405162461bcd60e51b815260048101839052601f60248201527f43616e6e6f7420756e6c6973743a204c656173652069732061637469766521006044820152606490fd5b905083600052818352816040600020015416151584611826565b60405162461bcd60e51b81526004810183905260166024820152754f6e6c79204f776e65722063616e20756e6c6973742160501b6044820152606490fd5b3461043e57602036600319011261043e576004356000908152600c60205260409020805460018201546001600160a01b03908116926119b260028201612bf8565b906119bf60038201612bf8565b926119cc60048301612bf8565b936119d960058401612bf8565b946119e660068501612bf8565b95600785015496600886015491600987015493600a88015495600b89015497600c8a01541698600d0154996040519d8e809e8152602001528c6101e06040819201528d01611a3391612a3a565b8c810360608e0152611a4491612a3a565b8b810360808d0152611a5591612a3a565b8a810360a08c0152611a6691612a3a565b89810360c08b0152611a7791612a3a565b9660ff8116611a8581612c9e565b60e08a015260081c60ff16611a9981612c9e565b6101008901526101208801526101408701526101608601526101808501526101a08401526101c08301520390f35b3461043e57602036600319011261043e576001600160a01b03611ae8612a7a565b168015611b075760005260036020526020604060002054604051908152f35b6040516322718ad960e21b815260006004820152602490fd5b3461043e57602036600319011261043e576020611b3e6004356131df565b6040516001600160a01b039091168152f35b3461043e57610513611b6136612b89565b9060405192611b6f84612add565b60008452610fbd838383612f93565b3461043e57604036600319011261043e57611b97612a90565b336001600160a01b03821603611bb35761051390600435612f1c565b60405163334bd91960e11b8152600490fd5b3461043e57604036600319011261043e57610513600435611be4612a90565b90806000526007602052611bff600160406000200154612d1a565b612ea1565b3461043e57602036600319011261043e57600435611c20612cbe565b80600052600c602052600260ff60076040600020015416611c4081612c9e565b14611c63576000908152600c60205260409020600701805460ff19166003179055005b60405162461bcd60e51b815260206004820152601f60248201527f43616e6e6f742072656a65637420617070726f7665642070726f7065727479006044820152606490fd5b3461043e57602036600319011261043e5760043560005260076020526020600160406000200154604051908152f35b3461043e57600036600319011261043e573360009081527f6d5257204ebe7d88fd91ae87941cb2dd9d8062b64ae5a2bd2d28ec40b9fbf6df602052604090205460ff1615611d4057600080808047818115611d37575b3390f11561122857005b506108fc611d2d565b60405163e2517d3f60e01b815233600482015260006024820152604490fd5b3461043e57610513611d7036612b89565b91612f93565b3461043e57604036600319011261043e576001600160401b0360043581811161043e57611da7903690600401612b6b565b60243582811161043e57611dbf903690600401612b6b565b90336000526020916009835260ff6003604060002001541661206e5781517fa78e49ef41478ad2ab23f4faa913f2dca7351bc697dcd6bb0cd3fd6ea3c8db8a8484019182206729aaa92b22aca7a960c11b86604051611e1d81612ac2565b60088152015203611fb857507f2aee43caeceba709dea2937ae43e888d333dde67ea763228a69d7c9e25ac60778184611e7a93519101206853555256455931323360b81b85604051611e6e81612ac2565b6009815201521461334a565b611e8333612df3565b505b336000526009825260026040600020019080519384116109f457611ea98254612bbe565b601f8111611f72575b508290601f8511600114611f0a576009949160009183611eff575b50508160011b916000199060031b1c19161790555b33600052526003604060002001600160ff19825416179055600080f35b015190508580611ecd565b90601f1985169183600052846000209260005b818110611f5b57509160019391876009989410611f42575b505050811b019055611ee2565b015160001960f88460031b161c19169055858080611f35565b929386600181928786015181550195019301611f1d565b8260005283600020601f860160051c810191858710611fae575b601f0160051c01905b818110611fa25750611eb2565b60008155600101611f95565b9091508190611f8c565b7fd6b769dbdbf190871759edfb79bd17eda0005e1b8c3b6b3f5b480b5604ad50149083519020682922a3a4a9aa2920a960b91b85604051611ff881612ac2565b6009815201521461200a575b50611e85565b7feeec48380e9542e5defda8821480f34e4a6e8ea26cddf01dd26478e676cc3a38818461205e93519101206b52454749535452415231323360a01b8560405161205281612ac2565b600c815201521461334a565b61206733612d40565b5083612004565b60405162461bcd60e51b815260048101849052602160248201527f416c72656164792072656769737465726564206f6e20426c6f636b636861696e6044820152602160f81b6064820152608490fd5b604036600319011261043e5760246004356001600160401b03823581811161043e576120ed903690600401612b6b565b6120f5613394565b826000526020600c815260406000209161210e856131df565b92600781019160ff835460081c169561212687612c9e565b600180970361243457600883019182543410612402576001600160a01b0387811697903389146123cd57600034156123c4575b6000808080938d3491f1156112285733156123ac576121788b33613123565b9081168061219857604051637e27328960e01b8152600481018d90528d90fd5b98809a9c95969798990361237c57505060028501928151928311612368575089906121c38454612bbe565b601f811161231f575b508790601f841160011461228b5793838060809a98956000957ff17ae70939d4cf0fffcec7ff83a385ce9409eec6273301c19c391c703d40364d9d9b9995600c998894612280575b50501b9185199060031b1c19161790555b8a8301946001600160601b0360a01b95338782541617905561ff0019815416905555600060098201556000600a8201556000600b820155019081541690556040519182523390820152346040820152426060820152a2600855005b015192503880612214565b90601f9392931983169185600052896000209260005b8181106123085750937ff17ae70939d4cf0fffcec7ff83a385ce9409eec6273301c19c391c703d40364d9b999793600c979360809c9a979383600098106122f0575b505050811b019055612225565b0151861960f88460031b161c191690558e80806122e3565b8284015185558e9690940193928b01928b016122a1565b8460005288600020601f850160051c8101918a861061235e575b601f0160051c019083905b8281106123525750506121cc565b60008155018390612344565b9091508190612339565b634e487b7160e01b60009081526041600452fd5b6040516364283d7b60e01b81526001600160a01b039283166004820152602481018c905291166044820152606490fd5b604051633250574960e11b8152600060048201528c90fd5b506108fc612159565b60405162461bcd60e51b815260048101899052600e818e01526d21b0b73737ba10313abc9037bbb760911b6044820152606490fd5b60405162461bcd60e51b815260048101879052600b818c01526a4c6f772042616c616e636560a81b6044820152606490fd5b60405162461bcd60e51b815260048101869052600c818b01526b4e6f7420666f722073616c6560a01b6044820152606490fd5b3461043e57600036600319011261043e576020600a54604051908152f35b3461043e57602036600319011261043e5760043580600052600c6020526124b86124b26040600020613430565b916131df565b81519060408301519260a08101519160c08201519060018060a01b0393846101a0850151161515938461253b575b50906125219161252f949561250d604051998a998a5260c060208b015260c08a0190612a3a565b921660408801528682036060880152612a3a565b908482036080860152612a3a565b90151560a08301520390f35b6101800151421093506125216124e6565b3461043e57604036600319011261043e5760043560243561256c826131df565b6001600160a01b03919061258390831633146133b7565b82600052600c602092818452600260ff600760406000200154166125a681612c9e565b036126f85784600052818452600360ff60076040600020015460081c166125cc81612c9e565b1490816126de575b5061266f575b916080917f3cf0e429eb8478e2532bd6678f8f3cb5c7156d3cc200512c051c25844747fa13938560005280835260406000206007810161010061ff0019825416179055826008820155600060098201556000600a8201556000600b820155016001600160601b0360a01b815416905560405191604083526008604084015267466f722053616c6560c01b6060840152820152a2005b83600052808352600b6040600020015442116125da5760405162461bcd60e51b815260048101849052602b60248201527f43616e6e6f74206c69737420666f722073616c653a2054656e616e742074696d60448201526a65206e6f74206f7665722160a81b6064820152608490fd5b9050846000528184528160406000200154161515856125d4565b606484836040519162461bcd60e51b8352600483015260248201526b139bdd08105c1c1c9bdd995960a21b6044820152fd5b3461043e57602036600319011261043e573360009081527f88dc988953ac3783e42f15664720d42b06bb81b884417b7c7bc8e77b0a720db660205260409020547f2876b6444ca73956040d49b0d48b2a7c03b6b34daa638a812177f0309da79c7e9060ff16156127b5576004356000908152600c60205260409020600701805460ff19166001179055005b6044906040519063e2517d3f60e01b82523360048301526024820152fd5b3461043e57604036600319011261043e576127ec612a7a565b6024356127f8816131df565b331515806128a7575b8061287a575b612862576001600160a01b039283169282918491167f8c5be1e5ebec7d5bd14f71427d1e84f3dd0314c0f7b2291e5b200ac8c7c3b925600080a4600090815260046020526040902080546001600160a01b0319169091179055005b60405163a9fbf51f60e01b8152336004820152602490fd5b5060018060a01b038116600052600560205260406000203360005260205260ff6040600020541615612807565b506001600160a01b038116331415612801565b3461043e57602036600319011261043e576004356128d7816131df565b506000526004602052602060018060a01b0360406000205416604051908152f35b3461043e57600036600319011261043e576040516000805461291981612bbe565b808452906001908181169081156113e0575060011461294257610d968461137381860382612af8565b600080805292507f290decd9548b62a8d60345a988386fc84ba6bc95484008f6362f93160ef3e5635b82841061298357505050810160200161137382611363565b8054602085870181019190915290930192810161296b565b3461043e57602036600319011261043e576004359063ffffffff60e01b821680920361043e57602091637965db0b60e01b81149081156129dd575b5015158152f35b632483248360e11b8114915081156129f7575b50836129d6565b6380ac58cd60e01b811491508115612a29575b8115612a18575b50836129f0565b6301ffc9a760e01b14905083612a11565b635b5e139f60e01b81149150612a0a565b919082519283825260005b848110612a66575050826000602080949584010152601f8019910116010190565b602081830181015184830182015201612a45565b600435906001600160a01b038216820361043e57565b602435906001600160a01b038216820361043e57565b6101e081019081106001600160401b038211176109f457604052565b604081019081106001600160401b038211176109f457604052565b602081019081106001600160401b038211176109f457604052565b90601f801991011681019081106001600160401b038211176109f457604052565b6001600160401b0381116109f457601f01601f191660200190565b929192612b4082612b19565b91612b4e6040519384612af8565b82948184528183011161043e578281602093846000960137010152565b9080601f8301121561043e57816020612b8693359101612b34565b90565b606090600319011261043e576001600160a01b0390600435828116810361043e5791602435908116810361043e579060443590565b90600182811c92168015612bee575b6020831014612bd857565b634e487b7160e01b600052602260045260246000fd5b91607f1691612bcd565b9060405191826000825492612c0c84612bbe565b908184526001948581169081600014612c7b5750600114612c38575b5050612c3692500383612af8565b565b9093915060005260209081600020936000915b818310612c63575050612c3693508201013880612c28565b85548884018501529485019487945091830191612c4b565b915050612c3694506020925060ff191682840152151560051b8201013880612c28565b60041115612ca857565b634e487b7160e01b600052602160045260246000fd5b3360009081527fff6db987cc3eb6bb5dcc88dfdb614854cfd71c221fb0d830bd28f7ba6e802ead60205260409020547fedcc084d3dcd65a1f7f23c65c46722faca6953d28e43150a467cf43e5c3092389060ff16156127b55750565b80600052600760205260406000203360005260205260ff60406000205416156127b55750565b6001600160a01b031660008181527fff6db987cc3eb6bb5dcc88dfdb614854cfd71c221fb0d830bd28f7ba6e802ead60205260408120549091907fedcc084d3dcd65a1f7f23c65c46722faca6953d28e43150a467cf43e5c3092389060ff16612dee5780835260076020526040832082845260205260408320600160ff198254161790557f2f8788117e7eff1d82e926ec794901d17c78024a50270940304540a733656f0d339380a4600190565b505090565b6001600160a01b031660008181527f88dc988953ac3783e42f15664720d42b06bb81b884417b7c7bc8e77b0a720db660205260408120549091907f2876b6444ca73956040d49b0d48b2a7c03b6b34daa638a812177f0309da79c7e9060ff16612dee5780835260076020526040832082845260205260408320600160ff198254161790557f2f8788117e7eff1d82e926ec794901d17c78024a50270940304540a733656f0d339380a4600190565b906000918083526007602052604083209160018060a01b03169182845260205260ff60408420541615600014612dee5780835260076020526040832082845260205260408320600160ff198254161790557f2f8788117e7eff1d82e926ec794901d17c78024a50270940304540a733656f0d339380a4600190565b906000918083526007602052604083209160018060a01b03169182845260205260ff604084205416600014612dee578083526007602052604083208284526020526040832060ff1981541690557ff6391f5c32d9c69d2a47ea670b442974b53935d1edc7fd64eb21e047a839171b339380a4600190565b906001600160a01b0390811680156117b05760009184835284602092600284526040938385872054169586913315158061308d575b509060027fddf252ad1be2c89b69c2b068fc378daa952ba7f163c4a11628f55a4df523b3ef928461305a575b85835260038152888320805460010190558683525286812080546001600160a01b0319168517905580a48316820361302c5750505050565b516364283d7b60e01b81526001600160a01b0392831660048201526024810193909352166044820152606490fd5b600087815260046020526040902080546001600160a01b0319169055848352600381528883208054600019019055612ff4565b919394509150806130e2575b156130a957879291869138612fc8565b8488876130c6576024915190637e27328960e01b82526004820152fd5b604491519063177e802f60e01b82523360048301526024820152fd5b503386148015613107575b806130995750878252600481523384868420541614613099565b5085825260058152848220338352815260ff85832054166130ed565b6000828152600260205260408120546001600160a01b03908116939284917fddf252ad1be2c89b69c2b068fc378daa952ba7f163c4a11628f55a4df523b3ef91836131aa575b169283613192575b84815260026020526040812080546001600160a01b0319168517905580a490565b83815260036020526040812060018154019055613171565b600086815260046020526040902080546001600160a01b03191690558385526003602052604085208054600019019055613169565b6000818152600260205260409020546001600160a01b0316908115613202575090565b60249060405190637e27328960e01b82526004820152fd5b90939192833b61322c575b5050505050565b604051630a85bd0160e11b8082526001600160a01b039384166004830152958316602482015260448101919091526080606482015294921692602092918590613279906084830190612a3a565b039483816000978189895af1869181613306575b506132e8575050503d6000146132df573d6132a781612b19565b906132b56040519283612af8565b81528093823d92013e8251928361171357604051633250574960e11b815260048101849052602490fd5b606092506116f2565b919450915063ffffffff60e01b160361173f57503880808080613225565b9091508481813d8311613343575b61331e8183612af8565b8101031261333f57516001600160e01b03198116810361333f57903861328d565b8680fd5b503d613314565b1561335157565b60405162461bcd60e51b815260206004820152600c60248201526b496e76616c696420436f646560a01b6044820152606490fd5b60001981146103a65760010190565b6002600854146133a5576002600855565b604051633ee5aeb560e01b8152600490fd5b156133be57565b60405162461bcd60e51b81526020600482015260096024820152682737ba1027bbb732b960b91b6044820152606490fd5b6001600160401b0381116109f45760051b60200190565b805182101561341a5760209160051b010190565b634e487b7160e01b600052603260045260246000fd5b9060405161343d81612aa6565b6101c0600d82948054845260018060a01b0380600183015416602086015261346760028301612bf8565b604086015261347860038301612bf8565b606086015261348960048301612bf8565b608086015261349a60058301612bf8565b60a08601526134ab60068301612bf8565b60c086015260ff60078301548181166134c381612c9e565b60e088015260081c166134d581612c9e565b61010086015260088201546101208601526009820154610140860152600a820154610160860152600b820154610180860152600c820154166101a0850152015491015256fea2646970667358221220ce28a32a555969e081c450785363ee860d3ab641140f277b8dc7fdfea0f968a064736f6c63430008140033",
  "linkReferences": {},
  "deployedLinkReferences": {}
}