{
  "_format": "hh-sol-artifact-1",
  "contractName": "PropertyRegistry",
  "sourceName": "contracts/PropertyRegistry.sol",
  "abi": [
    {
      "inputs": [],
      "stateMutability": "nonpayable",
      "type": "constructor"
    },
    {
      "inputs": [],
      "name": "AccessControlBadConfirmation",
      "type": "error"
    },
    {
      "inputs": [
        {
          "internalType": "address",
          "name": "account",
          "type": "address"
        },
        {
          "internalType": "bytes32",
          "name": "neededRole",
          "type": "bytes32"
        }
      ],
      "name": "AccessControlUnauthorizedAccount",
      "type": "error"
    },
    {
      "inputs": [
        {
          "internalType": "address",
          "name": "sender",
          "type": "address"
        },
        {
          "internalType": "uint256",
          "name": "tokenId",
          "type": "uint256"
        },
        {
          "internalType": "address",
          "name": "owner",
          "type": "address"
        }
      ],
      "name": "ERC721IncorrectOwner",
      "type": "error"
    },
    {
      "inputs": [
        {
          "internalType": "address",
          "name": "operator",
          "type": "address"
        },
        {
          "internalType": "uint256",
          "name": "tokenId",
          "type": "uint256"
        }
      ],
      "name": "ERC721InsufficientApproval",
      "type": "error"
    },
    {
      "inputs": [
        {
          "internalType": "address",
          "name": "approver",
          "type": "address"
        }
      ],
      "name": "ERC721InvalidApprover",
      "type": "error"
    },
    {
      "inputs": [
        {
          "internalType": "address",
          "name": "operator",
          "type": "address"
        }
      ],
      "name": "ERC721InvalidOperator",
      "type": "error"
    },
    {
      "inputs": [
        {
          "internalType": "address",
          "name": "owner",
          "type": "address"
        }
      ],
      "name": "ERC721InvalidOwner",
      "type": "error"
    },
    {
      "inputs": [
        {
          "internalType": "address",
          "name": "receiver",
          "type": "address"
        }
      ],
      "name": "ERC721InvalidReceiver",
      "type": "error"
    },
    {
      "inputs": [
        {
          "internalType": "address",
          "name": "sender",
          "type": "address"
        }
      ],
      "name": "ERC721InvalidSender",
      "type": "error"
    },
    {
      "inputs": [
        {
          "internalType": "uint256",
          "name": "tokenId",
          "type": "uint256"
        }
      ],
      "name": "ERC721NonexistentToken",
      "type": "error"
    },
    {
      "inputs": [],
      "name": "ReentrancyGuardReentrantCall",
      "type": "error"
    },
    {
      "anonymous": false,
      "inputs": [
        {
          "indexed": true,
          "internalType": "address",
          "name": "owner",
          "type": "address"
        },
        {
          "indexed": true,
          "internalType": "address",
          "name": "approved",
          "type": "address"
        },
        {
          "indexed": true,
          "internalType": "uint256",
          "name": "tokenId",
          "type": "uint256"
        }
      ],
      "name": "Approval",
      "type": "event"
    },
    {
      "anonymous": false,
      "inputs": [
        {
          "indexed": true,
          "internalType": "address",
          "name": "owner",
          "type": "address"
        },
        {
          "indexed": true,
          "internalType": "address",
          "name": "operator",
          "type": "address"
        },
        {
          "indexed": false,
          "internalType": "bool",
          "name": "approved",
          "type": "bool"
        }
      ],
      "name": "ApprovalForAll",
      "type": "event"
    },
    {
      "anonymous": false,
      "inputs": [
        {
          "indexed": false,
          "internalType": "uint256",
          "name": "_fromTokenId",
          "type": "uint256"
        },
        {
          "indexed": false,
          "internalType": "uint256",
          "name": "_toTokenId",
          "type": "uint256"
        }
      ],
      "name": "BatchMetadataUpdate",
      "type": "event"
    },
    {
      "anonymous": false,
      "inputs": [
        {
          "indexed": true,
          "internalType": "address",
          "name": "user",
          "type": "address"
        },
        {
          "indexed": true,
          "internalType": "bytes32",
          "name": "identityHash",
          "type": "bytes32"
        }
      ],
      "name": "IdentityLinked",
      "type": "event"
    },
    {
      "anonymous": false,
      "inputs": [
        {
          "indexed": false,
          "internalType": "uint256",
          "name": "_tokenId",
          "type": "uint256"
        }
      ],
      "name": "MetadataUpdate",
      "type": "event"
    },
    {
      "anonymous": false,
      "inputs": [
        {
          "indexed": true,
          "internalType": "uint256",
          "name": "tokenId",
          "type": "uint256"
        },
        {
          "indexed": true,
          "internalType": "address",
          "name": "owner",
          "type": "address"
        }
      ],
      "name": "PropertyMinted",
      "type": "event"
    },
    {
      "anonymous": false,
      "inputs": [
        {
          "indexed": true,
          "internalType": "uint256",
          "name": "tokenId",
          "type": "uint256"
        },
        {
          "indexed": false,
          "internalType": "address",
          "name": "tenant",
          "type": "address"
        },
        {
          "indexed": false,
          "internalType": "uint256",
          "name": "duration",
          "type": "uint256"
        },
        {
          "indexed": false,
          "internalType": "uint256",
          "name": "price",
          "type": "uint256"
        },
        {
          "indexed": false,
          "internalType": "uint256",
          "name": "timestamp",
          "type": "uint256"
        }
      ],
      "name": "PropertyRented",
      "type": "event"
    },
    {
      "anonymous": false,
      "inputs": [
        {
          "indexed": true,
          "internalType": "uint256",
          "name": "tokenId",
          "type": "uint256"
        },
        {
          "indexed": false,
          "internalType": "address",
          "name": "from",
          "type": "address"
        },
        {
          "indexed": false,
          "internalType": "address",
          "name": "to",
          "type": "address"
        },
        {
          "indexed": false,
          "internalType": "uint256",
          "name": "price",
          "type": "uint256"
        },
        {
          "indexed": false,
          "internalType": "uint256",
          "name": "timestamp",
          "type": "uint256"
        }
      ],
      "name": "PropertySold",
      "type": "event"
    },
    {
      "anonymous": false,
      "inputs": [
        {
          "indexed": true,
          "internalType": "uint256",
          "name": "tokenId",
          "type": "uint256"
        },
        {
          "indexed": false,
          "internalType": "string",
          "name": "newStatus",
          "type": "string"
        },
        {
          "indexed": false,
          "internalType": "uint256",
          "name": "price",
          "type": "uint256"
        }
      ],
      "name": "PropertyStatusChanged",
      "type": "event"
    },
    {
      "anonymous": false,
      "inputs": [
        {
          "indexed": true,
          "internalType": "uint256",
          "name": "requestId",
          "type": "uint256"
        },
        {
          "indexed": true,
          "internalType": "address",
          "name": "user",
          "type": "address"
        }
      ],
      "name": "RequestSubmitted",
      "type": "event"
    },
    {
      "anonymous": false,
      "inputs": [
        {
          "indexed": true,
          "internalType": "bytes32",
          "name": "role",
          "type": "bytes32"
        },
        {
          "indexed": true,
          "internalType": "bytes32",
          "name": "previousAdminRole",
          "type": "bytes32"
        },
        {
          "indexed": true,
          "internalType": "bytes32",
          "name": "newAdminRole",
          "type": "bytes32"
        }
      ],
      "name": "RoleAdminChanged",
      "type": "event"
    },
    {
      "anonymous": false,
      "inputs": [
        {
          "indexed": true,
          "internalType": "bytes32",
          "name": "role",
          "type": "bytes32"
        },
        {
          "indexed": true,
          "internalType": "address",
          "name": "account",
          "type": "address"
        },
        {
          "indexed": true,
          "internalType": "address",
          "name": "sender",
          "type": "address"
        }
      ],
      "name": "RoleGranted",
      "type": "event"
    },
    {
      "anonymous": false,
      "inputs": [
        {
          "indexed": true,
          "internalType": "bytes32",
          "name": "role",
          "type": "bytes32"
        },
        {
          "indexed": true,
          "internalType": "address",
          "name": "account",
          "type": "address"
        },
        {
          "indexed": true,
          "internalType": "address",
          "name": "sender",
          "type": "address"
        }
      ],
      "name": "RoleRevoked",
      "type": "event"
    },
    {
      "anonymous": false,
      "inputs": [
        {
          "indexed": true,
          "internalType": "uint256",
          "name": "requestId",
          "type": "uint256"
        },
        {
          "indexed": false,
          "internalType": "enum PropertyRegistry.Status",
          "name": "newStatus",
          "type": "uint8"
        }
      ],
      "name": "StatusUpdated",
      "type": "event"
    },
    {
      "anonymous": false,
      "inputs": [
        {
          "indexed": true,
          "internalType": "address",
          "name": "from",
          "type": "address"
        },
        {
          "indexed": true,
          "internalType": "address",
          "name": "to",
          "type": "address"
        },
        {
          "indexed": true,
          "internalType": "uint256",
          "name": "tokenId",
          "type": "uint256"
        }
      ],
      "name": "Transfer",
      "type": "event"
    },
    {
      "inputs": [],
      "name": "DEFAULT_ADMIN_ROLE",
      "outputs": [
        {
          "internalType": "bytes32",
          "name": "",
          "type": "bytes32"
        }
      ],
      "stateMutability": "view",
      "type": "function"
    },
    {
      "inputs": [],
      "name": "GOVT_OFFICER_ROLE",
      "outputs": [
        {
          "internalType": "bytes32",
          "name": "",
          "type": "bytes32"
        }
      ],
      "stateMutability": "view",
      "type": "function"
    },
    {
      "inputs": [],
      "name": "REGISTRAR_ROLE",
      "outputs": [
        {
          "internalType": "bytes32",
          "name": "",
          "type": "bytes32"
        }
      ],
      "stateMutability": "view",
      "type": "function"
    },
    {
      "inputs": [],
      "name": "SURVEYOR_ROLE",
      "outputs": [
        {
          "internalType": "bytes32",
          "name": "",
          "type": "bytes32"
        }
      ],
      "stateMutability": "view",
      "type": "function"
    },
    {
      "inputs": [
        {
          "internalType": "address",
          "name": "to",
          "type": "address"
        },
        {
          "internalType": "uint256",
          "name": "tokenId",
          "type": "uint256"
        }
      ],
      "name": "approve",
      "outputs": [],
      "stateMutability": "nonpayable",
      "type": "function"
    },
    {
      "inputs": [
        {
          "internalType": "uint256",
          "name": "_requestId",
          "type": "uint256"
        }
      ],
      "name": "approveAndMint",
      "outputs": [],
      "stateMutability": "nonpayable",
      "type": "function"
    },
    {
      "inputs": [
        {
          "internalType": "address",
          "name": "owner",
          "type": "address"
        }
      ],
      "name": "balanceOf",
      "outputs": [
        {
          "internalType": "uint256",
          "name": "",
          "type": "uint256"
        }
      ],
      "stateMutability": "view",
      "type": "function"
    },
    {
      "inputs": [
        {
          "internalType": "uint256",
          "name": "_tokenId",
          "type": "uint256"
        },
        {
          "internalType": "string",
          "name": "_newOwnerName",
          "type": "string"
        }
      ],
      "name": "buyProperty",
      "outputs": [],
      "stateMutability": "payable",
      "type": "function"
    },
    {
      "inputs": [
        {
          "internalType": "uint256",
          "name": "_requestId",
          "type": "uint256"
        }
      ],
      "name": "completeSurvey",
      "outputs": [],
      "stateMutability": "nonpayable",
      "type": "function"
    },
    {
      "inputs": [],
      "name": "getAllRequests",
      "outputs": [
        {
          "components": [
            {
              "internalType": "uint256",
              "name": "id",
              "type": "uint256"
            },
            {
              "internalType": "address",
              "name": "requester",
              "type": "address"
            },
            {
              "internalType": "string",
              "name": "ownerName",
              "type": "string"
            },
            {
              "internalType": "string",
              "name": "ipfsMetadata",
              "type": "string"
            },
            {
              "internalType": "string",
              "name": "identityRefId",
              "type": "string"
            },
            {
              "internalType": "string",
              "name": "landArea",
              "type": "string"
            },
            {
              "internalType": "string",
              "name": "landLocation",
              "type": "string"
            },
            {
              "internalType": "string",
              "name": "khasraNumber",
              "type": "string"
            },
            {
              "internalType": "enum PropertyRegistry.Status",
              "name": "status",
              "type": "uint8"
            },
            {
              "internalType": "enum PropertyRegistry.SaleStatus",
              "name": "saleStatus",
              "type": "uint8"
            },
            {
              "internalType": "uint256",
              "name": "price",
              "type": "uint256"
            },
            {
              "internalType": "uint256",
              "name": "leasePrice",
              "type": "uint256"
            },
            {
              "internalType": "uint256",
              "name": "leaseDuration",
              "type": "uint256"
            },
            {
              "internalType": "uint256",
              "name": "leaseEndTime",
              "type": "uint256"
            },
            {
              "internalType": "address",
              "name": "tenant",
              "type": "address"
            },
            {
              "internalType": "uint256",
              "name": "requestTime",
              "type": "uint256"
            }
          ],
          "internalType": "struct PropertyRegistry.PropertyRequest[]",
          "name": "",
          "type": "tuple[]"
        }
      ],
      "stateMutability": "view",
      "type": "function"
    },
    {
      "inputs": [
        {
          "internalType": "uint256",
          "name": "tokenId",
          "type": "uint256"
        }
      ],
      "name": "getApproved",
      "outputs": [
        {
          "internalType": "address",
          "name": "",
          "type": "address"
        }
      ],
      "stateMutability": "view",
      "type": "function"
    },
    {
      "inputs": [
        {
          "internalType": "uint256",
          "name": "_tokenId",
          "type": "uint256"
        }
      ],
      "name": "getPropertyDetails",
      "outputs": [
        {
          "internalType": "uint256",
          "name": "id",
          "type": "uint256"
        },
        {
          "internalType": "string",
          "name": "ownerName",
          "type": "string"
        },
        {
          "internalType": "address",
          "name": "ownerWallet",
          "type": "address"
        },
        {
          "internalType": "string",
          "name": "area",
          "type": "string"
        },
        {
          "internalType": "string",
          "name": "location",
          "type": "string"
        },
        {
          "internalType": "bool",
          "name": "isRented",
          "type": "bool"
        }
      ],
      "stateMutability": "view",
      "type": "function"
    },
    {
      "inputs": [
        {
          "internalType": "bytes32",
          "name": "role",
          "type": "bytes32"
        }
      ],
      "name": "getRoleAdmin",
      "outputs": [
        {
          "internalType": "bytes32",
          "name": "",
          "type": "bytes32"
        }
      ],
      "stateMutability": "view",
      "type": "function"
    },
    {
      "inputs": [
        {
          "internalType": "bytes32",
          "name": "role",
          "type": "bytes32"
        },
        {
          "internalType": "address",
          "name": "account",
          "type": "address"
        }
      ],
      "name": "grantRole",
      "outputs": [],
      "stateMutability": "nonpayable",
      "type": "function"
    },
    {
      "inputs": [
        {
          "internalType": "bytes32",
          "name": "role",
          "type": "bytes32"
        },
        {
          "internalType": "address",
          "name": "account",
          "type": "address"
        }
      ],
      "name": "hasRole",
      "outputs": [
        {
          "internalType": "bool",
          "name": "",
          "type": "bool"
        }
      ],
      "stateMutability": "view",
      "type": "function"
    },
    {
      "inputs": [
        {
          "internalType": "bytes32",
          "name": "",
          "type": "bytes32"
        }
      ],
      "name": "identityToWallet",
      "outputs": [
        {
          "internalType": "address",
          "name": "",
          "type": "address"
        }
      ],
      "stateMutability": "view",
      "type": "function"
    },
    {
      "inputs": [
        {
          "internalType": "address",
          "name": "owner",
          "type": "address"
        },
        {
          "internalType": "address",
          "name": "operator",
          "type": "address"
        }
      ],
      "name": "isApprovedForAll",
      "outputs": [
        {
          "internalType": "bool",
          "name": "",
          "type": "bool"
        }
      ],
      "stateMutability": "view",
      "type": "function"
    },
    {
      "inputs": [
        {
          "internalType": "uint256",
          "name": "_tokenId",
          "type": "uint256"
        },
        {
          "internalType": "uint256",
          "name": "_leasePrice",
          "type": "uint256"
        },
        {
          "internalType": "uint256",
          "name": "_durationSeconds",
          "type": "uint256"
        }
      ],
      "name": "listPropertyForLease",
      "outputs": [],
      "stateMutability": "nonpayable",
      "type": "function"
    },
    {
      "inputs": [
        {
          "internalType": "uint256",
          "name": "_tokenId",
          "type": "uint256"
        },
        {
          "internalType": "uint256",
          "name": "_priceInWei",
          "type": "uint256"
        }
      ],
      "name": "listPropertyForSale",
      "outputs": [],
      "stateMutability": "nonpayable",
      "type": "function"
    },
    {
      "inputs": [
        {
          "internalType": "uint256",
          "name": "_tokenId",
          "type": "uint256"
        }
      ],
      "name": "makePropertyPrivate",
      "outputs": [],
      "stateMutability": "nonpayable",
      "type": "function"
    },
    {
      "inputs": [],
      "name": "name",
      "outputs": [
        {
          "internalType": "string",
          "name": "",
          "type": "string"
        }
      ],
      "stateMutability": "view",
      "type": "function"
    },
    {
      "inputs": [
        {
          "internalType": "uint256",
          "name": "tokenId",
          "type": "uint256"
        }
      ],
      "name": "ownerOf",
      "outputs": [
        {
          "internalType": "address",
          "name": "",
          "type": "address"
        }
      ],
      "stateMutability": "view",
      "type": "function"
    },
    {
      "inputs": [
        {
          "internalType": "string",
          "name": "_name",
          "type": "string"
        },
        {
          "internalType": "string",
          "name": "_email",
          "type": "string"
        },
        {
          "internalType": "string",
          "name": "_role",
          "type": "string"
        },
        {
          "internalType": "string",
          "name": "_secretCode",
          "type": "string"
        },
        {
          "internalType": "string",
          "name": "_aadhaarPAN",
          "type": "string"
        }
      ],
      "name": "registerUser",
      "outputs": [],
      "stateMutability": "nonpayable",
      "type": "function"
    },
    {
      "inputs": [],
      "name": "registrationFee",
      "outputs": [
        {
          "internalType": "uint256",
          "name": "",
          "type": "uint256"
        }
      ],
      "stateMutability": "view",
      "type": "function"
    },
    {
      "inputs": [
        {
          "internalType": "uint256",
          "name": "_requestId",
          "type": "uint256"
        }
      ],
      "name": "rejectRequest",
      "outputs": [],
      "stateMutability": "nonpayable",
      "type": "function"
    },
    {
      "inputs": [
        {
          "internalType": "bytes32",
          "name": "role",
          "type": "bytes32"
        },
        {
          "internalType": "address",
          "name": "callerConfirmation",
          "type": "address"
        }
      ],
      "name": "renounceRole",
      "outputs": [],
      "stateMutability": "nonpayable",
      "type": "function"
    },
    {
      "inputs": [
        {
          "internalType": "uint256",
          "name": "_tokenId",
          "type": "uint256"
        }
      ],
      "name": "rentProperty",
      "outputs": [],
      "stateMutability": "payable",
      "type": "function"
    },
    {
      "inputs": [
        {
          "internalType": "string",
          "name": "_ownerName",
          "type": "string"
        },
        {
          "internalType": "string",
          "name": "_ipfsMetadata",
          "type": "string"
        },
        {
          "internalType": "string",
          "name": "_identityRefId",
          "type": "string"
        },
        {
          "internalType": "string",
          "name": "_landArea",
          "type": "string"
        },
        {
          "internalType": "string",
          "name": "_landLocation",
          "type": "string"
        },
        {
          "internalType": "string",
          "name": "_khasraNumber",
          "type": "string"
        }
      ],
      "name": "requestRegistration",
      "outputs": [],
      "stateMutability": "payable",
      "type": "function"
    },
    {
      "inputs": [
        {
          "internalType": "uint256",
          "name": "",
          "type": "uint256"
        }
      ],
      "name": "requests",
      "outputs": [
        {
          "internalType": "uint256",
          "name": "id",
          "type": "uint256"
        },
        {
          "internalType": "address",
          "name": "requester",
          "type": "address"
        },
        {
          "internalType": "string",
          "name": "ownerName",
          "type": "string"
        },
        {
          "internalType": "string",
          "name": "ipfsMetadata",
          "type": "string"
        },
        {
          "internalType": "string",
          "name": "identityRefId",
          "type": "string"
        },
        {
          "internalType": "string",
          "name": "landArea",
          "type": "string"
        },
        {
          "internalType": "string",
          "name": "landLocation",
          "type": "string"
        },
        {
          "internalType": "string",
          "name": "khasraNumber",
          "type": "string"
        },
        {
          "internalType": "enum PropertyRegistry.Status",
          "name": "status",
          "type": "uint8"
        },
        {
          "internalType": "enum PropertyRegistry.SaleStatus",
          "name": "saleStatus",
          "type": "uint8"
        },
        {
          "internalType": "uint256",
          "name": "price",
          "type": "uint256"
        },
        {
          "internalType": "uint256",
          "name": "leasePrice",
          "type": "uint256"
        },
        {
          "internalType": "uint256",
          "name": "leaseDuration",
          "type": "uint256"
        },
        {
          "internalType": "uint256",
          "name": "leaseEndTime",
          "type": "uint256"
        },
        {
          "internalType": "address",
          "name": "tenant",
          "type": "address"
        },
        {
          "internalType": "uint256",
          "name": "requestTime",
          "type": "uint256"
        }
      ],
      "stateMutability": "view",
      "type": "function"
    },
    {
      "inputs": [
        {
          "internalType": "bytes32",
          "name": "role",
          "type": "bytes32"
        },
        {
          "internalType": "address",
          "name": "account",
          "type": "address"
        }
      ],
      "name": "revokeRole",
      "outputs": [],
      "stateMutability": "nonpayable",
      "type": "function"
    },
    {
      "inputs": [
        {
          "internalType": "address",
          "name": "from",
          "type": "address"
        },
        {
          "internalType": "address",
          "name": "to",
          "type": "address"
        },
        {
          "internalType": "uint256",
          "name": "tokenId",
          "type": "uint256"
        }
      ],
      "name": "safeTransferFrom",
      "outputs": [],
      "stateMutability": "nonpayable",
      "type": "function"
    },
    {
      "inputs": [
        {
          "internalType": "address",
          "name": "from",
          "type": "address"
        },
        {
          "internalType": "address",
          "name": "to",
          "type": "address"
        },
        {
          "internalType": "uint256",
          "name": "tokenId",
          "type": "uint256"
        },
        {
          "internalType": "bytes",
          "name": "data",
          "type": "bytes"
        }
      ],
      "name": "safeTransferFrom",
      "outputs": [],
      "stateMutability": "nonpayable",
      "type": "function"
    },
    {
      "inputs": [
        {
          "internalType": "address",
          "name": "operator",
          "type": "address"
        },
        {
          "internalType": "bool",
          "name": "approved",
          "type": "bool"
        }
      ],
      "name": "setApprovalForAll",
      "outputs": [],
      "stateMutability": "nonpayable",
      "type": "function"
    },
    {
      "inputs": [
        {
          "internalType": "bytes4",
          "name": "interfaceId",
          "type": "bytes4"
        }
      ],
      "name": "supportsInterface",
      "outputs": [
        {
          "internalType": "bool",
          "name": "",
          "type": "bool"
        }
      ],
      "stateMutability": "view",
      "type": "function"
    },
    {
      "inputs": [],
      "name": "symbol",
      "outputs": [
        {
          "internalType": "string",
          "name": "",
          "type": "string"
        }
      ],
      "stateMutability": "view",
      "type": "function"
    },
    {
      "inputs": [
        {
          "internalType": "uint256",
          "name": "tokenId",
          "type": "uint256"
        }
      ],
      "name": "tokenURI",
      "outputs": [
        {
          "internalType": "string",
          "name": "",
          "type": "string"
        }
      ],
      "stateMutability": "view",
      "type": "function"
    },
    {
      "inputs": [
        {
          "internalType": "address",
          "name": "from",
          "type": "address"
        },
        {
          "internalType": "address",
          "name": "to",
          "type": "address"
        },
        {
          "internalType": "uint256",
          "name": "tokenId",
          "type": "uint256"
        }
      ],
      "name": "transferFrom",
      "outputs": [],
      "stateMutability": "nonpayable",
      "type": "function"
    },
    {
      "inputs": [
        {
          "internalType": "address",
          "name": "",
          "type": "address"
        }
      ],
      "name": "users",
      "outputs": [
        {
          "internalType": "string",
          "name": "name",
          "type": "string"
        },
        {
          "internalType": "string",
          "name": "email",
          "type": "string"
        },
        {
          "internalType": "string",
          "name": "role",
          "type": "string"
        },
        {
          "internalType": "bool",
          "name": "isRegistered",
          "type": "bool"
        }
      ],
      "stateMutability": "view",
      "type": "function"
    },
    {
      "inputs": [
        {
          "internalType": "uint256",
          "name": "_requestId",
          "type": "uint256"
        }
      ],
      "name": "verifyByGovt",
      "outputs": [],
      "stateMutability": "nonpayable",
      "type": "function"
    },
    {
      "inputs": [
        {
          "internalType": "address",
          "name": "",
          "type": "address"
        }
      ],
      "name": "walletToIdentity",
      "outputs": [
        {
          "internalType": "bytes32",
          "name": "",
          "type": "bytes32"
        }
      ],
      "stateMutability": "view",
      "type": "function"
    },
    {
      "inputs": [],
      "name": "withdrawFunds",
      "outputs": [],
      "stateMutability": "nonpayable",
      "type": "function"
    }
  ],
  "bytecode": "0x604060808152346200077b576200001562000780565b600f81526020906e125b991a5853185b99149958dbdc99608a1b828201526200003d62000780565b60038082526224a62960e91b84830152825193909291906001600160401b0380861162000765576000928354966001958689811c991680156200075a575b858a101462000679578190601f998a811162000707575b5085908a8311600114620006a457879262000698575b505060001982891b1c191690861b1784555b805190828211620005a35785548681811c911680156200068d575b85821014620006795790818984931162000626575b508490898311600114620005c3578692620005b7575b505060001982881b1c191690851b1784555b8360085566038d7ea4c68000600c556200012c33620007a0565b508651936080850185811083821117620005a35788526200014c62000780565b600b81526a29bab832b91020b236b4b760a91b8482015285526200016f62000780565b96600c88526b30b236b4b72033b7bb1734b760a11b848901528386019788526200019862000780565b946005908187526420a226a4a760d91b868801528a88019687526060880199848b52338252600b87528b82209851805190878211620004c4578a548781811c9116801562000598575b8a821014620004a55790818784931162000547575b508990878311600114620004e4578592620004d8575b5050600019828d1b1c191690861b1789555b51805189860191878211620004c45782548781811c91168015620004b9575b8a821014620004a55790818784931162000454575b508990878311600114620003f1578592620003e5575b5050600019828d1b1c191690861b1790555b600288019651918251958611620003d1578754908582811c92168015620003c6575b88831014620003b2578482116200036c575b50508592851160011462000306579394508492919083620002fa575b50501b9160001990861b1c19161790555b019051151560ff8019835416911617905551613e3d9081620008338239f35b015192503880620002ca565b86815285812093958591601f198316915b8883831062000351575050501062000338575b505050811b019055620002db565b015160001983881b60f8161c191690553880806200032a565b85870151885590960195948501948793509081019062000317565b8883528783209085808901821c8301938a8a10620003a8575b01901c019085905b8281106200039c5750620002ae565b8381550185906200038d565b9350829362000385565b634e487b7160e01b83526022600452602483fd5b91607f16916200029c565b634e487b7160e01b82526041600452602482fd5b01519050388062000268565b8486528a86208994509190601f198416875b8d8282106200043d575050841162000424575b505050811b0190556200027a565b0151600019838f1b60f8161c1916905538808062000416565b8385015186558c9790950194938401930162000403565b90915083855289852087808501881c8201928c86106200049b575b918a918695949301891c01915b8281106200048c57505062000252565b8781558594508a91016200047c565b925081926200046f565b634e487b7160e01b85526022600452602485fd5b90607f16906200023d565b634e487b7160e01b84526041600452602484fd5b0151905038806200020c565b8c86528a86208994509190601f198416875b8d82821062000530575050841162000517575b505050811b0189556200021e565b0151600019838f1b60f8161c1916905538808062000509565b8385015186558c97909501949384019301620004f6565b9091508b855289852087808501881c8201928c86106200058e575b918a918695949301891c01915b8281106200057f575050620001f6565b8781558594508a91016200056f565b9250819262000562565b90607f1690620001e1565b634e487b7160e01b85526041600452602485fd5b01519050388062000100565b8787528587208894509190601f198416885b888282106200060f5750508411620005f6575b505050811b01845562000112565b0151600019838a1b60f8161c19169055388080620005e8565b8385015186558b97909501949384019301620005d5565b9091508686528486208980850160051c8201928786106200066f575b918991869594930160051c01915b82811062000660575050620000ea565b88815585945089910162000650565b9250819262000642565b634e487b7160e01b86526022600452602486fd5b90607f1690620000d5565b015190503880620000a8565b8780528688208994509190601f198416895b89828210620006f05750508411620006d7575b505050811b018455620000ba565b0151600019838b1b60f8161c19169055388080620006c9565b8385015186558c97909501949384019301620006b6565b9091508680528587208a80850160051c82019288861062000750575b918a91869594930160051c01915b8281106200074157505062000092565b8981558594508a910162000731565b9250819262000723565b98607f16986200007b565b634e487b7160e01b600052604160045260246000fd5b600080fd5b60408051919082016001600160401b038111838210176200076557604052565b6001600160a01b031660008181527f6d5257204ebe7d88fd91ae87941cb2dd9d8062b64ae5a2bd2d28ec40b9fbf6df602052604081205490919060ff166200082e5781805260076020526040822081835260205260408220600160ff1982541617905533917f2f8788117e7eff1d82e926ec794901d17c78024a50270940304540a733656f0d8180a4600190565b509056fe608080604052600436101561001357600080fd5b60003560e01c90816301ffc9a71461322b5750806305bd176c1461282957806306fdde0314612786578063081812fc14612748578063095ea7b3146126615780630e88e55b146125605780630f55415b1461245e57806310c5e1b214612435578063126dbe431461236e57806314c44e09146123505780631955cf8114611f93578063231a615914611f5957806323b872dd14611f4257806324600fc314611eba578063248a9ca314611e8b5780632d7788db14611d935780632f2ff15d14611d5457806336568abe14611d0d57806342842e0e14611cdf5780636352211e14611caf57806370a0823114611c5657806381d12c5814611ae2578063860c226b146119385780638e1e87321461154757806391d14854146114fa57806395d89b411461141b5780639d36ab6c14611217578063a217fddf146111fb578063a22cb4651461114d578063a60920981461104b578063a87430ba14610fab578063ac9f0a401461081e578063b1de05a7146107ea578063b88d4fde1461077f578063bcc36cff146105e2578063be47e028146105a7578063c87b56dd1461054a578063d547741f14610509578063e985e9c5146104b3578063f68e95531461048a5763fb1a002a146101e257600080fd5b3461048557600036600319011261048557600d546101ff81613c5f565b61020c604051918261331c565b818152601f1961021b83613c5f565b0160005b8181106103fc575050600191825b8181111561039e578284604051918291602090818401828552835180915260408501928060408360051b8801019501936000905b83821061026e5787870388f35b918496819592949698508190603f198b82030185528951908151815260018060a01b0391828482015116848301526103226103106102fd6102ea6102d76102c460408701516102008060408b01528901906133ad565b60608088015190898303908a01526133ad565b60808087015190888303908901526133ad565b60a08086015190878303908801526133ad565b60c08085015190868303908701526133ad565b60e083015184820360e08601526133ad565b92610336610100808401519085019061352e565b610349610120808401519085019061353b565b6101408083015190840152610160808301519084015261018080830151908401526101a080830151908401526101c0908183015116908301526101e08091015191015298019201920187969593919492610261565b80600052600e6020526040600020906000198101918183116103e6576103e1926103ca6103db92613ca0565b6103d48288613c76565b5285613c76565b50613bf5565b61022d565b634e487b7160e01b600052601160045260246000fd5b60209060405161040b816132ca565b6000815282600081830152606080604084015280808401528060808401528060a08401528060c084015260e08301526000610100830152600061012083015260006101408301526000610160830152600061018083015260006101a083015260006101c083015260006101e083015282860101520161021f565b600080fd5b34610485576000366003190112610485576020604051600080516020613de88339815191528152f35b34610485576040366003190112610485576104cc6133ed565b6104d4613403565b9060018060a01b03809116600052600560205260406000209116600052602052602060ff604060002054166040519015158152f35b3461048557604036600319011261048557610548600435610528613403565b90806000526007602052610543600160406000200154613548565b61378c565b005b346104855760203660031901126104855760043561056781613a4f565b5060005260066020526105a36105806040600020613488565b600060405161058e816132e6565b526040519182916020835260208301906133ad565b0390f35b346104855760003660031901126104855760206040517f2876b6444ca73956040d49b0d48b2a7c03b6b34daa638a812177f0309da79c7e8152f35b346104855760603660031901126104855760043560243561060282613a4f565b6001600160a01b0391906106199083163314613c27565b82600052602091600e835260ff60086040600020015460081c16600481101561076957600314908161074d575b506106e3575b7f3cf0e429eb8478e2532bd6678f8f3cb5c7156d3cc200512c051c25844747fa139160809184600052600e82526000600c604082206008810161020061ff001982541617905583600a820155604435600b820155826009820155600d81016001600160601b0360a01b8154169055015560405191604083526009604084015268466f72204c6561736560b81b6060840152820152a2005b82600052600e8252600c60406000200154421161064c5760405162461bcd60e51b815260048101839052602560248201527f43616e6e6f742072652d6c6973743a2054656e616e742074696d65206e6f74206044820152646f7665722160d81b6064820152608490fd5b905083600052600e8352600d6040600020015416151584610646565b634e487b7160e01b600052602160045260246000fd5b34610485576080366003190112610485576107986133ed565b6107a0613403565b90604435606435926001600160401b0384116104855736602385011215610485576107d8610548943690602481600401359101613358565b926107e4838383613803565b33613a8a565b34610485576020366003190112610485576004356000526009602052602060018060a01b0360406000205416604051908152f35b346104855760a0366003190112610485576001600160401b036004358181116104855761084f90369060040161338f565b906024358181116104855761086890369060040161338f565b916044358281116104855761088190369060040161338f565b6064358381116104855761089990369060040161338f565b93608435848111610485576108b290369060040161338f565b33600052600b60205260ff60036040600020015416610f6d57602081519101209485600052600960205260018060a01b0360406000205416610f17578560005260096020526040600020336001600160601b0360a01b82541617905533600052600a6020528560406000205582517faade7c69e1b3a8eb9c89d8463ab8bd8cb23c5a70b6e0a328bfd03ea8c3457369602085019182206b23a7ab2a2fa7a32324a1a2a960a11b602060405161096681613301565b600c8152015203610db257507eb2cfcd144c027b3b7855b62fe9ca45dcb97d1d83f783689912be0366805e218160206109c2935191012066474f565431323360c81b60206040516109b681613301565b60078152015214613bba565b6109cb33613699565b505b604051926080840184811086821117610c0a576040528352602083015260408201526001606082015233600052600b6020526040600020918151805190828211610c0a578190610a1d865461344e565b601f8111610d5f575b50602090601f8311600114610cf957600092610cee575b50508160011b916000199060031b1c19161783555b6020820151805190828211610c0a578190610a70600187015461344e565b601f8111610c98575b50602090601f8311600114610c2b57600092610c20575b50508160011b916000199060031b1c19161760018401555b600283019060408301518051918211610c0a57610ac5835461344e565b601f8111610bc2575b50602090601f8311600114610b51579282606093610b1e979693600396600092610b46575b50508160011b9160001990871b1c19161790555b0151151591019060ff801983541691151516179055565b337f7e09b322e495f61d9c3482c62f4d74a8f4cd603c94be8a8acffb3842a7a05e3b600080a3005b015190508980610af3565b90601f198316918460005260206000209260005b818110610baa575093610b1e979693600396936001938360609810610b92575b505050811b019055610b07565b015160001983891b60f8161c19169055898080610b85565b92936020600181928786015181550195019301610b65565b836000526020600020601f840160051c81019160208510610c00575b601f0160051c01905b818110610bf45750610ace565b60008155600101610be7565b9091508190610bde565b634e487b7160e01b600052604160045260246000fd5b015190508680610a90565b600187016000908152602081209350601f198516905b818110610c805750908460019594939210610c67575b505050811b016001840155610aa8565b015160001960f88460031b161c19169055868080610c57565b92936020600181928786015181550195019301610c41565b909150600186016000526020600020601f840160051c81019160208510610ce4575b90601f859493920160051c01905b818110610cd55750610a79565b60008155849350600101610cc8565b9091508190610cba565b015190508680610a3d565b6000878152602081209350601f198516905b818110610d475750908460019594939210610d2e575b505050811b018355610a52565b015160001960f88460031b161c19169055868080610d21565b92936020600181928786015181550195019301610d0b565b909150856000526020600020601f840160051c81019160208510610da8575b90601f859493920160051c01905b818110610d995750610a26565b60008155849350600101610d8c565b9091508190610d7e565b7fa78e49ef41478ad2ab23f4faa913f2dca7351bc697dcd6bb0cd3fd6ea3c8db8a845182206729aaa92b22aca7a960c11b6020604051610df181613301565b60088152015203610e5f57507f2aee43caeceba709dea2937ae43e888d333dde67ea763228a69d7c9e25ac6077816020610e5093519101206853555256455931323360b81b6020604051610e4481613301565b60098152015214613bba565b610e59336135fd565b506109cd565b7fd6b769dbdbf190871759edfb79bd17eda0005e1b8c3b6b3f5b480b5604ad50149084519020682922a3a4a9aa2920a960b91b6020604051610ea081613301565b60098152015214610eb157506109cd565b7feeec48380e9542e5defda8821480f34e4a6e8ea26cddf01dd26478e676cc3a38816020610f0793519101206b52454749535452415231323360a01b6020604051610efb81613301565b600c8152015214613bba565b610f103361356e565b5085610e59565b60405162461bcd60e51b815260206004820152602860248201527f4964656e7469747920616c7265616479207573656420627920616e6f746865726044820152672077616c6c65742160c01b6064820152608490fd5b60405162461bcd60e51b815260206004820152601660248201527557616c6c657420616c7265616479206c696e6b65642160501b6044820152606490fd5b34610485576020366003190112610485576001600160a01b03610fcc6133ed565b16600052600b6020526110236040600020610fe681613488565b9061103f610ff660018301613488565b9161103160ff600361100a60028501613488565b93015416936040519687966080885260808801906133ad565b9086820360208801526133ad565b9084820360408601526133ad565b90151560608301520390f35b34610485576020806003193601126104855760043590600080516020613dc88339815191528060005260078252604060002033600052825260ff604060002054161561112f575081600052600e815260ff600860406000200154166005811015610769576110fa577f2da7b23ca63c1eb969eee5fae4acb98186abecf5358b0354a82a5183ebca6b2a9082600052600e81526008604060002001600160ff1982541617905560405160018152a2005b6064906040519062461bcd60e51b82526004820152600e60248201526d0a6e8c2ceca40dad2e6dac2e8c6d60931b6044820152fd5b6044906040519063e2517d3f60e01b82523360048301526024820152fd5b34610485576040366003190112610485576111666133ed565b6024359081151590818303610485576001600160a01b03169182156111e2576111b49033600052600560205260406000208460005260205260406000209060ff801983541691151516179055565b6040519081527f17307eab39ab6107e8899845ad3d59bd9653f200f220920489ca2b5937696c3160203392a3005b604051630b61174360e31b815260048101849052602490fd5b3461048557600036600319011261048557602060405160008152f35b6020806003193601126104855760043590611230613c04565b81600052600e8152604060002061124683613a4f565b91600882019260ff845460081c166004811015610769576002036113e657600a83015434106113ad576001600160a01b0390811633811461137657600d840191825416611331575b60008080809381903415611327575b3491f11561131b57336001600160601b0360a01b825416179055600b820154804201938442116103e6577fe6aef257b8c2e2f01587b7dbe07bc085f3ee5a15cea0fa649e83e987e3404e6c94600c608095015561030061ff001982541617905560405191338352820152346040820152426060820152a26001600855005b6040513d6000823e3d90fd5b6108fc915061129d565b600c840154421161128e5760405162461bcd60e51b815260048101849052601260248201527150726f7065727479204f636375706965642160701b6044820152606490fd5b60405162461bcd60e51b815260048101849052600f60248201526e13dddb995c8818d85b9d081c995b9d608a1b6044820152606490fd5b60405162461bcd60e51b8152600481018390526011602482015270125b9cdd59999a58da595b9d0814995b9d607a1b6044820152606490fd5b60405162461bcd60e51b815260048101839052600d60248201526c4e6f7420666f72206c6561736560981b6044820152606490fd5b34610485576000366003190112610485576040516000600180549061143f8261344e565b808552918181169081156114d3575060011461147a575b6105a3846114668186038261331c565b6040519182916020835260208301906133ad565b600081815292507fb10e2d527612073b26eecdfd717e6a320cf44b4afac2b0732d9fcbe2b7fa0cf65b8284106114bb57505050810160200161146682611456565b805460208587018101919091529093019281016114a3565b60ff191660208087019190915292151560051b850190920192506114669150839050611456565b3461048557604036600319011261048557611513613403565b600435600052600760205260406000209060018060a01b0316600052602052602060ff604060002054166040519015158152f35b346104855760208060031936011261048557600080516020613de88339815191528060005260078252604060002033600052825260ff604060002054161561112f5750600435600052600e8152604060002060088101805460ff81166005811015610769576002036118fa5760039060ff19161790556001918282019160018060a01b03918284541682546040516115de816132e6565b6000815282156118e157856115f38385613993565b166118c857823b6117a0575b505050815461161060038401613488565b9581600052600683526040600020908751976001600160401b038911610c0a5761163a835461344e565b601f8111611757575b508490601f8a116001146116d35798809281927ff8e1a15aba9398e019f0b49df1a4fde98ee17ae345cb5f6b5e2c27f5033e8ce798999a9b6000946116c8575b50501b916000199060031b1c19161790555b604051908152a154915416907fbb34aa4710e9aece41642e442b49b5b8aff84ba0def93849797c2f15398aab23600080a3005b015192508b80611683565b9890601f1982169084600052866000209160005b81811061174257509a837ff8e1a15aba9398e019f0b49df1a4fde98ee17ae345cb5f6b5e2c27f5033e8ce7999a9b9c10611729575b505050811b019055611695565b015160001960f88460031b161c1916905589808061171c565b8c8301518455928501929188019188016116e7565b8360005285600020601f8b0160051c810191878c10611796575b601f0160051c019083905b82811061178a575050611643565b6000815501839061177c565b9091508190611771565b836117e391604099979599989694985180938192630a85bd0160e11b968784523360048501526000602485015260448401526080606484015260848301906133ad565b038160008b5af160009181611888575b506118515787873d15611849573d9161180b8361333d565b92611819604051948561331c565b83523d60008285013e5b8251928361184457604051633250574960e11b815260048101849052602490fd5b019050fd5b606091611823565b63ffffffff60e098949698979395971b160361187057508580806115ff565b60249060405190633250574960e11b82526004820152fd5b9091508881813d83116118c1575b6118a0818361331c565b8101031261048557516001600160e01b0319811681036104855790896117f3565b503d611896565b6040516339e3563760e11b815260006004820152602490fd5b604051633250574960e11b815260006004820152602490fd5b60405162461bcd60e51b8152600481018590526016602482015275135d5cdd081899481cdd5c9d995e595908199a5c9cdd60521b6044820152606490fd5b3461048557602080600319360112610485576004359061195782613a4f565b6001600160a01b03903390821603611aa45782600052600e825260ff60086040600020015460081c166004811015610769576003149081611a88575b50611a2d575b60807f3cf0e429eb8478e2532bd6678f8f3cb5c7156d3cc200512c051c25844747fa139183600052600e8152600d60406000206008810161ff00198154169055600060098201556000600a8201556000600b8201556000600c820155016001600160601b0360a01b81541690556000604051916040835260076040840152665072697661746560c81b6060840152820152a2005b81600052600e8152600c604060002001544211611999576064906040519062461bcd60e51b82526004820152601f60248201527f43616e6e6f7420756e6c6973743a204c656173652069732061637469766521006044820152fd5b905082600052600e8252600d6040600020015416151583611993565b60405162461bcd60e51b81526004810183905260166024820152754f6e6c79204f776e65722063616e20756e6c6973742160501b6044820152606490fd5b34610485576020366003190112610485576004356000908152600e60205260409020805460018201546001600160a01b0390811692611b2360028201613488565b90611b3060038201613488565b92611b3d60048301613488565b93611b4a60058401613488565b94611b5760068501613488565b95611b6460078601613488565b600886015497600987015492600a88015494600b89015496600c8a015498600d8b01541699600e01549a6040519e8f9e8f908152602001528d6102009081604082015201611bb1916133ad565b8d810360608f0152611bc2916133ad565b8c810360808e0152611bd3916133ad565b8b810360a08d0152611be4916133ad565b8a810360c08c0152611bf5916133ad565b89810360e08b0152611c06916133ad565b96611c186101008a0160ff831661352e565b61012089019060081c60ff1690611c2e9161353b565b6101408801526101608701526101808601526101a08501526101c08401526101e08301520390f35b34610485576020366003190112610485576001600160a01b03611c776133ed565b168015611c965760005260036020526020604060002054604051908152f35b6040516322718ad960e21b815260006004820152602490fd5b34610485576020366003190112610485576020611ccd600435613a4f565b6040516001600160a01b039091168152f35b3461048557610548611cf036613419565b9060405192611cfe846132e6565b600084526107e4838383613803565b3461048557604036600319011261048557611d26613403565b336001600160a01b03821603611d42576105489060043561378c565b60405163334bd91960e11b8152600490fd5b3461048557604036600319011261048557610548600435611d73613403565b90806000526007602052611d8e600160406000200154613548565b613723565b34610485576020806003193601126104855760043590600080516020613dc883398151915260005260078152604060002033600052815260ff604060002054168015611e5b575b15611e26577f2da7b23ca63c1eb969eee5fae4acb98186abecf5358b0354a82a5183ebca6b2a9082600052600e81526008604060002001600460ff1982541617905560405160048152a2005b6064906040519062461bcd60e51b82526004820152600e60248201526d139bdd08185d5d1a1bdc9a5e995960921b6044820152fd5b50600080516020613de883398151915260005260078152604060002033600052815260ff60406000205416611dda565b346104855760203660031901126104855760043560005260076020526020600160406000200154604051908152f35b34610485576000366003190112610485573360009081527f6d5257204ebe7d88fd91ae87941cb2dd9d8062b64ae5a2bd2d28ec40b9fbf6df602052604090205460ff1615611f2357600080808047818115611f1a575b3390f11561131b57005b506108fc611f10565b60405163e2517d3f60e01b815233600482015260006024820152604490fd5b3461048557610548611f5336613419565b91613803565b34610485576020366003190112610485576001600160a01b03611f7a6133ed565b16600052600a6020526020604060002054604051908152f35b60403660031901126104855760246004356001600160401b03823581811161048557611fc390369060040161338f565b90611fcc613c04565b826000526020600e8152604060002091611fe585613a4f565b9233600052600b835260ff600360406000200154161561230e57600881019160ff835460081c169560048710156122f95760018097036122c6576009830154341061228d576001600160a01b03868116969060003415612284575b6000808080938c3491f11561131b57331561226c5761205f8a33613993565b9081168061207f57604051637e27328960e01b8152600481018c90528c90fd5b9780999b959697980361223c5750506002840192815192831161222857509082916120ac8a95945461344e565b601f81116121df575b508690601f83116001146121505791806080989694927ff17ae70939d4cf0fffcec7ff83a385ce9409eec6273301c19c391c703d40364d9a989694600092612145575b5050600019600383901b1c191690841b1790555b01336001600160601b0360a01b82541617905561ff001981541690556040519182523390820152346040820152426060820152a2600855005b015190508c806120f8565b90601f1983169184600052886000209260005b8181106121c85750928795939285927ff17ae70939d4cf0fffcec7ff83a385ce9409eec6273301c19c391c703d40364d9c9a989660809c9a95106121af575b505050811b01905561210c565b015160001960f88460031b161c191690558c80806121a2565b8284015185558d9890940193928a01928a01612163565b8360005287600020601f840160051c81019189851061221e575b601f0160051c019086905b8281106122125750506120b5565b60008155018690612204565b90915081906121f9565b634e487b7160e01b60009081526041600452fd5b6040516364283d7b60e01b81526001600160a01b039283166004820152602481018b905291166044820152606490fd5b604051633250574960e11b8152600060048201528b90fd5b506108fc612040565b60405162461bcd60e51b8152600481018690526012818b015271496e73756666696369656e742046756e647360701b6044820152606490fd5b60405162461bcd60e51b815260048101869052600c818b01526b4e6f7420666f722073616c6560a01b6044820152606490fd5b88634e487b7160e01b60005260216004526000fd5b606487846040519162461bcd60e51b83528160048401528201527f4275796572206d7573742068617665206c696e6b6564204964656e74697479216044820152fd5b34610485576000366003190112610485576020600c54604051908152f35b346104855760203660031901126104855760043580600052600e6020526123a161239b6040600020613ca0565b91613a4f565b81519060408301519260a08101519160c08201519060018060a01b0393846101c08501511615159384612424575b509061240a9161241894956123f6604051998a998a5260c060208b015260c08a01906133ad565b9216604088015286820360608801526133ad565b9084820360808601526133ad565b90151560a08301520390f35b6101a001514210935061240a6123cf565b34610485576000366003190112610485576020604051600080516020613dc88339815191528152f35b346104855760403660031901126104855760043560243561249161248183613a4f565b6001600160a01b03163314613c27565b81600052600e60205260ff600860406000200154166005811015610769576003036125265760807f3cf0e429eb8478e2532bd6678f8f3cb5c7156d3cc200512c051c25844747fa139183600052600e60205280600960406000206008810161010061ff0019825416179055015560405190604082526008604083015267466f722053616c6560c01b60608301526020820152a2005b60405162461bcd60e51b8152602060048201526012602482015271139bdd08119d5b1b1e4815995c9a599a595960721b6044820152606490fd5b346104855760208060031936011261048557600435907f2876b6444ca73956040d49b0d48b2a7c03b6b34daa638a812177f0309da79c7e8060005260078252604060002033600052825260ff604060002054161561112f575081600052600e815260ff60086040600020015416600581101561076957600103612624577f2da7b23ca63c1eb969eee5fae4acb98186abecf5358b0354a82a5183ebca6b2a9082600052600e81526008604060002001600260ff1982541617905560405160028152a2005b6064906040519062461bcd60e51b82526004820152601660248201527511dbdd9d081b5d5cdd081d995c9a599e48199a5c9cdd60521b6044820152fd5b346104855760403660031901126104855761267a6133ed565b60243561268681613a4f565b33151580612735575b80612708575b6126f0576001600160a01b039283169282918491167f8c5be1e5ebec7d5bd14f71427d1e84f3dd0314c0f7b2291e5b200ac8c7c3b925600080a4600090815260046020526040902080546001600160a01b0319169091179055005b60405163a9fbf51f60e01b8152336004820152602490fd5b5060018060a01b038116600052600560205260406000203360005260205260ff6040600020541615612695565b506001600160a01b03811633141561268f565b346104855760203660031901126104855760043561276581613a4f565b506000526004602052602060018060a01b0360406000205416604051908152f35b3461048557600036600319011261048557604051600080546127a78161344e565b808452906001908181169081156114d357506001146127d0576105a3846114668186038261331c565b600080805292507f290decd9548b62a8d60345a988386fc84ba6bc95484008f6362f93160ef3e5635b82841061281157505050810160200161146682611456565b805460208587018101919091529093019281016127f9565b60c0366003190112610485576004356001600160401b0381116104855761285490369060040161338f565b60249081356001600160401b0381116104855761287590369060040161338f565b6044356001600160401b0381116104855761289490369060040161338f565b6064356001600160401b038111610485576128b390369060040161338f565b6084356001600160401b038111610485576128d290369060040161338f565b9060a4356001600160401b038111610485576128f290369060040161338f565b926128fb613c04565b33600052600b60205260ff60036040600020015416156131e757600c5434106131b557612929600d54613bf5565b9485600d556040519661293b886132ca565b86885233602089015260408801526060870152608086015260a085015260c084015260e08301526000610100830152600061012083015260006101408301526000610160830152600061018083015260006101a083015260006101c0830152426101e0830152600052600e6020526040600020918151835560018060a01b036020830151166001600160601b0360a01b60018501541617600184015560408201519283516001600160401b038111612f5d576129fa600283015461344e565b601f811161316e575b506020601f82116001146130ff5781929394956000926130f4575b50508160011b916000199060031b1c19161760028201555b60608301519283516001600160401b038111612e8757612a59600384015461344e565b601f81116130ad575b506020601f821160011461303e578192939495600092613033575b50508160011b916000199060031b1c19161760038301555b60808101519283516001600160401b038111612db157612ab8600485015461344e565b601f8111612fec575b506020601f8211600114612f7d578192939495600092612f72575b50508160011b916000199060031b1c19161760048401555b60a08201519283516001600160401b038111612f5d57612b17600583015461344e565b601f8111612f16575b506020601f8211600114612ea7578192939495600092612e9c575b50508160011b916000199060031b1c19161760058201555b60c08301519283516001600160401b038111612e8757612b76600684015461344e565b601f8111612e40575b506020601f8211600114612dd1578192939495600092612dc6575b50508160011b916000199060031b1c19161760068301555b60e08101519283516001600160401b038111612db157612bd5600785015461344e565b601f8111612d6a575b506020601f8211600114612cfb578192939495600092612cf0575b50508160011b916000199060031b1c19161760078401555b61010082015160088401916005821015612cdc57825490610120850151906004821015612cdc5750916101e0939160ff61ff00600e979560081b1692169061ffff1916171790556101408101516009850155610160810151600a850155610180810151600b8501556101a0810151600c850155600d840160018060a01b036101c0830151166001600160601b0360a01b825416179055015191015533600d547f67da995c6df7166078290dae7ac4f9c90eeb269d051c434663949b26f04dba1d600080a36001600855005b634e487b7160e01b60009081526021600452fd5b015190508580612bf9565b6007850160005260206000209060005b601f1984168110612d52575060019394959683601f19811610612d39575b505050811b016007840155612c11565b015160001960f88460031b161c19169055858080612d29565b9091602060018192858b015181550193019101612d0b565b600785016000526020600020601f830160051c810160208410612daa575b601f830160051c82018110612d9e575050612bde565b60008155600101612d88565b5080612d88565b50634e487b7160e01b60009081526041600452fd5b015190508580612b9a565b6006840160005260206000209060005b601f1984168110612e28575060019394959683601f19811610612e0f575b505050811b016006830155612bb2565b015160001960f88460031b161c19169055858080612dff565b9091602060018192858b015181550193019101612de1565b600684016000526020600020601f830160051c810160208410612e80575b601f830160051c82018110612e74575050612b7f565b60008155600101612e5e565b5080612e5e565b83634e487b7160e01b60005260416004526000fd5b015190508580612b3b565b6005830160005260206000209060005b601f1984168110612efe575060019394959683601f19811610612ee5575b505050811b016005820155612b53565b015160001960f88460031b161c19169055858080612ed5565b9091602060018192858b015181550193019101612eb7565b600583016000526020600020601f830160051c810160208410612f56575b601f830160051c82018110612f4a575050612b20565b60008155600101612f34565b5080612f34565b82634e487b7160e01b60005260416004526000fd5b015190508580612adc565b6004850160005260206000209060005b601f1984168110612fd4575060019394959683601f19811610612fbb575b505050811b016004840155612af4565b015160001960f88460031b161c19169055858080612fab565b9091602060018192858b015181550193019101612f8d565b600485016000526020600020601f830160051c81016020841061302c575b601f830160051c82018110613020575050612ac1565b6000815560010161300a565b508061300a565b015190508580612a7d565b6003840160005260206000209060005b601f1984168110613095575060019394959683601f1981161061307c575b505050811b016003830155612a95565b015160001960f88460031b161c1916905585808061306c565b9091602060018192858b01518155019301910161304e565b600384016000526020600020601f830160051c8101602084106130ed575b601f830160051c820181106130e1575050612a62565b600081556001016130cb565b50806130cb565b015190508580612a1e565b6002830160005260206000209060005b601f1984168110613156575060019394959683601f1981161061313d575b505050811b016002820155612a36565b015160001960f88460031b161c1916905585808061312d565b9091602060018192858b01518155019301910161310f565b600283016000526020600020601f830160051c8101602084106131ae575b601f830160051c820181106131a2575050612a03565b6000815560010161318c565b508061318c565b60405162461bcd60e51b815260206004820152600b818901526a46656520746f6f206c6f7760a81b6044820152606490fd5b60405162461bcd60e51b8152602060048201526019818901527f4d757374206c696e6b204964656e7469747920666972737421000000000000006044820152606490fd5b34610485576020366003190112610485576004359063ffffffff60e01b821680920361048557602091637965db0b60e01b811490811561326d575b5015158152f35b632483248360e11b811491508115613287575b5083613266565b6380ac58cd60e01b8114915081156132b9575b81156132a8575b5083613280565b6301ffc9a760e01b149050836132a1565b635b5e139f60e01b8114915061329a565b61020081019081106001600160401b03821117610c0a57604052565b602081019081106001600160401b03821117610c0a57604052565b604081019081106001600160401b03821117610c0a57604052565b90601f801991011681019081106001600160401b03821117610c0a57604052565b6001600160401b038111610c0a57601f01601f191660200190565b9291926133648261333d565b91613372604051938461331c565b829481845281830111610485578281602093846000960137010152565b9080601f83011215610485578160206133aa93359101613358565b90565b919082519283825260005b8481106133d9575050826000602080949584010152601f8019910116010190565b6020818301810151848301820152016133b8565b600435906001600160a01b038216820361048557565b602435906001600160a01b038216820361048557565b6060906003190112610485576001600160a01b0390600435828116810361048557916024359081168103610485579060443590565b90600182811c9216801561347e575b602083101461346857565b634e487b7160e01b600052602260045260246000fd5b91607f169161345d565b906040519182600082549261349c8461344e565b90818452600194858116908160001461350b57506001146134c8575b50506134c69250038361331c565b565b9093915060005260209081600020936000915b8183106134f35750506134c6935082010138806134b8565b855488840185015294850194879450918301916134db565b9150506134c694506020925060ff191682840152151560051b82010138806134b8565b9060058210156107695752565b9060048210156107695752565b80600052600760205260406000203360005260205260ff604060002054161561112f5750565b6001600160a01b031660008181527fff6db987cc3eb6bb5dcc88dfdb614854cfd71c221fb0d830bd28f7ba6e802ead6020526040812054909190600080516020613de88339815191529060ff166135f85780835260076020526040832082845260205260408320600160ff19825416179055600080516020613da8833981519152339380a4600190565b505090565b6001600160a01b031660008181527f88dc988953ac3783e42f15664720d42b06bb81b884417b7c7bc8e77b0a720db660205260408120549091907f2876b6444ca73956040d49b0d48b2a7c03b6b34daa638a812177f0309da79c7e9060ff166135f85780835260076020526040832082845260205260408320600160ff19825416179055600080516020613da8833981519152339380a4600190565b6001600160a01b031660008181527f0d2ca987390669ebc5f233dfd59f08e79cce116aaf03d896b922b0a1fd7a9d696020526040812054909190600080516020613dc88339815191529060ff166135f85780835260076020526040832082845260205260408320600160ff19825416179055600080516020613da8833981519152339380a4600190565b906000918083526007602052604083209160018060a01b03169182845260205260ff604084205416156000146135f85780835260076020526040832082845260205260408320600160ff19825416179055600080516020613da8833981519152339380a4600190565b906000918083526007602052604083209160018060a01b03169182845260205260ff6040842054166000146135f8578083526007602052604083208284526020526040832060ff1981541690557ff6391f5c32d9c69d2a47ea670b442974b53935d1edc7fd64eb21e047a839171b339380a4600190565b906001600160a01b0390811680156118e1576000918483528460209260028452604093838587205416958691331515806138fd575b509060027fddf252ad1be2c89b69c2b068fc378daa952ba7f163c4a11628f55a4df523b3ef92846138ca575b85835260038152888320805460010190558683525286812080546001600160a01b0319168517905580a48316820361389c5750505050565b516364283d7b60e01b81526001600160a01b0392831660048201526024810193909352166044820152606490fd5b600087815260046020526040902080546001600160a01b0319169055848352600381528883208054600019019055613864565b91939450915080613952575b1561391957879291869138613838565b848887613936576024915190637e27328960e01b82526004820152fd5b604491519063177e802f60e01b82523360048301526024820152fd5b503386148015613977575b806139095750878252600481523384868420541614613909565b5085825260058152848220338352815260ff858320541661395d565b6000828152600260205260408120546001600160a01b03908116939284917fddf252ad1be2c89b69c2b068fc378daa952ba7f163c4a11628f55a4df523b3ef9183613a1a575b169283613a02575b84815260026020526040812080546001600160a01b0319168517905580a490565b838152600360205260408120600181540190556139e1565b600086815260046020526040902080546001600160a01b031916905583855260036020526040852080546000190190556139d9565b6000818152600260205260409020546001600160a01b0316908115613a72575090565b60249060405190637e27328960e01b82526004820152fd5b90939192833b613a9c575b5050505050565b604051630a85bd0160e11b8082526001600160a01b039384166004830152958316602482015260448101919091526080606482015294921692602092918590613ae99060848301906133ad565b039483816000978189895af1869181613b76575b50613b58575050503d600014613b4f573d613b178161333d565b90613b25604051928361331c565b81528093823d92013e8251928361184457604051633250574960e11b815260048101849052602490fd5b60609250611823565b919450915063ffffffff60e01b160361187057503880808080613a95565b9091508481813d8311613bb3575b613b8e818361331c565b81010312613baf57516001600160e01b031981168103613baf579038613afd565b8680fd5b503d613b84565b15613bc157565b60405162461bcd60e51b815260206004820152600c60248201526b496e76616c696420436f646560a01b6044820152606490fd5b60001981146103e65760010190565b600260085414613c15576002600855565b604051633ee5aeb560e01b8152600490fd5b15613c2e57565b60405162461bcd60e51b81526020600482015260096024820152682737ba1027bbb732b960b91b6044820152606490fd5b6001600160401b038111610c0a5760051b60200190565b8051821015613c8a5760209160051b010190565b634e487b7160e01b600052603260045260246000fd5b90604051613cad816132ca565b8254815260018301546001600160a01b0390811660208301529092839190613cd760028201613488565b6040840152613ce860038201613488565b6060840152613cf960048201613488565b6080840152613d0a60058201613488565b60a0840152613d1b60068201613488565b60c0840152613d2c60078201613488565b60e0840152600881015460ff81169060058210156107695760ff9161010086015260081c16906004821015610769576101e092600e926101208601526009820154610140860152600a820154610160860152600b820154610180860152600c8201546101a0860152600d820154166101c0850152015491015256fe2f8788117e7eff1d82e926ec794901d17c78024a50270940304540a733656f0d710860e085084403cfe5e59ea7faf8026d1db65d8b1086e3e1879ff3fd1b2a53edcc084d3dcd65a1f7f23c65c46722faca6953d28e43150a467cf43e5c309238a26469706673582212206cb9ce720d67f0acd01760d77325482ccc9555eb4f80ccaea46c8d94c201624b64736f6c63430008140033",
  "linkReferences": {},
  "deployedLinkReferences": {}
}