{
  "_format": "hh-sol-artifact-1",
  "contractName": "PropertyRegistry",
  "sourceName": "contracts/PropertyRegistry.sol",
  "abi": [
    {
      "inputs": [],
      "stateMutability": "nonpayable",
      "type": "constructor"
    },
    {
      "inputs": [],
      "name": "AccessControlBadConfirmation",
      "type": "error"
    },
    {
      "inputs": [
        {
          "internalType": "address",
          "name": "account",
          "type": "address"
        },
        {
          "internalType": "bytes32",
          "name": "neededRole",
          "type": "bytes32"
        }
      ],
      "name": "AccessControlUnauthorizedAccount",
      "type": "error"
    },
    {
      "inputs": [
        {
          "internalType": "address",
          "name": "sender",
          "type": "address"
        },
        {
          "internalType": "uint256",
          "name": "tokenId",
          "type": "uint256"
        },
        {
          "internalType": "address",
          "name": "owner",
          "type": "address"
        }
      ],
      "name": "ERC721IncorrectOwner",
      "type": "error"
    },
    {
      "inputs": [
        {
          "internalType": "address",
          "name": "operator",
          "type": "address"
        },
        {
          "internalType": "uint256",
          "name": "tokenId",
          "type": "uint256"
        }
      ],
      "name": "ERC721InsufficientApproval",
      "type": "error"
    },
    {
      "inputs": [
        {
          "internalType": "address",
          "name": "approver",
          "type": "address"
        }
      ],
      "name": "ERC721InvalidApprover",
      "type": "error"
    },
    {
      "inputs": [
        {
          "internalType": "address",
          "name": "operator",
          "type": "address"
        }
      ],
      "name": "ERC721InvalidOperator",
      "type": "error"
    },
    {
      "inputs": [
        {
          "internalType": "address",
          "name": "owner",
          "type": "address"
        }
      ],
      "name": "ERC721InvalidOwner",
      "type": "error"
    },
    {
      "inputs": [
        {
          "internalType": "address",
          "name": "receiver",
          "type": "address"
        }
      ],
      "name": "ERC721InvalidReceiver",
      "type": "error"
    },
    {
      "inputs": [
        {
          "internalType": "address",
          "name": "sender",
          "type": "address"
        }
      ],
      "name": "ERC721InvalidSender",
      "type": "error"
    },
    {
      "inputs": [
        {
          "internalType": "uint256",
          "name": "tokenId",
          "type": "uint256"
        }
      ],
      "name": "ERC721NonexistentToken",
      "type": "error"
    },
    {
      "inputs": [],
      "name": "ReentrancyGuardReentrantCall",
      "type": "error"
    },
    {
      "anonymous": false,
      "inputs": [
        {
          "indexed": true,
          "internalType": "address",
          "name": "owner",
          "type": "address"
        },
        {
          "indexed": true,
          "internalType": "address",
          "name": "approved",
          "type": "address"
        },
        {
          "indexed": true,
          "internalType": "uint256",
          "name": "tokenId",
          "type": "uint256"
        }
      ],
      "name": "Approval",
      "type": "event"
    },
    {
      "anonymous": false,
      "inputs": [
        {
          "indexed": true,
          "internalType": "address",
          "name": "owner",
          "type": "address"
        },
        {
          "indexed": true,
          "internalType": "address",
          "name": "operator",
          "type": "address"
        },
        {
          "indexed": false,
          "internalType": "bool",
          "name": "approved",
          "type": "bool"
        }
      ],
      "name": "ApprovalForAll",
      "type": "event"
    },
    {
      "anonymous": false,
      "inputs": [
        {
          "indexed": false,
          "internalType": "uint256",
          "name": "_fromTokenId",
          "type": "uint256"
        },
        {
          "indexed": false,
          "internalType": "uint256",
          "name": "_toTokenId",
          "type": "uint256"
        }
      ],
      "name": "BatchMetadataUpdate",
      "type": "event"
    },
    {
      "anonymous": false,
      "inputs": [
        {
          "indexed": true,
          "internalType": "address",
          "name": "user",
          "type": "address"
        },
        {
          "indexed": true,
          "internalType": "bytes32",
          "name": "identityHash",
          "type": "bytes32"
        }
      ],
      "name": "IdentityLinked",
      "type": "event"
    },
    {
      "anonymous": false,
      "inputs": [
        {
          "indexed": false,
          "internalType": "uint256",
          "name": "_tokenId",
          "type": "uint256"
        }
      ],
      "name": "MetadataUpdate",
      "type": "event"
    },
    {
      "anonymous": false,
      "inputs": [
        {
          "indexed": true,
          "internalType": "address",
          "name": "from",
          "type": "address"
        },
        {
          "indexed": true,
          "internalType": "address",
          "name": "to",
          "type": "address"
        },
        {
          "indexed": false,
          "internalType": "uint256",
          "name": "propertyId",
          "type": "uint256"
        },
        {
          "indexed": false,
          "internalType": "string",
          "name": "relation",
          "type": "string"
        }
      ],
      "name": "PropertyGifted",
      "type": "event"
    },
    {
      "anonymous": false,
      "inputs": [
        {
          "indexed": true,
          "internalType": "uint256",
          "name": "tokenId",
          "type": "uint256"
        },
        {
          "indexed": true,
          "internalType": "address",
          "name": "owner",
          "type": "address"
        }
      ],
      "name": "PropertyMinted",
      "type": "event"
    },
    {
      "anonymous": false,
      "inputs": [
        {
          "indexed": true,
          "internalType": "uint256",
          "name": "tokenId",
          "type": "uint256"
        },
        {
          "indexed": false,
          "internalType": "address",
          "name": "tenant",
          "type": "address"
        },
        {
          "indexed": false,
          "internalType": "uint256",
          "name": "duration",
          "type": "uint256"
        },
        {
          "indexed": false,
          "internalType": "uint256",
          "name": "price",
          "type": "uint256"
        },
        {
          "indexed": false,
          "internalType": "uint256",
          "name": "timestamp",
          "type": "uint256"
        }
      ],
      "name": "PropertyRented",
      "type": "event"
    },
    {
      "anonymous": false,
      "inputs": [
        {
          "indexed": true,
          "internalType": "uint256",
          "name": "tokenId",
          "type": "uint256"
        },
        {
          "indexed": false,
          "internalType": "address",
          "name": "from",
          "type": "address"
        },
        {
          "indexed": false,
          "internalType": "address",
          "name": "to",
          "type": "address"
        },
        {
          "indexed": false,
          "internalType": "uint256",
          "name": "price",
          "type": "uint256"
        }
      ],
      "name": "PropertySold",
      "type": "event"
    },
    {
      "anonymous": false,
      "inputs": [
        {
          "indexed": true,
          "internalType": "uint256",
          "name": "tokenId",
          "type": "uint256"
        },
        {
          "indexed": false,
          "internalType": "string",
          "name": "newStatus",
          "type": "string"
        },
        {
          "indexed": false,
          "internalType": "uint256",
          "name": "price",
          "type": "uint256"
        }
      ],
      "name": "PropertyStatusChanged",
      "type": "event"
    },
    {
      "anonymous": false,
      "inputs": [
        {
          "indexed": true,
          "internalType": "uint256",
          "name": "requestId",
          "type": "uint256"
        },
        {
          "indexed": true,
          "internalType": "address",
          "name": "user",
          "type": "address"
        }
      ],
      "name": "RequestSubmitted",
      "type": "event"
    },
    {
      "anonymous": false,
      "inputs": [
        {
          "indexed": true,
          "internalType": "bytes32",
          "name": "role",
          "type": "bytes32"
        },
        {
          "indexed": true,
          "internalType": "bytes32",
          "name": "previousAdminRole",
          "type": "bytes32"
        },
        {
          "indexed": true,
          "internalType": "bytes32",
          "name": "newAdminRole",
          "type": "bytes32"
        }
      ],
      "name": "RoleAdminChanged",
      "type": "event"
    },
    {
      "anonymous": false,
      "inputs": [
        {
          "indexed": true,
          "internalType": "bytes32",
          "name": "role",
          "type": "bytes32"
        },
        {
          "indexed": true,
          "internalType": "address",
          "name": "account",
          "type": "address"
        },
        {
          "indexed": true,
          "internalType": "address",
          "name": "sender",
          "type": "address"
        }
      ],
      "name": "RoleGranted",
      "type": "event"
    },
    {
      "anonymous": false,
      "inputs": [
        {
          "indexed": true,
          "internalType": "bytes32",
          "name": "role",
          "type": "bytes32"
        },
        {
          "indexed": true,
          "internalType": "address",
          "name": "account",
          "type": "address"
        },
        {
          "indexed": true,
          "internalType": "address",
          "name": "sender",
          "type": "address"
        }
      ],
      "name": "RoleRevoked",
      "type": "event"
    },
    {
      "anonymous": false,
      "inputs": [
        {
          "indexed": true,
          "internalType": "uint256",
          "name": "requestId",
          "type": "uint256"
        },
        {
          "indexed": false,
          "internalType": "enum PropertyRegistry.Status",
          "name": "newStatus",
          "type": "uint8"
        }
      ],
      "name": "StatusUpdated",
      "type": "event"
    },
    {
      "anonymous": false,
      "inputs": [
        {
          "indexed": true,
          "internalType": "address",
          "name": "from",
          "type": "address"
        },
        {
          "indexed": true,
          "internalType": "address",
          "name": "to",
          "type": "address"
        },
        {
          "indexed": true,
          "internalType": "uint256",
          "name": "tokenId",
          "type": "uint256"
        }
      ],
      "name": "Transfer",
      "type": "event"
    },
    {
      "inputs": [],
      "name": "DEFAULT_ADMIN_ROLE",
      "outputs": [
        {
          "internalType": "bytes32",
          "name": "",
          "type": "bytes32"
        }
      ],
      "stateMutability": "view",
      "type": "function"
    },
    {
      "inputs": [],
      "name": "GOVT_OFFICER_ROLE",
      "outputs": [
        {
          "internalType": "bytes32",
          "name": "",
          "type": "bytes32"
        }
      ],
      "stateMutability": "view",
      "type": "function"
    },
    {
      "inputs": [],
      "name": "REGISTRAR_ROLE",
      "outputs": [
        {
          "internalType": "bytes32",
          "name": "",
          "type": "bytes32"
        }
      ],
      "stateMutability": "view",
      "type": "function"
    },
    {
      "inputs": [],
      "name": "SURVEYOR_ROLE",
      "outputs": [
        {
          "internalType": "bytes32",
          "name": "",
          "type": "bytes32"
        }
      ],
      "stateMutability": "view",
      "type": "function"
    },
    {
      "inputs": [
        {
          "internalType": "address",
          "name": "to",
          "type": "address"
        },
        {
          "internalType": "uint256",
          "name": "tokenId",
          "type": "uint256"
        }
      ],
      "name": "approve",
      "outputs": [],
      "stateMutability": "nonpayable",
      "type": "function"
    },
    {
      "inputs": [
        {
          "internalType": "uint256",
          "name": "_requestId",
          "type": "uint256"
        }
      ],
      "name": "approveAndMint",
      "outputs": [],
      "stateMutability": "nonpayable",
      "type": "function"
    },
    {
      "inputs": [
        {
          "internalType": "address",
          "name": "owner",
          "type": "address"
        }
      ],
      "name": "balanceOf",
      "outputs": [
        {
          "internalType": "uint256",
          "name": "",
          "type": "uint256"
        }
      ],
      "stateMutability": "view",
      "type": "function"
    },
    {
      "inputs": [
        {
          "internalType": "uint256",
          "name": "_tokenId",
          "type": "uint256"
        },
        {
          "internalType": "string",
          "name": "_newOwnerName",
          "type": "string"
        }
      ],
      "name": "buyProperty",
      "outputs": [],
      "stateMutability": "payable",
      "type": "function"
    },
    {
      "inputs": [
        {
          "internalType": "uint256",
          "name": "_requestId",
          "type": "uint256"
        }
      ],
      "name": "completeSurvey",
      "outputs": [],
      "stateMutability": "nonpayable",
      "type": "function"
    },
    {
      "inputs": [],
      "name": "getAllRequests",
      "outputs": [
        {
          "components": [
            {
              "internalType": "uint256",
              "name": "id",
              "type": "uint256"
            },
            {
              "internalType": "address",
              "name": "requester",
              "type": "address"
            },
            {
              "internalType": "string",
              "name": "ownerName",
              "type": "string"
            },
            {
              "internalType": "string",
              "name": "ipfsMetadata",
              "type": "string"
            },
            {
              "internalType": "string",
              "name": "identityRefId",
              "type": "string"
            },
            {
              "internalType": "string",
              "name": "landArea",
              "type": "string"
            },
            {
              "internalType": "string",
              "name": "landLocation",
              "type": "string"
            },
            {
              "internalType": "string",
              "name": "khasraNumber",
              "type": "string"
            },
            {
              "internalType": "enum PropertyRegistry.Status",
              "name": "status",
              "type": "uint8"
            },
            {
              "internalType": "enum PropertyRegistry.SaleStatus",
              "name": "saleStatus",
              "type": "uint8"
            },
            {
              "internalType": "uint256",
              "name": "price",
              "type": "uint256"
            },
            {
              "internalType": "uint256",
              "name": "leasePrice",
              "type": "uint256"
            },
            {
              "internalType": "uint256",
              "name": "leaseDuration",
              "type": "uint256"
            },
            {
              "internalType": "uint256",
              "name": "leaseEndTime",
              "type": "uint256"
            },
            {
              "internalType": "address",
              "name": "tenant",
              "type": "address"
            },
            {
              "internalType": "uint256",
              "name": "requestTime",
              "type": "uint256"
            }
          ],
          "internalType": "struct PropertyRegistry.PropertyRequest[]",
          "name": "",
          "type": "tuple[]"
        }
      ],
      "stateMutability": "view",
      "type": "function"
    },
    {
      "inputs": [
        {
          "internalType": "uint256",
          "name": "tokenId",
          "type": "uint256"
        }
      ],
      "name": "getApproved",
      "outputs": [
        {
          "internalType": "address",
          "name": "",
          "type": "address"
        }
      ],
      "stateMutability": "view",
      "type": "function"
    },
    {
      "inputs": [
        {
          "internalType": "bytes32",
          "name": "role",
          "type": "bytes32"
        }
      ],
      "name": "getRoleAdmin",
      "outputs": [
        {
          "internalType": "bytes32",
          "name": "",
          "type": "bytes32"
        }
      ],
      "stateMutability": "view",
      "type": "function"
    },
    {
      "inputs": [
        {
          "internalType": "bytes32",
          "name": "role",
          "type": "bytes32"
        },
        {
          "internalType": "address",
          "name": "account",
          "type": "address"
        }
      ],
      "name": "grantRole",
      "outputs": [],
      "stateMutability": "nonpayable",
      "type": "function"
    },
    {
      "inputs": [
        {
          "internalType": "bytes32",
          "name": "role",
          "type": "bytes32"
        },
        {
          "internalType": "address",
          "name": "account",
          "type": "address"
        }
      ],
      "name": "hasRole",
      "outputs": [
        {
          "internalType": "bool",
          "name": "",
          "type": "bool"
        }
      ],
      "stateMutability": "view",
      "type": "function"
    },
    {
      "inputs": [
        {
          "internalType": "bytes32",
          "name": "",
          "type": "bytes32"
        }
      ],
      "name": "identityToWallet",
      "outputs": [
        {
          "internalType": "address",
          "name": "",
          "type": "address"
        }
      ],
      "stateMutability": "view",
      "type": "function"
    },
    {
      "inputs": [
        {
          "internalType": "address",
          "name": "owner",
          "type": "address"
        },
        {
          "internalType": "address",
          "name": "operator",
          "type": "address"
        }
      ],
      "name": "isApprovedForAll",
      "outputs": [
        {
          "internalType": "bool",
          "name": "",
          "type": "bool"
        }
      ],
      "stateMutability": "view",
      "type": "function"
    },
    {
      "inputs": [
        {
          "internalType": "uint256",
          "name": "_tokenId",
          "type": "uint256"
        },
        {
          "internalType": "uint256",
          "name": "_leasePrice",
          "type": "uint256"
        },
        {
          "internalType": "uint256",
          "name": "_duration",
          "type": "uint256"
        }
      ],
      "name": "listPropertyForLease",
      "outputs": [],
      "stateMutability": "nonpayable",
      "type": "function"
    },
    {
      "inputs": [
        {
          "internalType": "uint256",
          "name": "_tokenId",
          "type": "uint256"
        },
        {
          "internalType": "uint256",
          "name": "_priceInWei",
          "type": "uint256"
        }
      ],
      "name": "listPropertyForSale",
      "outputs": [],
      "stateMutability": "nonpayable",
      "type": "function"
    },
    {
      "inputs": [
        {
          "internalType": "uint256",
          "name": "_tokenId",
          "type": "uint256"
        }
      ],
      "name": "makePropertyPrivate",
      "outputs": [],
      "stateMutability": "nonpayable",
      "type": "function"
    },
    {
      "inputs": [],
      "name": "name",
      "outputs": [
        {
          "internalType": "string",
          "name": "",
          "type": "string"
        }
      ],
      "stateMutability": "view",
      "type": "function"
    },
    {
      "inputs": [
        {
          "internalType": "uint256",
          "name": "tokenId",
          "type": "uint256"
        }
      ],
      "name": "ownerOf",
      "outputs": [
        {
          "internalType": "address",
          "name": "",
          "type": "address"
        }
      ],
      "stateMutability": "view",
      "type": "function"
    },
    {
      "inputs": [
        {
          "internalType": "string",
          "name": "_name",
          "type": "string"
        },
        {
          "internalType": "string",
          "name": "_email",
          "type": "string"
        },
        {
          "internalType": "string",
          "name": "_role",
          "type": "string"
        },
        {
          "internalType": "string",
          "name": "_secretCode",
          "type": "string"
        },
        {
          "internalType": "string",
          "name": "_aadhaarPAN",
          "type": "string"
        }
      ],
      "name": "registerUser",
      "outputs": [],
      "stateMutability": "nonpayable",
      "type": "function"
    },
    {
      "inputs": [],
      "name": "registrationFee",
      "outputs": [
        {
          "internalType": "uint256",
          "name": "",
          "type": "uint256"
        }
      ],
      "stateMutability": "view",
      "type": "function"
    },
    {
      "inputs": [
        {
          "internalType": "uint256",
          "name": "_requestId",
          "type": "uint256"
        }
      ],
      "name": "rejectRequest",
      "outputs": [],
      "stateMutability": "nonpayable",
      "type": "function"
    },
    {
      "inputs": [
        {
          "internalType": "bytes32",
          "name": "role",
          "type": "bytes32"
        },
        {
          "internalType": "address",
          "name": "callerConfirmation",
          "type": "address"
        }
      ],
      "name": "renounceRole",
      "outputs": [],
      "stateMutability": "nonpayable",
      "type": "function"
    },
    {
      "inputs": [
        {
          "internalType": "uint256",
          "name": "_tokenId",
          "type": "uint256"
        }
      ],
      "name": "rentProperty",
      "outputs": [],
      "stateMutability": "payable",
      "type": "function"
    },
    {
      "inputs": [
        {
          "internalType": "string",
          "name": "_ownerName",
          "type": "string"
        },
        {
          "internalType": "string",
          "name": "_ipfsMetadata",
          "type": "string"
        },
        {
          "internalType": "string",
          "name": "_landArea",
          "type": "string"
        },
        {
          "internalType": "string",
          "name": "_landLocation",
          "type": "string"
        },
        {
          "internalType": "string",
          "name": "_khasraNumber",
          "type": "string"
        }
      ],
      "name": "requestRegistration",
      "outputs": [],
      "stateMutability": "payable",
      "type": "function"
    },
    {
      "inputs": [
        {
          "internalType": "uint256",
          "name": "",
          "type": "uint256"
        }
      ],
      "name": "requests",
      "outputs": [
        {
          "internalType": "uint256",
          "name": "id",
          "type": "uint256"
        },
        {
          "internalType": "address",
          "name": "requester",
          "type": "address"
        },
        {
          "internalType": "string",
          "name": "ownerName",
          "type": "string"
        },
        {
          "internalType": "string",
          "name": "ipfsMetadata",
          "type": "string"
        },
        {
          "internalType": "string",
          "name": "identityRefId",
          "type": "string"
        },
        {
          "internalType": "string",
          "name": "landArea",
          "type": "string"
        },
        {
          "internalType": "string",
          "name": "landLocation",
          "type": "string"
        },
        {
          "internalType": "string",
          "name": "khasraNumber",
          "type": "string"
        },
        {
          "internalType": "enum PropertyRegistry.Status",
          "name": "status",
          "type": "uint8"
        },
        {
          "internalType": "enum PropertyRegistry.SaleStatus",
          "name": "saleStatus",
          "type": "uint8"
        },
        {
          "internalType": "uint256",
          "name": "price",
          "type": "uint256"
        },
        {
          "internalType": "uint256",
          "name": "leasePrice",
          "type": "uint256"
        },
        {
          "internalType": "uint256",
          "name": "leaseDuration",
          "type": "uint256"
        },
        {
          "internalType": "uint256",
          "name": "leaseEndTime",
          "type": "uint256"
        },
        {
          "internalType": "address",
          "name": "tenant",
          "type": "address"
        },
        {
          "internalType": "uint256",
          "name": "requestTime",
          "type": "uint256"
        }
      ],
      "stateMutability": "view",
      "type": "function"
    },
    {
      "inputs": [
        {
          "internalType": "bytes32",
          "name": "role",
          "type": "bytes32"
        },
        {
          "internalType": "address",
          "name": "account",
          "type": "address"
        }
      ],
      "name": "revokeRole",
      "outputs": [],
      "stateMutability": "nonpayable",
      "type": "function"
    },
    {
      "inputs": [
        {
          "internalType": "address",
          "name": "from",
          "type": "address"
        },
        {
          "internalType": "address",
          "name": "to",
          "type": "address"
        },
        {
          "internalType": "uint256",
          "name": "tokenId",
          "type": "uint256"
        }
      ],
      "name": "safeTransferFrom",
      "outputs": [],
      "stateMutability": "nonpayable",
      "type": "function"
    },
    {
      "inputs": [
        {
          "internalType": "address",
          "name": "from",
          "type": "address"
        },
        {
          "internalType": "address",
          "name": "to",
          "type": "address"
        },
        {
          "internalType": "uint256",
          "name": "tokenId",
          "type": "uint256"
        },
        {
          "internalType": "bytes",
          "name": "data",
          "type": "bytes"
        }
      ],
      "name": "safeTransferFrom",
      "outputs": [],
      "stateMutability": "nonpayable",
      "type": "function"
    },
    {
      "inputs": [
        {
          "internalType": "address",
          "name": "operator",
          "type": "address"
        },
        {
          "internalType": "bool",
          "name": "approved",
          "type": "bool"
        }
      ],
      "name": "setApprovalForAll",
      "outputs": [],
      "stateMutability": "nonpayable",
      "type": "function"
    },
    {
      "inputs": [
        {
          "internalType": "bytes4",
          "name": "interfaceId",
          "type": "bytes4"
        }
      ],
      "name": "supportsInterface",
      "outputs": [
        {
          "internalType": "bool",
          "name": "",
          "type": "bool"
        }
      ],
      "stateMutability": "view",
      "type": "function"
    },
    {
      "inputs": [],
      "name": "symbol",
      "outputs": [
        {
          "internalType": "string",
          "name": "",
          "type": "string"
        }
      ],
      "stateMutability": "view",
      "type": "function"
    },
    {
      "inputs": [
        {
          "internalType": "uint256",
          "name": "tokenId",
          "type": "uint256"
        }
      ],
      "name": "tokenURI",
      "outputs": [
        {
          "internalType": "string",
          "name": "",
          "type": "string"
        }
      ],
      "stateMutability": "view",
      "type": "function"
    },
    {
      "inputs": [
        {
          "internalType": "address",
          "name": "from",
          "type": "address"
        },
        {
          "internalType": "address",
          "name": "to",
          "type": "address"
        },
        {
          "internalType": "uint256",
          "name": "tokenId",
          "type": "uint256"
        }
      ],
      "name": "transferFrom",
      "outputs": [],
      "stateMutability": "nonpayable",
      "type": "function"
    },
    {
      "inputs": [
        {
          "internalType": "address",
          "name": "to",
          "type": "address"
        },
        {
          "internalType": "uint256",
          "name": "propertyId",
          "type": "uint256"
        },
        {
          "internalType": "string",
          "name": "relation",
          "type": "string"
        }
      ],
      "name": "transferToFamily",
      "outputs": [],
      "stateMutability": "nonpayable",
      "type": "function"
    },
    {
      "inputs": [
        {
          "internalType": "address",
          "name": "",
          "type": "address"
        }
      ],
      "name": "users",
      "outputs": [
        {
          "internalType": "string",
          "name": "name",
          "type": "string"
        },
        {
          "internalType": "string",
          "name": "email",
          "type": "string"
        },
        {
          "internalType": "string",
          "name": "role",
          "type": "string"
        },
        {
          "internalType": "bool",
          "name": "isRegistered",
          "type": "bool"
        }
      ],
      "stateMutability": "view",
      "type": "function"
    },
    {
      "inputs": [
        {
          "internalType": "uint256",
          "name": "_requestId",
          "type": "uint256"
        }
      ],
      "name": "verifyByGovt",
      "outputs": [],
      "stateMutability": "nonpayable",
      "type": "function"
    },
    {
      "inputs": [
        {
          "internalType": "address",
          "name": "",
          "type": "address"
        }
      ],
      "name": "walletToIdentity",
      "outputs": [
        {
          "internalType": "bytes32",
          "name": "",
          "type": "bytes32"
        }
      ],
      "stateMutability": "view",
      "type": "function"
    },
    {
      "inputs": [],
      "name": "withdrawFunds",
      "outputs": [],
      "stateMutability": "nonpayable",
      "type": "function"
    }
  ],
  "bytecode": "0x604060808152346200077b576200001562000780565b600f81526020906e125b991a5853185b99149958dbdc99608a1b828201526200003d62000780565b60038082526224a62960e91b84830152825193909291906001600160401b0380861162000765576000928354966001958689811c991680156200075a575b858a101462000679578190601f998a811162000707575b5085908a8311600114620006a457879262000698575b505060001982891b1c191690861b1784555b805190828211620005a35785548681811c911680156200068d575b85821014620006795790818984931162000626575b508490898311600114620005c3578692620005b7575b505060001982881b1c191690851b1784555b8360085566038d7ea4c68000600c556200012c33620007a0565b508651936080850185811083821117620005a35788526200014c62000780565b600b81526a29bab832b91020b236b4b760a91b8482015285526200016f62000780565b96600c88526b30b236b4b72033b7bb1734b760a11b848901528386019788526200019862000780565b946005908187526420a226a4a760d91b868801528a88019687526060880199848b52338252600b87528b82209851805190878211620004c4578a548781811c9116801562000598575b8a821014620004a55790818784931162000547575b508990878311600114620004e4578592620004d8575b5050600019828d1b1c191690861b1789555b51805189860191878211620004c45782548781811c91168015620004b9575b8a821014620004a55790818784931162000454575b508990878311600114620003f1578592620003e5575b5050600019828d1b1c191690861b1790555b600288019651918251958611620003d1578754908582811c92168015620003c6575b88831014620003b2578482116200036c575b50508592851160011462000306579394508492919083620002fa575b50501b9160001990861b1c19161790555b019051151560ff8019835416911617905551613b2f9081620008338239f35b015192503880620002ca565b86815285812093958591601f198316915b8883831062000351575050501062000338575b505050811b019055620002db565b015160001983881b60f8161c191690553880806200032a565b85870151885590960195948501948793509081019062000317565b8883528783209085808901821c8301938a8a10620003a8575b01901c019085905b8281106200039c5750620002ae565b8381550185906200038d565b9350829362000385565b634e487b7160e01b83526022600452602483fd5b91607f16916200029c565b634e487b7160e01b82526041600452602482fd5b01519050388062000268565b8486528a86208994509190601f198416875b8d8282106200043d575050841162000424575b505050811b0190556200027a565b0151600019838f1b60f8161c1916905538808062000416565b8385015186558c9790950194938401930162000403565b90915083855289852087808501881c8201928c86106200049b575b918a918695949301891c01915b8281106200048c57505062000252565b8781558594508a91016200047c565b925081926200046f565b634e487b7160e01b85526022600452602485fd5b90607f16906200023d565b634e487b7160e01b84526041600452602484fd5b0151905038806200020c565b8c86528a86208994509190601f198416875b8d82821062000530575050841162000517575b505050811b0189556200021e565b0151600019838f1b60f8161c1916905538808062000509565b8385015186558c97909501949384019301620004f6565b9091508b855289852087808501881c8201928c86106200058e575b918a918695949301891c01915b8281106200057f575050620001f6565b8781558594508a91016200056f565b9250819262000562565b90607f1690620001e1565b634e487b7160e01b85526041600452602485fd5b01519050388062000100565b8787528587208894509190601f198416885b888282106200060f5750508411620005f6575b505050811b01845562000112565b0151600019838a1b60f8161c19169055388080620005e8565b8385015186558b97909501949384019301620005d5565b9091508686528486208980850160051c8201928786106200066f575b918991869594930160051c01915b82811062000660575050620000ea565b88815585945089910162000650565b9250819262000642565b634e487b7160e01b86526022600452602486fd5b90607f1690620000d5565b015190503880620000a8565b8780528688208994509190601f198416895b89828210620006f05750508411620006d7575b505050811b018455620000ba565b0151600019838b1b60f8161c19169055388080620006c9565b8385015186558c97909501949384019301620006b6565b9091508680528587208a80850160051c82019288861062000750575b918a91869594930160051c01915b8281106200074157505062000092565b8981558594508a910162000731565b9250819262000723565b98607f16986200007b565b634e487b7160e01b600052604160045260246000fd5b600080fd5b60408051919082016001600160401b038111838210176200076557604052565b6001600160a01b031660008181527f6d5257204ebe7d88fd91ae87941cb2dd9d8062b64ae5a2bd2d28ec40b9fbf6df602052604081205490919060ff166200082e5781805260076020526040822081835260205260408220600160ff1982541617905533917f2f8788117e7eff1d82e926ec794901d17c78024a50270940304540a733656f0d8180a4600190565b509056fe608080604052600436101561001357600080fd5b60003560e01c90816301ffc9a714612f235750806306fdde0314612e80578063081812fc14612e42578063095ea7b314612d5b5780630e88e55b14612c535780630f55415b14612b6757806310c5e1b214612b3e57806314c44e0914612b205780631955cf81146127ee578063231a6159146127b457806323b872dd1461279d57806324600fc314612715578063248a9ca3146126e65780632d7788db146125ee5780632f2ff15d146125af57806336568abe1461256857806342842e0e1461253a5780636352211e1461250a57806370a08231146124b1578063807110bf146123a757806381d12c5814612233578063860c226b146121ae5780638e1e873214611dbd57806391d1485414611d7057806395d89b4114611c915780639d36ab6c14611aca578063a217fddf14611aae578063a22cb46514611a00578063a609209814611901578063a87430ba14611861578063ac9f0a4014611164578063b1de05a714611130578063b88d4fde146110c5578063bcc36cff14611019578063be47e02814610fde578063c87b56dd14610f81578063d538d7c814610659578063d547741f14610618578063e985e9c5146105c2578063f68e9553146105995763fb1a002a146101e257600080fd5b3461059457600036600319011261059457600d80549061020182613a58565b9061020f6040519283613080565b828252601f1961021e84613a58565b0160005b81811061050b575050600192835b818111156103a1578385604051918291602090818401828552835180915260408501928060408360051b8801019501936000905b8382106102715787870388f35b918496819592949698508190603f198b82030185528951908151815260018060a01b0391828482015116848301526103256103136103006102ed6102da6102c760408701516102008060408b0152890190612fc2565b60608088015190898303908a0152612fc2565b6080808701519088830390890152612fc2565b60a0808601519087830390880152612fc2565b60c0808501519086830390870152612fc2565b60e083015184820360e0860152612fc2565b926103396101008084015190850190613226565b61034c6101208084015190850190613233565b6101408083015190840152610160808301519084015261018080830151908401526101a080830151908401526101c0908183015116908301526101e08091015191015298019201920187969593919492610264565b80600052600e906020918083526040600020906000198301908382116104f557604051906103ce8261302e565b83548252898401546001600160a01b03908116968301969096526103f460028501613180565b604083015261040560038501613180565b606083015261041660048501613180565b60808301526005610428818601613180565b60a084015261043960068601613180565b60c084015261044a60078601613180565b60e08401526008808601549060ff92838316908110156104df576101008601521c169360048510156104df576104da966104d4956101208501526009820154610140850152600a820154610160850152600b820154610180850152600c8201546101a085015289820154166101c084015201546101e08201526104cd8289613a6f565b5286613a6f565b50613973565b610230565b634e487b7160e01b600052602160045260246000fd5b634e487b7160e01b600052601160045260246000fd5b60209060405161051a8161302e565b6000815282600081830152606080604084015280808401528060808401528060a08401528060c084015260e08301526000610100830152600061012083015260006101408301526000610160830152600061018083015260006101a083015260006101c083015260006101e0830152828701015201610222565b600080fd5b34610594576000366003190112610594576020604051600080516020613ada8339815191528152f35b34610594576040366003190112610594576105db613002565b6105e3613018565b9060018060a01b03809116600052600560205260406000209116600052602052602060ff604060002054166040519015158152f35b3461059457604036600319011261059457610657600435610637613018565b908060005260076020526106526001604060002001546132c6565b61350a565b005b61066236613240565b9161066b613982565b33600052600b60205260ff6003604060002001541615610f3257600c543410610efa57610699600d54613973565b9384600d55604051956106ab8761302e565b858752336020880152604087015260608601526040516106ca81613065565b600981526813125392d15117d25160ba1b6020820152608086015260a085015260c084015260e08301526000610100830152600061012083015260006101408301526000610160830152600061018083015260006101a083015260006101c0830152426101e0830152600052600e6020526040600020908051825560018060a01b036020820151166001600160601b0360a01b60018401541617600183015560408101519182516001600160401b038111610b245761078c6002830154613146565b601f8111610eb3575b506020601f8211600114610e455781929394600092610e3a575b50508160011b916000199060031b1c19161760028201555b60608201519182516001600160401b038111610b24576107ea6003840154613146565b601f8111610df3575b506020601f8211600114610d855781929394600092610d7a575b50508160011b916000199060031b1c19161760038301555b60808101519182516001600160401b038111610b24576108486004830154613146565b601f8111610d33575b506020601f8211600114610cc55781929394600092610cba575b50508160011b916000199060031b1c19161760048201555b60a08201519182516001600160401b038111610b24576108a66005840154613146565b601f8111610c73575b506020601f8211600114610c055781929394600092610bfa575b50508160011b916000199060031b1c19161760058301555b60c08101519182516001600160401b038111610b24576109046006830154613146565b601f8111610bb3575b506020601f8211600114610b455781929394600092610b3a575b50508160011b916000199060031b1c19161760068201555b60e08201519182516001600160401b038111610b24576109626007840154613146565b601f8111610add575b506020601f8211600114610a6f5781929394600092610a64575b50508160011b916000199060031b1c19161760078301555b610100810151600883019160058210156104df578254926101208201519260048410156104df57600e9460ff61ff006101e09660081b1692169061ffff1916171790556101408101516009850155610160810151600a850155610180810151600b8501556101a0810151600c850155600d840160018060a01b036101c0830151166001600160601b0360a01b825416179055015191015533600d547f67da995c6df7166078290dae7ac4f9c90eeb269d051c434663949b26f04dba1d600080a36001600855005b015190508480610985565b6007840160005260206000209060005b601f1984168110610ac55750600193949583601f19811610610aac575b505050811b01600783015561099d565b015160001960f88460031b161c19169055848080610a9c565b9091602060018192858a015181550193019101610a7f565b600784016000526020600020601f830160051c810160208410610b1d575b601f830160051c82018110610b1157505061096b565b60008155600101610afb565b5080610afb565b634e487b7160e01b600052604160045260246000fd5b015190508480610927565b6006830160005260206000209060005b601f1984168110610b9b5750600193949583601f19811610610b82575b505050811b01600682015561093f565b015160001960f88460031b161c19169055848080610b72565b9091602060018192858a015181550193019101610b55565b600683016000526020600020601f830160051c810160208410610bf3575b601f830160051c82018110610be757505061090d565b60008155600101610bd1565b5080610bd1565b0151905084806108c9565b6005840160005260206000209060005b601f1984168110610c5b5750600193949583601f19811610610c42575b505050811b0160058301556108e1565b015160001960f88460031b161c19169055848080610c32565b9091602060018192858a015181550193019101610c15565b600584016000526020600020601f830160051c810160208410610cb3575b601f830160051c82018110610ca75750506108af565b60008155600101610c91565b5080610c91565b01519050848061086b565b6004830160005260206000209060005b601f1984168110610d1b5750600193949583601f19811610610d02575b505050811b016004820155610883565b015160001960f88460031b161c19169055848080610cf2565b9091602060018192858a015181550193019101610cd5565b600483016000526020600020601f830160051c810160208410610d73575b601f830160051c82018110610d67575050610851565b60008155600101610d51565b5080610d51565b01519050848061080d565b6003840160005260206000209060005b601f1984168110610ddb5750600193949583601f19811610610dc2575b505050811b016003830155610825565b015160001960f88460031b161c19169055848080610db2565b9091602060018192858a015181550193019101610d95565b600384016000526020600020601f830160051c810160208410610e33575b601f830160051c82018110610e275750506107f3565b60008155600101610e11565b5080610e11565b0151905084806107af565b6002830160005260206000209060005b601f1984168110610e9b5750600193949583601f19811610610e82575b505050811b0160028201556107c7565b015160001960f88460031b161c19169055848080610e72565b9091602060018192858a015181550193019101610e55565b600283016000526020600020601f830160051c810160208410610ef3575b601f830160051c82018110610ee7575050610795565b60008155600101610ed1565b5080610ed1565b60405162461bcd60e51b815260206004820152601060248201526f496e73756666696369656e742046656560801b6044820152606490fd5b60405162461bcd60e51b815260206004820152602160248201527f4d757374206c696e6b204964656e746974792f416164686161722066697273746044820152602160f81b6064820152608490fd5b3461059457602036600319011261059457600435610f9e816137cd565b506000526006602052610fda610fb76040600020613180565b6000604051610fc58161304a565b52604051918291602083526020830190612fc2565b0390f35b346105945760003660031901126105945760206040517f2876b6444ca73956040d49b0d48b2a7c03b6b34daa638a812177f0309da79c7e8152f35b34610594576060366003190112610594576004357f3cf0e429eb8478e2532bd6678f8f3cb5c7156d3cc200512c051c25844747fa13608060243561106f61105f856137cd565b6001600160a01b031633146139a5565b83600052600e60205260406000206008810161020061ff001982541617905581600a820155600b60443591015560405190604082526009604083015268466f72204c6561736560b81b60608301526020820152a2005b34610594576080366003190112610594576110de613002565b6110e6613018565b90604435606435926001600160401b03841161059457366023850112156105945761111e6106579436906024816004013591016130bc565b9261112a838383613581565b33613808565b34610594576020366003190112610594576004356000526009602052602060018060a01b0360406000205416604051908152f35b346105945761117236613240565b93909333600052600b60205260ff6003604060002001541661182357602081519101209384600052600960205260018060a01b03604060002054166117cb578460005260096020526040600020336001600160601b0360a01b82541617905533600052600a6020528460406000205582517faade7c69e1b3a8eb9c89d8463ab8bd8cb23c5a70b6e0a328bfd03ea8c3457369602085019182206b23a7ab2a2fa7a32324a1a2a960a11b602060405161122981613065565b600c815201520361166657507eb2cfcd144c027b3b7855b62fe9ca45dcb97d1d83f783689912be0366805e21816020611285935191012066474f565431323360c81b602060405161127981613065565b60078152015214613938565b61128e33613417565b505b604051916001600160401b03916080840183811185821017610b245760405283526020830193845260408301526001606083015233600052600b6020526040600020928251805190838211610b245781906112eb8754613146565b601f8111611613575b50602090601f83116001146115ad576000926115a2575b50508160011b916000199060031b1c19161784555b51805190828211610b2457819061133a6001870154613146565b601f811161154c575b50602090601f83116001146114df576000926114d4575b50508160011b916000199060031b1c19161760018401555b600283019060408301518051918211610b245761138f8354613146565b601f811161148c575b50602090601f831160011461141b5792826060936113e8979693600396600092611410575b50508160011b9160001990871b1c19161790555b0151151591019060ff801983541691151516179055565b337f7e09b322e495f61d9c3482c62f4d74a8f4cd603c94be8a8acffb3842a7a05e3b600080a3005b0151905089806113bd565b90601f198316918460005260206000209260005b8181106114745750936113e897969360039693600193836060981061145c575b505050811b0190556113d1565b015160001983891b60f8161c1916905589808061144f565b9293602060018192878601518155019501930161142f565b836000526020600020601f840160051c810191602085106114ca575b601f0160051c01905b8181106114be5750611398565b600081556001016114b1565b90915081906114a8565b01519050868061135a565b600187016000908152602081209350601f198516905b818110611534575090846001959493921061151b575b505050811b016001840155611372565b015160001960f88460031b161c1916905586808061150b565b929360206001819287860151815501950193016114f5565b909150600186016000526020600020601f840160051c81019160208510611598575b90601f859493920160051c01905b8181106115895750611343565b6000815584935060010161157c565b909150819061156e565b01519050878061130b565b6000888152602081209350601f198516905b8181106115fb57509084600195949392106115e2575b505050811b018455611320565b015160001960f88460031b161c191690558780806115d5565b929360206001819287860151815501950193016115bf565b909150866000526020600020601f840160051c8101916020851061165c575b90601f859493920160051c01905b81811061164d57506112f4565b60008155849350600101611640565b9091508190611632565b7fa78e49ef41478ad2ab23f4faa913f2dca7351bc697dcd6bb0cd3fd6ea3c8db8a845182206729aaa92b22aca7a960c11b60206040516116a581613065565b6008815201520361171357507f2aee43caeceba709dea2937ae43e888d333dde67ea763228a69d7c9e25ac607781602061170493519101206853555256455931323360b81b60206040516116f881613065565b60098152015214613938565b61170d3361337b565b50611290565b7fd6b769dbdbf190871759edfb79bd17eda0005e1b8c3b6b3f5b480b5604ad50149084519020682922a3a4a9aa2920a960b91b602060405161175481613065565b600981520152146117655750611290565b7feeec48380e9542e5defda8821480f34e4a6e8ea26cddf01dd26478e676cc3a388160206117bb93519101206b52454749535452415231323360a01b60206040516117af81613065565b600c8152015214613938565b6117c4336132ec565b508461170d565b60405162461bcd60e51b815260206004820152602a60248201527f4964656e7469747920616c7265616479206c696e6b656420746f20616e6f746860448201526965722077616c6c65742160b01b6064820152608490fd5b60405162461bcd60e51b815260206004820152601660248201527557616c6c657420616c7265616479206c696e6b65642160501b6044820152606490fd5b34610594576020366003190112610594576001600160a01b03611882613002565b16600052600b6020526118d9604060002061189c81613180565b906118f56118ac60018301613180565b916118e760ff60036118c060028501613180565b9301541693604051968796608088526080880190612fc2565b908682036020880152612fc2565b908482036040860152612fc2565b90151560608301520390f35b34610594576020806003193601126105945760043590600080516020613aba8339815191528060005260078252604060002033600052825260ff60406000205416156119e2575081600052600e815260ff6008604060002001541660058110156104df576119b0577f2da7b23ca63c1eb969eee5fae4acb98186abecf5358b0354a82a5183ebca6b2a9082600052600e81526008604060002001600160ff1982541617905560405160018152a2005b6064906040519062461bcd60e51b82526004820152600b60248201526a29ba30b3b29022b93937b960a91b6044820152fd5b6044906040519063e2517d3f60e01b82523360048301526024820152fd5b3461059457604036600319011261059457611a19613002565b6024359081151590818303610594576001600160a01b0316918215611a9557611a679033600052600560205260406000208460005260205260406000209060ff801983541691151516179055565b6040519081527f17307eab39ab6107e8899845ad3d59bd9653f200f220920489ca2b5937696c3160203392a3005b604051630b61174360e31b815260048101849052602490fd5b3461059457600036600319011261059457602060405160008152f35b6020806003193601126105945760043590611ae3613982565b81600052600e8152604060002033600052600b825260ff6003604060002001541615611c4c57600881019160ff835460081c1660048110156104df57600203611c1857600a8201543410611be95760008080806001600160a01b03611b47896137cd565b1681903415611bdf575b3491f115611bd357600d8201336001600160601b0360a01b825416179055600b820154804201938442116104f5577fe6aef257b8c2e2f01587b7dbe07bc085f3ee5a15cea0fa649e83e987e3404e6c94600c608095015561030061ff001982541617905560405191338352820152346040820152426060820152a26001600855005b6040513d6000823e3d90fd5b6108fc9150611b51565b6064906040519062461bcd60e51b825260048201526008602482015267131bddc814995b9d60c21b6044820152fd5b6064906040519062461bcd60e51b82526004820152600d60248201526c4e6f7420666f72206c6561736560981b6044820152fd5b60405162461bcd60e51b815260048101839052601960248201527f54656e616e74206d757374206c696e6b204161646861617221000000000000006044820152606490fd5b346105945760003660031901126105945760405160006001805490611cb582613146565b80855291818116908115611d495750600114611cf0575b610fda84611cdc81860382613080565b604051918291602083526020830190612fc2565b600081815292507fb10e2d527612073b26eecdfd717e6a320cf44b4afac2b0732d9fcbe2b7fa0cf65b828410611d31575050508101602001611cdc82611ccc565b80546020858701810191909152909301928101611d19565b60ff191660208087019190915292151560051b85019092019250611cdc9150839050611ccc565b3461059457604036600319011261059457611d89613018565b600435600052600760205260406000209060018060a01b0316600052602052602060ff604060002054166040519015158152f35b346105945760208060031936011261059457600080516020613ada8339815191528060005260078252604060002033600052825260ff60406000205416156119e25750600435600052600e8152604060002060088101805460ff811660058110156104df576002036121705760039060ff19161790556001918282019160018060a01b0391828454168254604051611e548161304a565b6000815282156121575785611e698385613711565b1661213e57823b612016575b5050508154611e8660038401613180565b9581600052600683526040600020908751976001600160401b038911610b2457611eb08354613146565b601f8111611fcd575b508490601f8a11600114611f495798809281927ff8e1a15aba9398e019f0b49df1a4fde98ee17ae345cb5f6b5e2c27f5033e8ce798999a9b600094611f3e575b50501b916000199060031b1c19161790555b604051908152a154915416907fbb34aa4710e9aece41642e442b49b5b8aff84ba0def93849797c2f15398aab23600080a3005b015192508b80611ef9565b9890601f1982169084600052866000209160005b818110611fb857509a837ff8e1a15aba9398e019f0b49df1a4fde98ee17ae345cb5f6b5e2c27f5033e8ce7999a9b9c10611f9f575b505050811b019055611f0b565b015160001960f88460031b161c19169055898080611f92565b8c830151845592850192918801918801611f5d565b8360005285600020601f8b0160051c810191878c1061200c575b601f0160051c019083905b828110612000575050611eb9565b60008155018390611ff2565b9091508190611fe7565b8361205991604099979599989694985180938192630a85bd0160e11b96878452336004850152600060248501526044840152608060648401526084830190612fc2565b038160008b5af1600091816120fe575b506120c75787873d156120bf573d91612081836130a1565b9261208f6040519485613080565b83523d60008285013e5b825192836120ba57604051633250574960e11b815260048101849052602490fd5b019050fd5b606091612099565b63ffffffff60e098949698979395971b16036120e65750858080611e75565b60249060405190633250574960e11b82526004820152fd5b9091508881813d8311612137575b6121168183613080565b8101031261059457516001600160e01b031981168103610594579089612069565b503d61210c565b6040516339e3563760e11b815260006004820152602490fd5b604051633250574960e11b815260006004820152602490fd5b60405162461bcd60e51b8152600481018590526016602482015275135d5cdd081899481cdd5c9d995e595908199a5c9cdd60521b6044820152606490fd5b34610594576020366003190112610594576004356121ce61105f826137cd565b80600052600e602052600860406000200161ff001981541690557f3cf0e429eb8478e2532bd6678f8f3cb5c7156d3cc200512c051c25844747fa1360806040516040815260076040820152665072697661746560c81b606082015260006020820152a2005b34610594576020366003190112610594576004356000908152600e60205260409020805460018201546001600160a01b039081169261227460028201613180565b9061228160038201613180565b9261228e60048301613180565b9361229b60058401613180565b946122a860068501613180565b956122b560078601613180565b600886015497600987015492600a88015494600b89015496600c8a015498600d8b01541699600e01549a6040519e8f9e8f908152602001528d610200908160408201520161230291612fc2565b8d810360608f015261231391612fc2565b8c810360808e015261232491612fc2565b8b810360a08d015261233591612fc2565b8a810360c08c015261234691612fc2565b89810360e08b015261235791612fc2565b966123696101008a0160ff8316613226565b61012089019060081c60ff169061237f91613233565b6101408801526101608701526101808601526101a08501526101c08401526101e08301520390f35b34610594576060366003190112610594576123c0613002565b602435906044356001600160401b038111610594576123e39036906004016130f3565b906123ed836137cd565b6001600160a01b0390339082160361246c577f010f8258983dd8a2eee85a0d3783880e2ea10a4deccad32fa75bc97af96902ad916124486040516124308161304a565b6000815261243f8784336139dd565b86833333613808565b6040519485526040602086015216928061246733946040830190612fc2565b0390a3005b60405162461bcd60e51b815260206004820152601760248201527f596f7520646f6e2774206f776e2074686973206c616e640000000000000000006044820152606490fd5b34610594576020366003190112610594576001600160a01b036124d2613002565b1680156124f15760005260036020526020604060002054604051908152f35b6040516322718ad960e21b815260006004820152602490fd5b346105945760203660031901126105945760206125286004356137cd565b6040516001600160a01b039091168152f35b346105945761065761254b36613111565b90604051926125598461304a565b6000845261112a838383613581565b3461059457604036600319011261059457612581613018565b336001600160a01b0382160361259d576106579060043561350a565b60405163334bd91960e11b8152600490fd5b34610594576040366003190112610594576106576004356125ce613018565b908060005260076020526125e96001604060002001546132c6565b6134a1565b34610594576020806003193601126105945760043590600080516020613aba83398151915260005260078152604060002033600052815260ff6040600020541680156126b6575b15612681577f2da7b23ca63c1eb969eee5fae4acb98186abecf5358b0354a82a5183ebca6b2a9082600052600e81526008604060002001600460ff1982541617905560405160048152a2005b6064906040519062461bcd60e51b82526004820152600e60248201526d139bdd08185d5d1a1bdc9a5e995960921b6044820152fd5b50600080516020613ada83398151915260005260078152604060002033600052815260ff60406000205416612635565b346105945760203660031901126105945760043560005260076020526020600160406000200154604051908152f35b34610594576000366003190112610594573360009081527f6d5257204ebe7d88fd91ae87941cb2dd9d8062b64ae5a2bd2d28ec40b9fbf6df602052604090205460ff161561277e57600080808047818115612775575b3390f115611bd357005b506108fc61276b565b60405163e2517d3f60e01b815233600482015260006024820152604490fd5b34610594576106576127ae36613111565b91613581565b34610594576020366003190112610594576001600160a01b036127d5613002565b16600052600a6020526020604060002054604051908152f35b6040366003190112610594576001600160401b03600435602480358381116105945761281e9036906004016130f3565b92612827613982565b82600052602090600e82526040600020612840856137cd565b9333600052600b845260ff6003604060002001541615612add57600882019260ff845460081c16976004891015612ac8576001809903612a955760098401543410612a65576001600160a01b0387169660003415612a5c575b6000808080938c3491f115611bd357886128b49133906139dd565b60028401928151928311612a4857509082916128d28a959454613146565b601f81116129ff575b508690601f83116001146129705791806060989694927fddd64180d9701c7ede08673ac8106484ff983a472929330d4fbde4e35d65cb069a989694600092612965575b5050600019600383901b1c191690841b1790555b01336001600160601b0360a01b82541617905561ff001981541690556040519182523390820152346040820152a2600855005b015190508c8061291e565b90601f1983169184600052886000209260005b8181106129e85750928795939285927fddd64180d9701c7ede08673ac8106484ff983a472929330d4fbde4e35d65cb069c9a989660609c9a95106129cf575b505050811b019055612932565b015160001960f88460031b161c191690558c80806129c2565b8284015185558d9890940193928a01928a01612983565b8360005287600020601f840160051c810191898510612a3e575b601f0160051c019086905b828110612a325750506128db565b60008155018690612a24565b9091508190612a19565b634e487b7160e01b60009081526041600452fd5b506108fc612899565b60405162461bcd60e51b815260048101879052600981850152684c6f772066756e647360b81b6044820152606490fd5b60405162461bcd60e51b815260048101879052600c818501526b4e6f7420666f722073616c6560a01b6044820152606490fd5b82634e487b7160e01b60005260216004526000fd5b8360186064926040519262461bcd60e51b845260048401528201527f4275796572206d757374206c696e6b20416164686161722100000000000000006044820152fd5b34610594576000366003190112610594576020600c54604051908152f35b34610594576000366003190112610594576020604051600080516020613aba8339815191528152f35b3461059457604036600319011261059457600435602435612b8a61105f836137cd565b81600052600e60205260ff6008604060002001541660058110156104df57600303612c1f5760807f3cf0e429eb8478e2532bd6678f8f3cb5c7156d3cc200512c051c25844747fa139183600052600e60205280600960406000206008810161010061ff0019825416179055015560405190604082526008604083015267466f722053616c6560c01b60608301526020820152a2005b60405162461bcd60e51b815260206004820152600c60248201526b139bdd08105c1c1c9bdd995960a21b6044820152606490fd5b346105945760208060031936011261059457600435907f2876b6444ca73956040d49b0d48b2a7c03b6b34daa638a812177f0309da79c7e8060005260078252604060002033600052825260ff60406000205416156119e2575081600052600e815260ff6008604060002001541660058110156104df57600103612d17577f2da7b23ca63c1eb969eee5fae4acb98186abecf5358b0354a82a5183ebca6b2a9082600052600e81526008604060002001600260ff1982541617905560405160028152a2005b6064906040519062461bcd60e51b82526004820152601860248201527f4e6f7420766572696669656420627920476f76742079657400000000000000006044820152fd5b3461059457604036600319011261059457612d74613002565b602435612d80816137cd565b33151580612e2f575b80612e02575b612dea576001600160a01b039283169282918491167f8c5be1e5ebec7d5bd14f71427d1e84f3dd0314c0f7b2291e5b200ac8c7c3b925600080a4600090815260046020526040902080546001600160a01b0319169091179055005b60405163a9fbf51f60e01b8152336004820152602490fd5b5060018060a01b038116600052600560205260406000203360005260205260ff6040600020541615612d8f565b506001600160a01b038116331415612d89565b3461059457602036600319011261059457600435612e5f816137cd565b506000526004602052602060018060a01b0360406000205416604051908152f35b346105945760003660031901126105945760405160008054612ea181613146565b80845290600190818116908115611d495750600114612eca57610fda84611cdc81860382613080565b600080805292507f290decd9548b62a8d60345a988386fc84ba6bc95484008f6362f93160ef3e5635b828410612f0b575050508101602001611cdc82611ccc565b80546020858701810191909152909301928101612ef3565b34610594576020366003190112610594576004359063ffffffff60e01b821680920361059457602091637965db0b60e01b8114908115612f65575b5015158152f35b632483248360e11b811491508115612f7f575b5083612f5e565b6380ac58cd60e01b811491508115612fb1575b8115612fa0575b5083612f78565b6301ffc9a760e01b14905083612f99565b635b5e139f60e01b81149150612f92565b919082519283825260005b848110612fee575050826000602080949584010152601f8019910116010190565b602081830181015184830182015201612fcd565b600435906001600160a01b038216820361059457565b602435906001600160a01b038216820361059457565b61020081019081106001600160401b03821117610b2457604052565b602081019081106001600160401b03821117610b2457604052565b604081019081106001600160401b03821117610b2457604052565b90601f801991011681019081106001600160401b03821117610b2457604052565b6001600160401b038111610b2457601f01601f191660200190565b9291926130c8826130a1565b916130d66040519384613080565b829481845281830111610594578281602093846000960137010152565b9080601f830112156105945781602061310e933591016130bc565b90565b6060906003190112610594576001600160a01b0390600435828116810361059457916024359081168103610594579060443590565b90600182811c92168015613176575b602083101461316057565b634e487b7160e01b600052602260045260246000fd5b91607f1691613155565b906040519182600082549261319484613146565b90818452600194858116908160001461320357506001146131c0575b50506131be92500383613080565b565b9093915060005260209081600020936000915b8183106131eb5750506131be935082010138806131b0565b855488840185015294850194879450918301916131d3565b9150506131be94506020925060ff191682840152151560051b82010138806131b0565b9060058210156104df5752565b9060048210156104df5752565b60a0600319820112610594576004906001600160401b038235818111610594578261326c9185016130f3565b9360243582811161059457836132839186016130f3565b93604435838111610594578461329a9183016130f3565b9360643584811161059457816132b19184016130f3565b936084359081116105945761310e92016130f3565b80600052600760205260406000203360005260205260ff60406000205416156119e25750565b6001600160a01b031660008181527fff6db987cc3eb6bb5dcc88dfdb614854cfd71c221fb0d830bd28f7ba6e802ead6020526040812054909190600080516020613ada8339815191529060ff166133765780835260076020526040832082845260205260408320600160ff19825416179055600080516020613a9a833981519152339380a4600190565b505090565b6001600160a01b031660008181527f88dc988953ac3783e42f15664720d42b06bb81b884417b7c7bc8e77b0a720db660205260408120549091907f2876b6444ca73956040d49b0d48b2a7c03b6b34daa638a812177f0309da79c7e9060ff166133765780835260076020526040832082845260205260408320600160ff19825416179055600080516020613a9a833981519152339380a4600190565b6001600160a01b031660008181527f0d2ca987390669ebc5f233dfd59f08e79cce116aaf03d896b922b0a1fd7a9d696020526040812054909190600080516020613aba8339815191529060ff166133765780835260076020526040832082845260205260408320600160ff19825416179055600080516020613a9a833981519152339380a4600190565b906000918083526007602052604083209160018060a01b03169182845260205260ff604084205416156000146133765780835260076020526040832082845260205260408320600160ff19825416179055600080516020613a9a833981519152339380a4600190565b906000918083526007602052604083209160018060a01b03169182845260205260ff604084205416600014613376578083526007602052604083208284526020526040832060ff1981541690557ff6391f5c32d9c69d2a47ea670b442974b53935d1edc7fd64eb21e047a839171b339380a4600190565b906001600160a01b0390811680156121575760009184835284602092600284526040938385872054169586913315158061367b575b509060027fddf252ad1be2c89b69c2b068fc378daa952ba7f163c4a11628f55a4df523b3ef9284613648575b85835260038152888320805460010190558683525286812080546001600160a01b0319168517905580a48316820361361a5750505050565b516364283d7b60e01b81526001600160a01b0392831660048201526024810193909352166044820152606490fd5b600087815260046020526040902080546001600160a01b03191690558483526003815288832080546000190190556135e2565b919394509150806136d0575b15613697578792918691386135b6565b8488876136b4576024915190637e27328960e01b82526004820152fd5b604491519063177e802f60e01b82523360048301526024820152fd5b5033861480156136f5575b806136875750878252600481523384868420541614613687565b5085825260058152848220338352815260ff85832054166136db565b6000828152600260205260408120546001600160a01b03908116939284917fddf252ad1be2c89b69c2b068fc378daa952ba7f163c4a11628f55a4df523b3ef9183613798575b169283613780575b84815260026020526040812080546001600160a01b0319168517905580a490565b8381526003602052604081206001815401905561375f565b600086815260046020526040902080546001600160a01b03191690558385526003602052604085208054600019019055613757565b6000818152600260205260409020546001600160a01b03169081156137f0575090565b60249060405190637e27328960e01b82526004820152fd5b90939192833b61381a575b5050505050565b604051630a85bd0160e11b8082526001600160a01b039384166004830152958316602482015260448101919091526080606482015294921692602092918590613867906084830190612fc2565b039483816000978189895af18691816138f4575b506138d6575050503d6000146138cd573d613895816130a1565b906138a36040519283613080565b81528093823d92013e825192836120ba57604051633250574960e11b815260048101849052602490fd5b60609250612099565b919450915063ffffffff60e01b16036120e657503880808080613813565b9091508481813d8311613931575b61390c8183613080565b8101031261392d57516001600160e01b03198116810361392d57903861387b565b8680fd5b503d613902565b1561393f57565b60405162461bcd60e51b815260206004820152600c60248201526b496e76616c696420436f646560a01b6044820152606490fd5b60001981146104f55760010190565b600260085414613993576002600855565b604051633ee5aeb560e01b8152600490fd5b156139ac57565b60405162461bcd60e51b81526020600482015260096024820152682737ba1027bbb732b960b91b6044820152606490fd5b906001600160a01b03908181161561215757836139f991613711565b908082169081613a1c57604051637e27328960e01b815260048101869052602490fd5b831603613a2857505050565b6040516364283d7b60e01b81526001600160a01b0392831660048201526024810193909352166044820152606490fd5b6001600160401b038111610b245760051b60200190565b8051821015613a835760209160051b010190565b634e487b7160e01b600052603260045260246000fdfe2f8788117e7eff1d82e926ec794901d17c78024a50270940304540a733656f0d710860e085084403cfe5e59ea7faf8026d1db65d8b1086e3e1879ff3fd1b2a53edcc084d3dcd65a1f7f23c65c46722faca6953d28e43150a467cf43e5c309238a2646970667358221220da227584998e31f005ad449dfbecb2307b81911aa9d6b2e99c423282bf342f6064736f6c63430008140033",
  "linkReferences": {},
  "deployedLinkReferences": {}
}